{
  "contractName": "Admin",
  "abi": [
    {
      "constant": true,
      "inputs": [],
      "name": "adminTotalTransferLimit",
      "outputs": [
        {
          "name": "",
          "type": "uint256"
        }
      ],
      "payable": false,
      "stateMutability": "view",
      "type": "function"
    },
    {
      "constant": true,
      "inputs": [],
      "name": "adminUserTransferLimit",
      "outputs": [
        {
          "name": "",
          "type": "uint256"
        }
      ],
      "payable": false,
      "stateMutability": "view",
      "type": "function"
    },
    {
      "constant": true,
      "inputs": [],
      "name": "adminTotalBurnLimit",
      "outputs": [
        {
          "name": "",
          "type": "uint256"
        }
      ],
      "payable": false,
      "stateMutability": "view",
      "type": "function"
    },
    {
      "constant": true,
      "inputs": [],
      "name": "owner",
      "outputs": [
        {
          "name": "",
          "type": "address"
        }
      ],
      "payable": false,
      "stateMutability": "view",
      "type": "function"
    },
    {
      "inputs": [
        {
          "name": "storageContract",
          "type": "address"
        }
      ],
      "payable": false,
      "stateMutability": "nonpayable",
      "type": "constructor"
    },
    {
      "anonymous": false,
      "inputs": [
        {
          "indexed": true,
          "name": "user",
          "type": "address"
        }
      ],
      "name": "AdminAdded",
      "type": "event"
    },
    {
      "anonymous": false,
      "inputs": [
        {
          "indexed": true,
          "name": "user",
          "type": "address"
        }
      ],
      "name": "AdminRemoved",
      "type": "event"
    },
    {
      "constant": true,
      "inputs": [
        {
          "name": "user",
          "type": "address"
        }
      ],
      "name": "isAdmin",
      "outputs": [
        {
          "name": "",
          "type": "bool"
        }
      ],
      "payable": false,
      "stateMutability": "view",
      "type": "function"
    },
    {
      "constant": false,
      "inputs": [
        {
          "name": "user",
          "type": "address"
        },
        {
          "name": "addresses",
          "type": "address[]"
        }
      ],
      "name": "addAdmin",
      "outputs": [],
      "payable": false,
      "stateMutability": "nonpayable",
      "type": "function"
    },
    {
      "constant": false,
      "inputs": [
        {
          "name": "user",
          "type": "address"
        }
      ],
      "name": "removeAdmin",
      "outputs": [],
      "payable": false,
      "stateMutability": "nonpayable",
      "type": "function"
    },
    {
      "constant": true,
      "inputs": [
        {
          "name": "admin",
          "type": "address"
        },
        {
          "name": "user",
          "type": "address"
        }
      ],
      "name": "isTeamMember",
      "outputs": [
        {
          "name": "",
          "type": "bool"
        }
      ],
      "payable": false,
      "stateMutability": "view",
      "type": "function"
    },
    {
      "constant": false,
      "inputs": [
        {
          "name": "user",
          "type": "address"
        }
      ],
      "name": "addTeamMember",
      "outputs": [],
      "payable": false,
      "stateMutability": "nonpayable",
      "type": "function"
    },
    {
      "constant": false,
      "inputs": [
        {
          "name": "user",
          "type": "address"
        }
      ],
      "name": "removeTeamMember",
      "outputs": [],
      "payable": false,
      "stateMutability": "nonpayable",
      "type": "function"
    },
    {
      "constant": true,
      "inputs": [
        {
          "name": "admin",
          "type": "address"
        }
      ],
      "name": "getTeamMembers",
      "outputs": [
        {
          "name": "",
          "type": "address[]"
        }
      ],
      "payable": false,
      "stateMutability": "view",
      "type": "function"
    },
    {
      "constant": true,
      "inputs": [
        {
          "name": "admin",
          "type": "address"
        }
      ],
      "name": "getAdminTransferableBalance",
      "outputs": [
        {
          "name": "",
          "type": "uint256"
        }
      ],
      "payable": false,
      "stateMutability": "view",
      "type": "function"
    },
    {
      "constant": true,
      "inputs": [
        {
          "name": "admin",
          "type": "address"
        }
      ],
      "name": "getAdminBurnBalance",
      "outputs": [
        {
          "name": "",
          "type": "uint256"
        }
      ],
      "payable": false,
      "stateMutability": "view",
      "type": "function"
    },
    {
      "constant": true,
      "inputs": [
        {
          "name": "admin",
          "type": "address"
        },
        {
          "name": "user",
          "type": "address"
        }
      ],
      "name": "getAdminUserAllowance",
      "outputs": [
        {
          "name": "",
          "type": "uint256"
        }
      ],
      "payable": false,
      "stateMutability": "view",
      "type": "function"
    },
    {
      "constant": false,
      "inputs": [
        {
          "name": "admin",
          "type": "address"
        },
        {
          "name": "value",
          "type": "uint256"
        }
      ],
      "name": "setAdminBurnBalance",
      "outputs": [],
      "payable": false,
      "stateMutability": "nonpayable",
      "type": "function"
    },
    {
      "constant": false,
      "inputs": [
        {
          "name": "admin",
          "type": "address"
        },
        {
          "name": "user",
          "type": "address"
        },
        {
          "name": "value",
          "type": "uint256"
        }
      ],
      "name": "reduceAdminTransferAllowance",
      "outputs": [],
      "payable": false,
      "stateMutability": "nonpayable",
      "type": "function"
    },
    {
      "constant": false,
      "inputs": [
        {
          "name": "admin",
          "type": "address"
        }
      ],
      "name": "resetAllowances",
      "outputs": [],
      "payable": false,
      "stateMutability": "nonpayable",
      "type": "function"
    },
    {
      "constant": false,
      "inputs": [
        {
          "name": "limit",
          "type": "uint256"
        }
      ],
      "name": "setAdminUserTransferLimit",
      "outputs": [],
      "payable": false,
      "stateMutability": "nonpayable",
      "type": "function"
    },
    {
      "constant": false,
      "inputs": [
        {
          "name": "limit",
          "type": "uint256"
        }
      ],
      "name": "setAdminTotalTransferLimit",
      "outputs": [],
      "payable": false,
      "stateMutability": "nonpayable",
      "type": "function"
    },
    {
      "constant": false,
      "inputs": [
        {
          "name": "limit",
          "type": "uint256"
        }
      ],
      "name": "setAdminTotalBurnLimit",
      "outputs": [],
      "payable": false,
      "stateMutability": "nonpayable",
      "type": "function"
    },
    {
      "constant": true,
      "inputs": [],
      "name": "getAdminUserTransferLimit",
      "outputs": [
        {
          "name": "",
          "type": "uint256"
        }
      ],
      "payable": false,
      "stateMutability": "view",
      "type": "function"
    },
    {
      "constant": true,
      "inputs": [],
      "name": "getAdminTotalTransferLimit",
      "outputs": [
        {
          "name": "",
          "type": "uint256"
        }
      ],
      "payable": false,
      "stateMutability": "view",
      "type": "function"
    },
    {
      "constant": true,
      "inputs": [],
      "name": "getAdminTotalBurnLimit",
      "outputs": [
        {
          "name": "",
          "type": "uint256"
        }
      ],
      "payable": false,
      "stateMutability": "view",
      "type": "function"
    }
  ],
  "bytecode": "0x6080604052600f6001556101f46002556101f460035534801561002157600080fd5b50604051602080612d3e83398101806040528101908080519060200190929190505050336000806101000a81548173ffffffffffffffffffffffffffffffffffffffff021916908373ffffffffffffffffffffffffffffffffffffffff16021790555080600460006101000a81548173ffffffffffffffffffffffffffffffffffffffff021916908373ffffffffffffffffffffffffffffffffffffffff16021790555050612c69806100d56000396000f300608060405260043610610133576000357c0100000000000000000000000000000000000000000000000000000000900463ffffffff1680630b556314146101385780630b7c7ae1146101a557806314eba026146101fc5780631785f53c1461023f57806324d7806c146102825780632938a381146102dd5780633da21c46146103085780633eb2b5ad146103335780634d973875146103765780635f9c2b8c146103d157806368ad7b55146103fc5780636fe2f45714610429578063745f94181461045457806387d1c416146104815780638da5cb5b146104ce5780639421aa731461052557806395e3b0cc14610552578063c90aa3fb146105ea578063ca7cbe2314610615578063d0096c6c1461066c578063d1bd50ed146106e7578063ddbbc5ca1461072a578063f15069af146107a1575b600080fd5b34801561014457600080fd5b506101a3600480360381019080803573ffffffffffffffffffffffffffffffffffffffff169060200190929190803573ffffffffffffffffffffffffffffffffffffffff169060200190929190803590602001909291905050506107cc565b005b3480156101b157600080fd5b506101e6600480360381019080803573ffffffffffffffffffffffffffffffffffffffff169060200190929190505050610c05565b6040518082815260200191505060405180910390f35b34801561020857600080fd5b5061023d600480360381019080803573ffffffffffffffffffffffffffffffffffffffff169060200190929190505050610d06565b005b34801561024b57600080fd5b50610280600480360381019080803573ffffffffffffffffffffffffffffffffffffffff169060200190929190505050611178565b005b34801561028e57600080fd5b506102c3600480360381019080803573ffffffffffffffffffffffffffffffffffffffff169060200190929190505050611425565b604051808215151515815260200191505060405180910390f35b3480156102e957600080fd5b506102f2611526565b6040518082815260200191505060405180910390f35b34801561031457600080fd5b5061031d61152c565b6040518082815260200191505060405180910390f35b34801561033f57600080fd5b50610374600480360381019080803573ffffffffffffffffffffffffffffffffffffffff169060200190929190505050611532565b005b34801561038257600080fd5b506103cf600480360381019080803573ffffffffffffffffffffffffffffffffffffffff1690602001909291908035906020019082018035906020019190919293919293905050506117da565b005b3480156103dd57600080fd5b506103e6611dce565b6040518082815260200191505060405180910390f35b34801561040857600080fd5b5061042760048036038101908080359060200190929190505050611dd4565b005b34801561043557600080fd5b5061043e611ec8565b6040518082815260200191505060405180910390f35b34801561046057600080fd5b5061047f60048036038101908080359060200190929190505050611ed2565b005b34801561048d57600080fd5b506104cc600480360381019080803573ffffffffffffffffffffffffffffffffffffffff16906020019092919080359060200190929190505050611fc6565b005b3480156104da57600080fd5b506104e36120a7565b604051808273ffffffffffffffffffffffffffffffffffffffff1673ffffffffffffffffffffffffffffffffffffffff16815260200191505060405180910390f35b34801561053157600080fd5b50610550600480360381019080803590602001909291905050506120cc565b005b34801561055e57600080fd5b50610593600480360381019080803573ffffffffffffffffffffffffffffffffffffffff1690602001909291905050506121c0565b6040518080602001828103825283818151815260200191508051906020019060200280838360005b838110156105d65780820151818401526020810190506105bb565b505050509050019250505060405180910390f35b3480156105f657600080fd5b506105ff612317565b6040518082815260200191505060405180910390f35b34801561062157600080fd5b50610656600480360381019080803573ffffffffffffffffffffffffffffffffffffffff169060200190929190505050612321565b6040518082815260200191505060405180910390f35b34801561067857600080fd5b506106cd600480360381019080803573ffffffffffffffffffffffffffffffffffffffff169060200190929190803573ffffffffffffffffffffffffffffffffffffffff169060200190929190505050612422565b604051808215151515815260200191505060405180910390f35b3480156106f357600080fd5b50610728600480360381019080803573ffffffffffffffffffffffffffffffffffffffff169060200190929190505050612558565b005b34801561073657600080fd5b5061078b600480360381019080803573ffffffffffffffffffffffffffffffffffffffff169060200190929190803573ffffffffffffffffffffffffffffffffffffffff169060200190929190505050612a78565b6040518082815260200191505060405180910390f35b3480156107ad57600080fd5b506107b6612bae565b6040518082815260200191505060405180910390f35b600460009054906101000a900473ffffffffffffffffffffffffffffffffffffffff1673ffffffffffffffffffffffffffffffffffffffff1663d04167758461091584600460009054906101000a900473ffffffffffffffffffffffffffffffffffffffff1673ffffffffffffffffffffffffffffffffffffffff16630b7c7ae1896040518263ffffffff167c0100000000000000000000000000000000000000000000000000000000028152600401808273ffffffffffffffffffffffffffffffffffffffff1673ffffffffffffffffffffffffffffffffffffffff168152602001915050602060405180830381600087803b1580156108cc57600080fd5b505af11580156108e0573d6000803e3d6000fd5b505050506040513d60208110156108f657600080fd5b8101908080519060200190929190505050612bb890919063ffffffff16565b6040518363ffffffff167c0100000000000000000000000000000000000000000000000000000000028152600401808373ffffffffffffffffffffffffffffffffffffffff1673ffffffffffffffffffffffffffffffffffffffff16815260200182815260200192505050600060405180830381600087803b15801561099a57600080fd5b505af11580156109ae573d6000803e3d6000fd5b50505050600460009054906101000a900473ffffffffffffffffffffffffffffffffffffffff1673ffffffffffffffffffffffffffffffffffffffff166340feed888484610b3085600460009054906101000a900473ffffffffffffffffffffffffffffffffffffffff1673ffffffffffffffffffffffffffffffffffffffff1663ddbbc5ca8a8a6040518363ffffffff167c0100000000000000000000000000000000000000000000000000000000028152600401808373ffffffffffffffffffffffffffffffffffffffff1673ffffffffffffffffffffffffffffffffffffffff1681526020018273ffffffffffffffffffffffffffffffffffffffff1673ffffffffffffffffffffffffffffffffffffffff16815260200192505050602060405180830381600087803b158015610ae757600080fd5b505af1158015610afb573d6000803e3d6000fd5b505050506040513d6020811015610b1157600080fd5b8101908080519060200190929190505050612bb890919063ffffffff16565b6040518463ffffffff167c0100000000000000000000000000000000000000000000000000000000028152600401808473ffffffffffffffffffffffffffffffffffffffff1673ffffffffffffffffffffffffffffffffffffffff1681526020018373ffffffffffffffffffffffffffffffffffffffff1673ffffffffffffffffffffffffffffffffffffffff1681526020018281526020019350505050600060405180830381600087803b158015610be857600080fd5b505af1158015610bfc573d6000803e3d6000fd5b50505050505050565b6000600460009054906101000a900473ffffffffffffffffffffffffffffffffffffffff1673ffffffffffffffffffffffffffffffffffffffff16630b7c7ae1836040518263ffffffff167c0100000000000000000000000000000000000000000000000000000000028152600401808273ffffffffffffffffffffffffffffffffffffffff1673ffffffffffffffffffffffffffffffffffffffff168152602001915050602060405180830381600087803b158015610cc457600080fd5b505af1158015610cd8573d6000803e3d6000fd5b505050506040513d6020811015610cee57600080fd5b81019080805190602001909291905050509050919050565b60606000806000600460009054906101000a900473ffffffffffffffffffffffffffffffffffffffff1673ffffffffffffffffffffffffffffffffffffffff166324d7806c336040518263ffffffff167c0100000000000000000000000000000000000000000000000000000000028152600401808273ffffffffffffffffffffffffffffffffffffffff1673ffffffffffffffffffffffffffffffffffffffff168152602001915050602060405180830381600087803b158015610dca57600080fd5b505af1158015610dde573d6000803e3d6000fd5b505050506040513d6020811015610df457600080fd5b81019080805190602001909291905050501515610e9f576040517f08c379a00000000000000000000000000000000000000000000000000000000081526004018080602001828103825260238152602001807f4f6e6c792061646d696e732063616e206578656375746520746869732061637481526020017f696f6e000000000000000000000000000000000000000000000000000000000081525060400191505060405180910390fd5b600460009054906101000a900473ffffffffffffffffffffffffffffffffffffffff1673ffffffffffffffffffffffffffffffffffffffff166395e3b0cc336040518263ffffffff167c0100000000000000000000000000000000000000000000000000000000028152600401808273ffffffffffffffffffffffffffffffffffffffff1673ffffffffffffffffffffffffffffffffffffffff168152602001915050600060405180830381600087803b158015610f5c57600080fd5b505af1158015610f70573d6000803e3d6000fd5b505050506040513d6000823e3d601f19601f820116820180604052506020811015610f9a57600080fd5b810190808051640100000000811115610fb257600080fd5b82810190506020810184811115610fc857600080fd5b8151856020820283011164010000000082111715610fe557600080fd5b5050929190505050935083519250600091505b8282101561117157838281518110151561100e57fe5b9060200190602002015190508073ffffffffffffffffffffffffffffffffffffffff168573ffffffffffffffffffffffffffffffffffffffff16141561116457600460009054906101000a900473ffffffffffffffffffffffffffffffffffffffff1673ffffffffffffffffffffffffffffffffffffffff1663b1b9e1cc3387856040518463ffffffff167c0100000000000000000000000000000000000000000000000000000000028152600401808473ffffffffffffffffffffffffffffffffffffffff1673ffffffffffffffffffffffffffffffffffffffff1681526020018373ffffffffffffffffffffffffffffffffffffffff1673ffffffffffffffffffffffffffffffffffffffff1681526020018281526020019350505050600060405180830381600087803b15801561114757600080fd5b505af115801561115b573d6000803e3d6000fd5b50505050611171565b8180600101925050610ff8565b5050505050565b600460009054906101000a900473ffffffffffffffffffffffffffffffffffffffff1673ffffffffffffffffffffffffffffffffffffffff166324d7806c336040518263ffffffff167c0100000000000000000000000000000000000000000000000000000000028152600401808273ffffffffffffffffffffffffffffffffffffffff1673ffffffffffffffffffffffffffffffffffffffff168152602001915050602060405180830381600087803b15801561123557600080fd5b505af1158015611249573d6000803e3d6000fd5b505050506040513d602081101561125f57600080fd5b8101908080519060200190929190505050151561130a576040517f08c379a00000000000000000000000000000000000000000000000000000000081526004018080602001828103825260238152602001807f4f6e6c792061646d696e732063616e206578656375746520746869732061637481526020017f696f6e000000000000000000000000000000000000000000000000000000000081525060400191505060405180910390fd5b600460009054906101000a900473ffffffffffffffffffffffffffffffffffffffff1673ffffffffffffffffffffffffffffffffffffffff16631785f53c826040518263ffffffff167c0100000000000000000000000000000000000000000000000000000000028152600401808273ffffffffffffffffffffffffffffffffffffffff1673ffffffffffffffffffffffffffffffffffffffff168152602001915050600060405180830381600087803b1580156113c757600080fd5b505af11580156113db573d6000803e3d6000fd5b505050508073ffffffffffffffffffffffffffffffffffffffff167fa3b62bc36326052d97ea62d63c3d60308ed4c3ea8ac079dd8499f1e9c4f80c0f60405160405180910390a250565b6000600460009054906101000a900473ffffffffffffffffffffffffffffffffffffffff1673ffffffffffffffffffffffffffffffffffffffff166324d7806c836040518263ffffffff167c0100000000000000000000000000000000000000000000000000000000028152600401808273ffffffffffffffffffffffffffffffffffffffff1673ffffffffffffffffffffffffffffffffffffffff168152602001915050602060405180830381600087803b1580156114e457600080fd5b505af11580156114f8573d6000803e3d6000fd5b505050506040513d602081101561150e57600080fd5b81019080805190602001909291905050509050919050565b60025481565b60015481565b600460009054906101000a900473ffffffffffffffffffffffffffffffffffffffff1673ffffffffffffffffffffffffffffffffffffffff166324d7806c336040518263ffffffff167c0100000000000000000000000000000000000000000000000000000000028152600401808273ffffffffffffffffffffffffffffffffffffffff1673ffffffffffffffffffffffffffffffffffffffff168152602001915050602060405180830381600087803b1580156115ef57600080fd5b505af1158015611603573d6000803e3d6000fd5b505050506040513d602081101561161957600080fd5b810190808051906020019092919050505015156116c4576040517f08c379a00000000000000000000000000000000000000000000000000000000081526004018080602001828103825260238152602001807f4f6e6c792061646d696e732063616e206578656375746520746869732061637481526020017f696f6e000000000000000000000000000000000000000000000000000000000081525060400191505060405180910390fd5b600460009054906101000a900473ffffffffffffffffffffffffffffffffffffffff1673ffffffffffffffffffffffffffffffffffffffff1663fa81413933836001546040518463ffffffff167c0100000000000000000000000000000000000000000000000000000000028152600401808473ffffffffffffffffffffffffffffffffffffffff1673ffffffffffffffffffffffffffffffffffffffff1681526020018373ffffffffffffffffffffffffffffffffffffffff1673ffffffffffffffffffffffffffffffffffffffff1681526020018281526020019350505050600060405180830381600087803b1580156117bf57600080fd5b505af11580156117d3573d6000803e3d6000fd5b5050505050565b600080600460009054906101000a900473ffffffffffffffffffffffffffffffffffffffff1673ffffffffffffffffffffffffffffffffffffffff166324d7806c336040518263ffffffff167c0100000000000000000000000000000000000000000000000000000000028152600401808273ffffffffffffffffffffffffffffffffffffffff1673ffffffffffffffffffffffffffffffffffffffff168152602001915050602060405180830381600087803b15801561189a57600080fd5b505af11580156118ae573d6000803e3d6000fd5b505050506040513d60208110156118c457600080fd5b8101908080519060200190929190505050151561196f576040517f08c379a00000000000000000000000000000000000000000000000000000000081526004018080602001828103825260238152602001807f4f6e6c792061646d696e732063616e206578656375746520746869732061637481526020017f696f6e000000000000000000000000000000000000000000000000000000000081525060400191505060405180910390fd5b600460009054906101000a900473ffffffffffffffffffffffffffffffffffffffff1673ffffffffffffffffffffffffffffffffffffffff16634d9738758686866040518463ffffffff167c0100000000000000000000000000000000000000000000000000000000028152600401808473ffffffffffffffffffffffffffffffffffffffff1673ffffffffffffffffffffffffffffffffffffffff1681526020018060200182810382528484828181526020019250602002808284378201915050945050505050600060405180830381600087803b158015611a5157600080fd5b505af1158015611a65573d6000803e3d6000fd5b50505050600460009054906101000a900473ffffffffffffffffffffffffffffffffffffffff1673ffffffffffffffffffffffffffffffffffffffff1663d0416775866002546040518363ffffffff167c0100000000000000000000000000000000000000000000000000000000028152600401808373ffffffffffffffffffffffffffffffffffffffff1673ffffffffffffffffffffffffffffffffffffffff16815260200182815260200192505050600060405180830381600087803b158015611b3057600080fd5b505af1158015611b44573d6000803e3d6000fd5b50505050600460009054906101000a900473ffffffffffffffffffffffffffffffffffffffff1673ffffffffffffffffffffffffffffffffffffffff166387d1c416866003546040518363ffffffff167c0100000000000000000000000000000000000000000000000000000000028152600401808373ffffffffffffffffffffffffffffffffffffffff1673ffffffffffffffffffffffffffffffffffffffff16815260200182815260200192505050600060405180830381600087803b158015611c0f57600080fd5b505af1158015611c23573d6000803e3d6000fd5b50505050600091505b83839050821015611d84578383838181101515611c4557fe5b9050602002013573ffffffffffffffffffffffffffffffffffffffff169050600460009054906101000a900473ffffffffffffffffffffffffffffffffffffffff1673ffffffffffffffffffffffffffffffffffffffff1663fa81413986836001546040518463ffffffff167c0100000000000000000000000000000000000000000000000000000000028152600401808473ffffffffffffffffffffffffffffffffffffffff1673ffffffffffffffffffffffffffffffffffffffff1681526020018373ffffffffffffffffffffffffffffffffffffffff1673ffffffffffffffffffffffffffffffffffffffff1681526020018281526020019350505050600060405180830381600087803b158015611d5f57600080fd5b505af1158015611d73573d6000803e3d6000fd5b505050508180600101925050611c2c565b8473ffffffffffffffffffffffffffffffffffffffff167f44d6d25963f097ad14f29f06854a01f575648a1ef82f30e562ccd3889717e33960405160405180910390a25050505050565b60035481565b6000809054906101000a900473ffffffffffffffffffffffffffffffffffffffff1673ffffffffffffffffffffffffffffffffffffffff163373ffffffffffffffffffffffffffffffffffffffff16141515611ebe576040517f08c379a000000000000000000000000000000000000000000000000000000000815260040180806020018281038252602d8152602001807f4f6e6c792074686520726f6f74206163636f756e742063616e2065786563757481526020017f65207468697320616374696f6e0000000000000000000000000000000000000081525060400191505060405180910390fd5b8060018190555050565b6000600254905090565b6000809054906101000a900473ffffffffffffffffffffffffffffffffffffffff1673ffffffffffffffffffffffffffffffffffffffff163373ffffffffffffffffffffffffffffffffffffffff16141515611fbc576040517f08c379a000000000000000000000000000000000000000000000000000000000815260040180806020018281038252602d8152602001807f4f6e6c792074686520726f6f74206163636f756e742063616e2065786563757481526020017f65207468697320616374696f6e0000000000000000000000000000000000000081525060400191505060405180910390fd5b8060028190555050565b600460009054906101000a900473ffffffffffffffffffffffffffffffffffffffff1673ffffffffffffffffffffffffffffffffffffffff166387d1c41683836040518363ffffffff167c0100000000000000000000000000000000000000000000000000000000028152600401808373ffffffffffffffffffffffffffffffffffffffff1673ffffffffffffffffffffffffffffffffffffffff16815260200182815260200192505050600060405180830381600087803b15801561208b57600080fd5b505af115801561209f573d6000803e3d6000fd5b505050505050565b6000809054906101000a900473ffffffffffffffffffffffffffffffffffffffff1681565b6000809054906101000a900473ffffffffffffffffffffffffffffffffffffffff1673ffffffffffffffffffffffffffffffffffffffff163373ffffffffffffffffffffffffffffffffffffffff161415156121b6576040517f08c379a000000000000000000000000000000000000000000000000000000000815260040180806020018281038252602d8152602001807f4f6e6c792074686520726f6f74206163636f756e742063616e2065786563757481526020017f65207468697320616374696f6e0000000000000000000000000000000000000081525060400191505060405180910390fd5b8060038190555050565b6060600460009054906101000a900473ffffffffffffffffffffffffffffffffffffffff1673ffffffffffffffffffffffffffffffffffffffff166395e3b0cc836040518263ffffffff167c0100000000000000000000000000000000000000000000000000000000028152600401808273ffffffffffffffffffffffffffffffffffffffff1673ffffffffffffffffffffffffffffffffffffffff168152602001915050600060405180830381600087803b15801561227f57600080fd5b505af1158015612293573d6000803e3d6000fd5b505050506040513d6000823e3d601f19601f8201168201806040525060208110156122bd57600080fd5b8101908080516401000000008111156122d557600080fd5b828101905060208101848111156122eb57600080fd5b815185602082028301116401000000008211171561230857600080fd5b50509291905050509050919050565b6000600354905090565b6000600460009054906101000a900473ffffffffffffffffffffffffffffffffffffffff1673ffffffffffffffffffffffffffffffffffffffff1663ca7cbe23836040518263ffffffff167c0100000000000000000000000000000000000000000000000000000000028152600401808273ffffffffffffffffffffffffffffffffffffffff1673ffffffffffffffffffffffffffffffffffffffff168152602001915050602060405180830381600087803b1580156123e057600080fd5b505af11580156123f4573d6000803e3d6000fd5b505050506040513d602081101561240a57600080fd5b81019080805190602001909291905050509050919050565b6000600460009054906101000a900473ffffffffffffffffffffffffffffffffffffffff1673ffffffffffffffffffffffffffffffffffffffff1663d0096c6c84846040518363ffffffff167c0100000000000000000000000000000000000000000000000000000000028152600401808373ffffffffffffffffffffffffffffffffffffffff1673ffffffffffffffffffffffffffffffffffffffff1681526020018273ffffffffffffffffffffffffffffffffffffffff1673ffffffffffffffffffffffffffffffffffffffff16815260200192505050602060405180830381600087803b15801561251557600080fd5b505af1158015612529573d6000803e3d6000fd5b505050506040513d602081101561253f57600080fd5b8101908080519060200190929190505050905092915050565b606060008060009054906101000a900473ffffffffffffffffffffffffffffffffffffffff1673ffffffffffffffffffffffffffffffffffffffff163273ffffffffffffffffffffffffffffffffffffffff16141515612620576040517f08c379a000000000000000000000000000000000000000000000000000000000815260040180806020018281038252600d8152602001807f4e6f7420746865206f776e65720000000000000000000000000000000000000081525060200191505060405180910390fd5b600460009054906101000a900473ffffffffffffffffffffffffffffffffffffffff1673ffffffffffffffffffffffffffffffffffffffff1663d0416775846002546040518363ffffffff167c0100000000000000000000000000000000000000000000000000000000028152600401808373ffffffffffffffffffffffffffffffffffffffff1673ffffffffffffffffffffffffffffffffffffffff16815260200182815260200192505050600060405180830381600087803b1580156126e757600080fd5b505af11580156126fb573d6000803e3d6000fd5b50505050600460009054906101000a900473ffffffffffffffffffffffffffffffffffffffff1673ffffffffffffffffffffffffffffffffffffffff166387d1c416846003546040518363ffffffff167c0100000000000000000000000000000000000000000000000000000000028152600401808373ffffffffffffffffffffffffffffffffffffffff1673ffffffffffffffffffffffffffffffffffffffff16815260200182815260200192505050600060405180830381600087803b1580156127c657600080fd5b505af11580156127da573d6000803e3d6000fd5b50505050600460009054906101000a900473ffffffffffffffffffffffffffffffffffffffff1673ffffffffffffffffffffffffffffffffffffffff166395e3b0cc846040518263ffffffff167c0100000000000000000000000000000000000000000000000000000000028152600401808273ffffffffffffffffffffffffffffffffffffffff1673ffffffffffffffffffffffffffffffffffffffff168152602001915050600060405180830381600087803b15801561289b57600080fd5b505af11580156128af573d6000803e3d6000fd5b505050506040513d6000823e3d601f19601f8201168201806040525060208110156128d957600080fd5b8101908080516401000000008111156128f157600080fd5b8281019050602081018481111561290757600080fd5b815185602082028301116401000000008211171561292457600080fd5b50509291905050509150600090505b8151811015612a7357600460009054906101000a900473ffffffffffffffffffffffffffffffffffffffff1673ffffffffffffffffffffffffffffffffffffffff166340feed8884848481518110151561298957fe5b906020019060200201516001546040518463ffffffff167c0100000000000000000000000000000000000000000000000000000000028152600401808473ffffffffffffffffffffffffffffffffffffffff1673ffffffffffffffffffffffffffffffffffffffff1681526020018373ffffffffffffffffffffffffffffffffffffffff1673ffffffffffffffffffffffffffffffffffffffff1681526020018281526020019350505050600060405180830381600087803b158015612a4e57600080fd5b505af1158015612a62573d6000803e3d6000fd5b505050508080600101915050612933565b505050565b6000600460009054906101000a900473ffffffffffffffffffffffffffffffffffffffff1673ffffffffffffffffffffffffffffffffffffffff1663ddbbc5ca84846040518363ffffffff167c0100000000000000000000000000000000000000000000000000000000028152600401808373ffffffffffffffffffffffffffffffffffffffff1673ffffffffffffffffffffffffffffffffffffffff1681526020018273ffffffffffffffffffffffffffffffffffffffff1673ffffffffffffffffffffffffffffffffffffffff16815260200192505050602060405180830381600087803b158015612b6b57600080fd5b505af1158015612b7f573d6000803e3d6000fd5b505050506040513d6020811015612b9557600080fd5b8101908080519060200190929190505050905092915050565b6000600154905090565b6000828211151515612c32576040517f08c379a000000000000000000000000000000000000000000000000000000000815260040180806020018281038252601e8152602001807f4e6f7420656e6f75676820746f6b656e7320666f72207472616e73666572000081525060200191505060405180910390fd5b8183039050929150505600a165627a7a723058206bf168dfb128977b45b8335a4cea1d08ab7f1b86ba1860f4c07c0e52585459d80029",
  "source": "pragma solidity ^0.4.24;\n\nimport \"./Owned.sol\";\nimport \"./Storage/AdminStorage.sol\";\n\n\ncontract Admin is Owned {\n\n\n    event AdminAdded(address indexed user);\n    event AdminRemoved(address indexed user);\n    // event TeamMemberAdded(address indexed admin, address indexed user);\n    // event TeamMemberRemoved(address indexed admin, address indexed user);\n\n    uint256 public adminUserTransferLimit = 15; // How much an admin can transfer to a user per month (from common pool)\n    uint256 public adminTotalTransferLimit = 500; // How much an admin can transfer total to users in a month (from common pool)\n    uint256 public adminTotalBurnLimit = 500;\n\n    modifier onlyAdmin {\n        require(adminStorage.isAdmin(msg.sender), \"Only admins can execute this action\");\n        _;\n    }\n\n    AdminStorage adminStorage;\n\n    constructor (address storageContract) public {\n        adminStorage = AdminStorage(storageContract);\n    }\n\n    /**\n    * Checks if the user is an admin\n    *\n    * @param user The user to check\n    */\n    function isAdmin(address user) external view returns (bool) {\n        return adminStorage.isAdmin(user);\n    }\n\n    /** Adds an admin to a team\n    *\n    * @param user The user to add as an admin\n    * @param addresses The users that the admin can transfer tokens to (team members)\n    */ \n    function addAdmin(address user, address[] addresses) external onlyAdmin {\n        adminStorage.addAdmin(user, addresses); \n        adminStorage.setAdminTransferableBalance(user, adminTotalTransferLimit);\n        adminStorage.setAdminBurnBalance(user, adminTotalBurnLimit);\n        for (uint i = 0; i < addresses.length; i++) {\n            address currentUser = addresses[i];\n            adminStorage.addTeamMember(user, currentUser, adminUserTransferLimit); //add team member\n        }\n        emit AdminAdded(user);\n    }\n\n    /** Removes the user's admin status\n    *\n    * @param user The user to remove\n    */ \n    function removeAdmin(address user) external onlyAdmin {\n        adminStorage.removeAdmin(user);\n        emit AdminRemoved(user);\n    }\n\n    function isTeamMember(address admin, address user) external view returns (bool) {\n        return adminStorage.isTeamMember(admin, user);\n    }\n\n    function addTeamMember(address user) external onlyAdmin {\n        adminStorage.addTeamMember(msg.sender, user, adminUserTransferLimit);\n    }\n\n    function removeTeamMember(address user) external onlyAdmin {\n        address[] memory team = adminStorage.getTeamMembers(msg.sender);\n        uint teamSize = team.length;\n        for (uint i = 0; i < teamSize; i++) { //remove from team\n            address currentUser = team[i];\n            if (user == currentUser) {\n                adminStorage.removeTeamMember(msg.sender, user, i); //pass in index so we know where to delete user in array\n                break;\n            }\n        }\n    }\n\n    function getTeamMembers(address admin) external view returns (address[]) {\n        return adminStorage.getTeamMembers(admin);\n    }\n\n    function getAdminTransferableBalance(address admin) external view returns (uint256) {\n        return adminStorage.getAdminTransferableBalance(admin);\n    }\n\n    function getAdminBurnBalance(address admin) external view returns (uint256) {\n        return adminStorage.getAdminBurnBalance(admin);\n    }\n\n    function getAdminUserAllowance(address admin, address user) external view returns (uint256) {\n        return adminStorage.getAdminUserAllowance(admin, user);\n    }\n\n    function setAdminBurnBalance(address admin, uint256 value) external {\n        adminStorage.setAdminBurnBalance(admin, value);\n    }\n\n    function reduceAdminTransferAllowance(address admin, address user, uint256 value) external {\n        adminStorage.setAdminTransferableBalance(admin, adminStorage.getAdminTransferableBalance(admin).sub(value));\n        adminStorage.setAdminUserAllowance(admin, user, adminStorage.getAdminUserAllowance(admin, user).sub(value));\n    }\n\n    function resetAllowances(address admin) external {\n        require(tx.origin == owner, \"Not the owner\");\n        adminStorage.setAdminTransferableBalance(admin, adminTotalTransferLimit);\n        adminStorage.setAdminBurnBalance(admin, adminTotalBurnLimit);\n        address[] memory team = adminStorage.getTeamMembers(admin);\n        for (uint i = 0; i < team.length; i++) {\n            adminStorage.setAdminUserAllowance(admin, team[i], adminUserTransferLimit);\n        }\n    }\n\n    function setAdminUserTransferLimit(uint256 limit) external onlyOwner {\n        adminUserTransferLimit = limit;\n    }\n\n    function setAdminTotalTransferLimit(uint256 limit) external onlyOwner {\n        adminTotalTransferLimit = limit;\n    }\n\n    function setAdminTotalBurnLimit(uint256 limit) external onlyOwner {\n        adminTotalBurnLimit = limit;\n    }\n\n    function getAdminUserTransferLimit() external view returns (uint256) {\n        return adminUserTransferLimit;\n    }\n\n    function getAdminTotalTransferLimit() external view returns (uint256) {\n        return adminTotalTransferLimit;\n    }\n\n    function getAdminTotalBurnLimit() external view returns (uint256) {\n        return adminTotalBurnLimit;\n    }\n\n}",
  "sourcePath": "/Users/byue/Desktop/truffle/contracts/Admin.sol",
  "compiler": {
    "name": "solc",
    "version": "0.4.24+commit.e67f0147.Emscripten.clang"
  },
  "schemaVersion": "2.0.0",
  "updatedAt": "2018-07-30T20:11:32.305Z"
}