{
  "contractName": "AdminStorage",
  "abi": [
    {
      "constant": true,
      "inputs": [
        {
          "name": "",
          "type": "address"
        }
      ],
      "name": "adminData",
      "outputs": [
        {
          "name": "totalTransferableBalance",
          "type": "uint256"
        }
      ],
      "payable": false,
      "stateMutability": "view",
      "type": "function"
    },
    {
      "constant": true,
      "inputs": [
        {
          "name": "",
          "type": "address"
        }
      ],
      "name": "admins",
      "outputs": [
        {
          "name": "",
          "type": "bool"
        }
      ],
      "payable": false,
      "stateMutability": "view",
      "type": "function"
    },
    {
      "constant": true,
      "inputs": [
        {
          "name": "",
          "type": "address"
        }
      ],
      "name": "accessAllowed",
      "outputs": [
        {
          "name": "",
          "type": "bool"
        }
      ],
      "payable": false,
      "stateMutability": "view",
      "type": "function"
    },
    {
      "inputs": [],
      "payable": false,
      "stateMutability": "nonpayable",
      "type": "constructor"
    },
    {
      "constant": false,
      "inputs": [
        {
          "name": "_address",
          "type": "address"
        }
      ],
      "name": "allowAccess",
      "outputs": [],
      "payable": false,
      "stateMutability": "nonpayable",
      "type": "function"
    },
    {
      "constant": false,
      "inputs": [
        {
          "name": "_address",
          "type": "address"
        }
      ],
      "name": "denyAccess",
      "outputs": [],
      "payable": false,
      "stateMutability": "nonpayable",
      "type": "function"
    },
    {
      "constant": true,
      "inputs": [
        {
          "name": "_user",
          "type": "address"
        }
      ],
      "name": "isAdmin",
      "outputs": [
        {
          "name": "",
          "type": "bool"
        }
      ],
      "payable": false,
      "stateMutability": "view",
      "type": "function"
    },
    {
      "constant": false,
      "inputs": [
        {
          "name": "user",
          "type": "address"
        }
      ],
      "name": "addAdmin",
      "outputs": [],
      "payable": false,
      "stateMutability": "nonpayable",
      "type": "function"
    },
    {
      "constant": false,
      "inputs": [
        {
          "name": "admin",
          "type": "address"
        }
      ],
      "name": "removeAdmin",
      "outputs": [],
      "payable": false,
      "stateMutability": "nonpayable",
      "type": "function"
    },
    {
      "constant": true,
      "inputs": [
        {
          "name": "admin",
          "type": "address"
        }
      ],
      "name": "getAdminTransferableBalance",
      "outputs": [
        {
          "name": "",
          "type": "uint256"
        }
      ],
      "payable": false,
      "stateMutability": "view",
      "type": "function"
    },
    {
      "constant": true,
      "inputs": [
        {
          "name": "admin",
          "type": "address"
        },
        {
          "name": "user",
          "type": "address"
        }
      ],
      "name": "getAdminUserAllowance",
      "outputs": [
        {
          "name": "",
          "type": "uint256"
        }
      ],
      "payable": false,
      "stateMutability": "view",
      "type": "function"
    },
    {
      "constant": false,
      "inputs": [
        {
          "name": "admin",
          "type": "address"
        },
        {
          "name": "value",
          "type": "uint256"
        }
      ],
      "name": "setAdminTransferableBalance",
      "outputs": [],
      "payable": false,
      "stateMutability": "nonpayable",
      "type": "function"
    },
    {
      "constant": false,
      "inputs": [
        {
          "name": "admin",
          "type": "address"
        },
        {
          "name": "user",
          "type": "address"
        },
        {
          "name": "value",
          "type": "uint256"
        }
      ],
      "name": "setAdminUserAllowance",
      "outputs": [],
      "payable": false,
      "stateMutability": "nonpayable",
      "type": "function"
    }
  ],
  "bytecode": "0x608060405234801561001057600080fd5b506001600260003373ffffffffffffffffffffffffffffffffffffffff1673ffffffffffffffffffffffffffffffffffffffff16815260200190815260200160002060006101000a81548160ff02191690831515021790555060016000803373ffffffffffffffffffffffffffffffffffffffff1673ffffffffffffffffffffffffffffffffffffffff16815260200190815260200160002060006101000a81548160ff021916908315150217905550610d91806100cf6000396000f3006080604052600436106100ba576000357c0100000000000000000000000000000000000000000000000000000000900463ffffffff1680630b7c7ae1146100bf5780631785f53c1461011657806321644de01461015957806324d7806c146101b057806340feed881461020b578063429b62e51461027857806361afd5ac146102d357806370480275146103165780637250197614610359578063c4a85bc1146103b4578063d0416775146103f7578063ddbbc5ca14610444575b600080fd5b3480156100cb57600080fd5b50610100600480360381019080803573ffffffffffffffffffffffffffffffffffffffff1690602001909291905050506104bb565b6040518082815260200191505060405180910390f35b34801561012257600080fd5b50610157600480360381019080803573ffffffffffffffffffffffffffffffffffffffff16906020019092919050505061055f565b005b34801561016557600080fd5b5061019a600480360381019080803573ffffffffffffffffffffffffffffffffffffffff16906020019092919050505061071b565b6040518082815260200191505060405180910390f35b3480156101bc57600080fd5b506101f1600480360381019080803573ffffffffffffffffffffffffffffffffffffffff169060200190929190505050610739565b604051808215151515815260200191505060405180910390f35b34801561021757600080fd5b50610276600480360381019080803573ffffffffffffffffffffffffffffffffffffffff169060200190929190803573ffffffffffffffffffffffffffffffffffffffff169060200190929190803590602001909291905050506107e6565b005b34801561028457600080fd5b506102b9600480360381019080803573ffffffffffffffffffffffffffffffffffffffff1690602001909291905050506108c7565b604051808215151515815260200191505060405180910390f35b3480156102df57600080fd5b50610314600480360381019080803573ffffffffffffffffffffffffffffffffffffffff1690602001909291905050506108e7565b005b34801561032257600080fd5b50610357600480360381019080803573ffffffffffffffffffffffffffffffffffffffff16906020019092919050505061099a565b005b34801561036557600080fd5b5061039a600480360381019080803573ffffffffffffffffffffffffffffffffffffffff169060200190929190505050610b0d565b604051808215151515815260200191505060405180910390f35b3480156103c057600080fd5b506103f5600480360381019080803573ffffffffffffffffffffffffffffffffffffffff169060200190929190505050610b2d565b005b34801561040357600080fd5b50610442600480360381019080803573ffffffffffffffffffffffffffffffffffffffff16906020019092919080359060200190929190505050610be0565b005b34801561045057600080fd5b506104a5600480360381019080803573ffffffffffffffffffffffffffffffffffffffff169060200190929190803573ffffffffffffffffffffffffffffffffffffffff169060200190929190505050610c83565b6040518082815260200191505060405180910390f35b6000600260003373ffffffffffffffffffffffffffffffffffffffff1673ffffffffffffffffffffffffffffffffffffffff16815260200190815260200160002060009054906101000a900460ff16151561051557600080fd5b600160008373ffffffffffffffffffffffffffffffffffffffff1673ffffffffffffffffffffffffffffffffffffffff168152602001908152602001600020600001549050919050565b600260003373ffffffffffffffffffffffffffffffffffffffff1673ffffffffffffffffffffffffffffffffffffffff16815260200190815260200160002060009054906101000a900460ff1615156105b757600080fd5b6000808273ffffffffffffffffffffffffffffffffffffffff1673ffffffffffffffffffffffffffffffffffffffff16815260200190815260200160002060009054906101000a900460ff161515610677576040517f08c379a00000000000000000000000000000000000000000000000000000000081526004018080602001828103825260148152602001807f55736572206973206e6f7420616e2061646d696e00000000000000000000000081525060200191505060405180910390fd5b60008060008373ffffffffffffffffffffffffffffffffffffffff1673ffffffffffffffffffffffffffffffffffffffff16815260200190815260200160002060006101000a81548160ff021916908315150217905550600160008273ffffffffffffffffffffffffffffffffffffffff1673ffffffffffffffffffffffffffffffffffffffff168152602001908152602001600020600080820160009055505050565b60016020528060005260406000206000915090508060000154905081565b6000600260003373ffffffffffffffffffffffffffffffffffffffff1673ffffffffffffffffffffffffffffffffffffffff16815260200190815260200160002060009054906101000a900460ff16151561079357600080fd5b6000808373ffffffffffffffffffffffffffffffffffffffff1673ffffffffffffffffffffffffffffffffffffffff16815260200190815260200160002060009054906101000a900460ff169050919050565b600260003373ffffffffffffffffffffffffffffffffffffffff1673ffffffffffffffffffffffffffffffffffffffff16815260200190815260200160002060009054906101000a900460ff16151561083e57600080fd5b80600160008573ffffffffffffffffffffffffffffffffffffffff1673ffffffffffffffffffffffffffffffffffffffff16815260200190815260200160002060010160008473ffffffffffffffffffffffffffffffffffffffff1673ffffffffffffffffffffffffffffffffffffffff16815260200190815260200160002081905550505050565b60006020528060005260406000206000915054906101000a900460ff1681565b600260003373ffffffffffffffffffffffffffffffffffffffff1673ffffffffffffffffffffffffffffffffffffffff16815260200190815260200160002060009054906101000a900460ff16151561093f57600080fd5b6000600260008373ffffffffffffffffffffffffffffffffffffffff1673ffffffffffffffffffffffffffffffffffffffff16815260200190815260200160002060006101000a81548160ff02191690831515021790555050565b600260003373ffffffffffffffffffffffffffffffffffffffff1673ffffffffffffffffffffffffffffffffffffffff16815260200190815260200160002060009054906101000a900460ff1615156109f257600080fd5b6000808273ffffffffffffffffffffffffffffffffffffffff1673ffffffffffffffffffffffffffffffffffffffff16815260200190815260200160002060009054906101000a900460ff16151515610ab3576040517f08c379a00000000000000000000000000000000000000000000000000000000081526004018080602001828103825260188152602001807f5573657220697320616c726561647920616e2061646d696e000000000000000081525060200191505060405180910390fd5b60016000808373ffffffffffffffffffffffffffffffffffffffff1673ffffffffffffffffffffffffffffffffffffffff16815260200190815260200160002060006101000a81548160ff02191690831515021790555050565b60026020528060005260406000206000915054906101000a900460ff1681565b600260003373ffffffffffffffffffffffffffffffffffffffff1673ffffffffffffffffffffffffffffffffffffffff16815260200190815260200160002060009054906101000a900460ff161515610b8557600080fd5b6001600260008373ffffffffffffffffffffffffffffffffffffffff1673ffffffffffffffffffffffffffffffffffffffff16815260200190815260200160002060006101000a81548160ff02191690831515021790555050565b600260003373ffffffffffffffffffffffffffffffffffffffff1673ffffffffffffffffffffffffffffffffffffffff16815260200190815260200160002060009054906101000a900460ff161515610c3857600080fd5b80600160008473ffffffffffffffffffffffffffffffffffffffff1673ffffffffffffffffffffffffffffffffffffffff168152602001908152602001600020600001819055505050565b6000600260003373ffffffffffffffffffffffffffffffffffffffff1673ffffffffffffffffffffffffffffffffffffffff16815260200190815260200160002060009054906101000a900460ff161515610cdd57600080fd5b600160008473ffffffffffffffffffffffffffffffffffffffff1673ffffffffffffffffffffffffffffffffffffffff16815260200190815260200160002060010160008373ffffffffffffffffffffffffffffffffffffffff1673ffffffffffffffffffffffffffffffffffffffff168152602001908152602001600020549050929150505600a165627a7a72305820a32a1eccd3c0c231200b35a4f1524f8357577e33067db370cb8c40776048cfc50029",
  "source": "pragma solidity ^0.4.24;\n\n/**\n * Separate logic code from data to make contracts upgradeable; i.e. can update transaction logic in the future without losing data\n */\n\ncontract AdminStorage {\n\n\n    // Stores an admin's transfer allowances\n    struct AdminData {\n        uint256 totalTransferableBalance; // Total amount admin can transfer to users per month (from common pool)\n        mapping (address => uint256) allowances; // Amount admin can tranfer to individual users each month (from common pool)\n        // address[] teamMembers; \n    }\n\n    mapping (address => bool) public admins; // Stores the admins\n    mapping (address => AdminData) public adminData;  // Maps admins to various metadata\n    mapping (address => bool) public accessAllowed;  // Stores who has access to call functions of this contract (Admin contract only)\n\n    modifier hasAccess() {\n    \trequire(accessAllowed[msg.sender]);\n    \t_;\n    }\n\n    constructor() public {\n    \taccessAllowed[msg.sender] = true;\n    \t// Owner is also an admin\n        admins[msg.sender] = true;\n    }\n\n    function allowAccess(address _address) hasAccess external {\n    \taccessAllowed[_address] = true;\n    }\n\n    function denyAccess(address _address) hasAccess external {\n    \taccessAllowed[_address] = false;\n    }\n\n    function isAdmin(address _user) hasAccess external view returns (bool) {\n    \treturn admins[_user];\n    }\n\n    function addAdmin(address user) hasAccess external {\n    \trequire(!admins[user], \"User is already an admin\");\n        admins[user] = true;\n        // teamMembers = addresses;\n    }\n\n    function removeAdmin(address admin) hasAccess external {\n    \trequire(admins[admin], \"User is not an admin\");\n    \tadmins[admin] = false;\n        delete adminData[admin];\n    }\n\n    function getAdminTransferableBalance(address admin) hasAccess external view returns (uint256) {\n        return adminData[admin].totalTransferableBalance;\n    }\n\n    function getAdminUserAllowance(address admin, address user) hasAccess external view returns (uint256) {\n        return adminData[admin].allowances[user];\n    }\n\n    function setAdminTransferableBalance(address admin, uint256 value) hasAccess external {\n        adminData[admin].totalTransferableBalance = value;\n    }\n\n    function setAdminUserAllowance(address admin, address user, uint256 value) hasAccess external {\n        adminData[admin].allowances[user] = value;\n    }\n\n\n}",
  "sourcePath": "/Users/byue/Desktop/truffle/contracts/storage/AdminStorage.sol",
  "compiler": {
    "name": "solc",
    "version": "0.4.24+commit.e67f0147.Emscripten.clang"
  },
  "schemaVersion": "2.0.0",
  "updatedAt": "2018-07-16T18:14:41.875Z"
}