{
  "contractName": "Admin",
  "abi": [
    {
      "constant": true,
      "inputs": [],
      "name": "adminTotalTransferLimit",
      "outputs": [
        {
          "name": "",
          "type": "uint256"
        }
      ],
      "payable": false,
      "stateMutability": "view",
      "type": "function"
    },
    {
      "constant": true,
      "inputs": [],
      "name": "adminUserTransferLimit",
      "outputs": [
        {
          "name": "",
          "type": "uint256"
        }
      ],
      "payable": false,
      "stateMutability": "view",
      "type": "function"
    },
    {
      "constant": true,
      "inputs": [],
      "name": "owner",
      "outputs": [
        {
          "name": "",
          "type": "address"
        }
      ],
      "payable": false,
      "stateMutability": "view",
      "type": "function"
    },
    {
      "inputs": [
        {
          "name": "storageContract",
          "type": "address"
        }
      ],
      "payable": false,
      "stateMutability": "nonpayable",
      "type": "constructor"
    },
    {
      "anonymous": false,
      "inputs": [
        {
          "indexed": true,
          "name": "user",
          "type": "address"
        }
      ],
      "name": "AdminAdded",
      "type": "event"
    },
    {
      "anonymous": false,
      "inputs": [
        {
          "indexed": true,
          "name": "user",
          "type": "address"
        }
      ],
      "name": "AdminRemoved",
      "type": "event"
    },
    {
      "constant": true,
      "inputs": [
        {
          "name": "user",
          "type": "address"
        }
      ],
      "name": "isAdmin",
      "outputs": [
        {
          "name": "",
          "type": "bool"
        }
      ],
      "payable": false,
      "stateMutability": "view",
      "type": "function"
    },
    {
      "constant": false,
      "inputs": [
        {
          "name": "user",
          "type": "address"
        },
        {
          "name": "addresses",
          "type": "address[]"
        }
      ],
      "name": "addAdmin",
      "outputs": [],
      "payable": false,
      "stateMutability": "nonpayable",
      "type": "function"
    },
    {
      "constant": false,
      "inputs": [
        {
          "name": "user",
          "type": "address"
        }
      ],
      "name": "removeAdmin",
      "outputs": [],
      "payable": false,
      "stateMutability": "nonpayable",
      "type": "function"
    },
    {
      "constant": true,
      "inputs": [
        {
          "name": "admin",
          "type": "address"
        },
        {
          "name": "user",
          "type": "address"
        }
      ],
      "name": "isTeamMember",
      "outputs": [
        {
          "name": "",
          "type": "bool"
        }
      ],
      "payable": false,
      "stateMutability": "view",
      "type": "function"
    },
    {
      "constant": false,
      "inputs": [
        {
          "name": "user",
          "type": "address"
        }
      ],
      "name": "addTeamMember",
      "outputs": [],
      "payable": false,
      "stateMutability": "nonpayable",
      "type": "function"
    },
    {
      "constant": false,
      "inputs": [
        {
          "name": "user",
          "type": "address"
        }
      ],
      "name": "removeTeamMember",
      "outputs": [],
      "payable": false,
      "stateMutability": "nonpayable",
      "type": "function"
    },
    {
      "constant": true,
      "inputs": [
        {
          "name": "admin",
          "type": "address"
        }
      ],
      "name": "getTeamMembers",
      "outputs": [
        {
          "name": "",
          "type": "address[]"
        }
      ],
      "payable": false,
      "stateMutability": "view",
      "type": "function"
    },
    {
      "constant": true,
      "inputs": [
        {
          "name": "admin",
          "type": "address"
        }
      ],
      "name": "getAdminTransferableBalance",
      "outputs": [
        {
          "name": "",
          "type": "uint256"
        }
      ],
      "payable": false,
      "stateMutability": "view",
      "type": "function"
    },
    {
      "constant": true,
      "inputs": [
        {
          "name": "admin",
          "type": "address"
        },
        {
          "name": "user",
          "type": "address"
        }
      ],
      "name": "getAdminUserAllowance",
      "outputs": [
        {
          "name": "",
          "type": "uint256"
        }
      ],
      "payable": false,
      "stateMutability": "view",
      "type": "function"
    },
    {
      "constant": false,
      "inputs": [
        {
          "name": "admin",
          "type": "address"
        },
        {
          "name": "user",
          "type": "address"
        },
        {
          "name": "value",
          "type": "uint256"
        }
      ],
      "name": "reduceAdminTransferAllowance",
      "outputs": [],
      "payable": false,
      "stateMutability": "nonpayable",
      "type": "function"
    },
    {
      "constant": false,
      "inputs": [
        {
          "name": "admin",
          "type": "address"
        }
      ],
      "name": "resetAllowances",
      "outputs": [],
      "payable": false,
      "stateMutability": "nonpayable",
      "type": "function"
    },
    {
      "constant": false,
      "inputs": [
        {
          "name": "limit",
          "type": "uint256"
        }
      ],
      "name": "setAdminUserTransferLimit",
      "outputs": [],
      "payable": false,
      "stateMutability": "nonpayable",
      "type": "function"
    },
    {
      "constant": false,
      "inputs": [
        {
          "name": "limit",
          "type": "uint256"
        }
      ],
      "name": "setAdminTotalTransferLimit",
      "outputs": [],
      "payable": false,
      "stateMutability": "nonpayable",
      "type": "function"
    },
    {
      "constant": true,
      "inputs": [],
      "name": "getAdminUserTransferLimit",
      "outputs": [
        {
          "name": "",
          "type": "uint256"
        }
      ],
      "payable": false,
      "stateMutability": "view",
      "type": "function"
    },
    {
      "constant": true,
      "inputs": [],
      "name": "getAdminTotalTransferLimit",
      "outputs": [
        {
          "name": "",
          "type": "uint256"
        }
      ],
      "payable": false,
      "stateMutability": "view",
      "type": "function"
    }
  ],
  "bytecode": "0x6080604052600f6001556101f460025534801561001b57600080fd5b5060405160208061256283398101806040528101908080519060200190929190505050336000806101000a81548173ffffffffffffffffffffffffffffffffffffffff021916908373ffffffffffffffffffffffffffffffffffffffff16021790555080600360006101000a81548173ffffffffffffffffffffffffffffffffffffffff021916908373ffffffffffffffffffffffffffffffffffffffff16021790555050612493806100cf6000396000f3006080604052600436106100fc576000357c0100000000000000000000000000000000000000000000000000000000900463ffffffff1680630b556314146101015780630b7c7ae11461016e57806314eba026146101c55780631785f53c1461020857806324d7806c1461024b5780632938a381146102a65780633da21c46146102d15780633eb2b5ad146102fc5780634d9738751461033f57806368ad7b551461039a5780636fe2f457146103c7578063745f9418146103f25780638da5cb5b1461041f57806395e3b0cc14610476578063d0096c6c1461050e578063d1bd50ed14610589578063ddbbc5ca146105cc578063f15069af14610643575b600080fd5b34801561010d57600080fd5b5061016c600480360381019080803573ffffffffffffffffffffffffffffffffffffffff169060200190929190803573ffffffffffffffffffffffffffffffffffffffff1690602001909291908035906020019092919050505061066e565b005b34801561017a57600080fd5b506101af600480360381019080803573ffffffffffffffffffffffffffffffffffffffff169060200190929190505050610aa7565b6040518082815260200191505060405180910390f35b3480156101d157600080fd5b50610206600480360381019080803573ffffffffffffffffffffffffffffffffffffffff169060200190929190505050610ba8565b005b34801561021457600080fd5b50610249600480360381019080803573ffffffffffffffffffffffffffffffffffffffff169060200190929190505050610e46565b005b34801561025757600080fd5b5061028c600480360381019080803573ffffffffffffffffffffffffffffffffffffffff1690602001909291905050506110f3565b604051808215151515815260200191505060405180910390f35b3480156102b257600080fd5b506102bb6111f4565b6040518082815260200191505060405180910390f35b3480156102dd57600080fd5b506102e66111fa565b6040518082815260200191505060405180910390f35b34801561030857600080fd5b5061033d600480360381019080803573ffffffffffffffffffffffffffffffffffffffff169060200190929190505050611200565b005b34801561034b57600080fd5b50610398600480360381019080803573ffffffffffffffffffffffffffffffffffffffff1690602001909291908035906020019082018035906020019190919293919293905050506114a8565b005b3480156103a657600080fd5b506103c5600480360381019080803590602001909291905050506119bd565b005b3480156103d357600080fd5b506103dc611ab1565b6040518082815260200191505060405180910390f35b3480156103fe57600080fd5b5061041d60048036038101908080359060200190929190505050611abb565b005b34801561042b57600080fd5b50610434611baf565b604051808273ffffffffffffffffffffffffffffffffffffffff1673ffffffffffffffffffffffffffffffffffffffff16815260200191505060405180910390f35b34801561048257600080fd5b506104b7600480360381019080803573ffffffffffffffffffffffffffffffffffffffff169060200190929190505050611bd4565b6040518080602001828103825283818151815260200191508051906020019060200280838360005b838110156104fa5780820151818401526020810190506104df565b505050509050019250505060405180910390f35b34801561051a57600080fd5b5061056f600480360381019080803573ffffffffffffffffffffffffffffffffffffffff169060200190929190803573ffffffffffffffffffffffffffffffffffffffff169060200190929190505050611d2b565b604051808215151515815260200191505060405180910390f35b34801561059557600080fd5b506105ca600480360381019080803573ffffffffffffffffffffffffffffffffffffffff169060200190929190505050611e61565b005b3480156105d857600080fd5b5061062d600480360381019080803573ffffffffffffffffffffffffffffffffffffffff169060200190929190803573ffffffffffffffffffffffffffffffffffffffff1690602001909291905050506122a2565b6040518082815260200191505060405180910390f35b34801561064f57600080fd5b506106586123d8565b6040518082815260200191505060405180910390f35b600360009054906101000a900473ffffffffffffffffffffffffffffffffffffffff1673ffffffffffffffffffffffffffffffffffffffff1663d0416775846107b784600360009054906101000a900473ffffffffffffffffffffffffffffffffffffffff1673ffffffffffffffffffffffffffffffffffffffff16630b7c7ae1896040518263ffffffff167c0100000000000000000000000000000000000000000000000000000000028152600401808273ffffffffffffffffffffffffffffffffffffffff1673ffffffffffffffffffffffffffffffffffffffff168152602001915050602060405180830381600087803b15801561076e57600080fd5b505af1158015610782573d6000803e3d6000fd5b505050506040513d602081101561079857600080fd5b81019080805190602001909291905050506123e290919063ffffffff16565b6040518363ffffffff167c0100000000000000000000000000000000000000000000000000000000028152600401808373ffffffffffffffffffffffffffffffffffffffff1673ffffffffffffffffffffffffffffffffffffffff16815260200182815260200192505050600060405180830381600087803b15801561083c57600080fd5b505af1158015610850573d6000803e3d6000fd5b50505050600360009054906101000a900473ffffffffffffffffffffffffffffffffffffffff1673ffffffffffffffffffffffffffffffffffffffff166340feed8884846109d285600360009054906101000a900473ffffffffffffffffffffffffffffffffffffffff1673ffffffffffffffffffffffffffffffffffffffff1663ddbbc5ca8a8a6040518363ffffffff167c0100000000000000000000000000000000000000000000000000000000028152600401808373ffffffffffffffffffffffffffffffffffffffff1673ffffffffffffffffffffffffffffffffffffffff1681526020018273ffffffffffffffffffffffffffffffffffffffff1673ffffffffffffffffffffffffffffffffffffffff16815260200192505050602060405180830381600087803b15801561098957600080fd5b505af115801561099d573d6000803e3d6000fd5b505050506040513d60208110156109b357600080fd5b81019080805190602001909291905050506123e290919063ffffffff16565b6040518463ffffffff167c0100000000000000000000000000000000000000000000000000000000028152600401808473ffffffffffffffffffffffffffffffffffffffff1673ffffffffffffffffffffffffffffffffffffffff1681526020018373ffffffffffffffffffffffffffffffffffffffff1673ffffffffffffffffffffffffffffffffffffffff1681526020018281526020019350505050600060405180830381600087803b158015610a8a57600080fd5b505af1158015610a9e573d6000803e3d6000fd5b50505050505050565b6000600360009054906101000a900473ffffffffffffffffffffffffffffffffffffffff1673ffffffffffffffffffffffffffffffffffffffff16630b7c7ae1836040518263ffffffff167c0100000000000000000000000000000000000000000000000000000000028152600401808273ffffffffffffffffffffffffffffffffffffffff1673ffffffffffffffffffffffffffffffffffffffff168152602001915050602060405180830381600087803b158015610b6657600080fd5b505af1158015610b7a573d6000803e3d6000fd5b505050506040513d6020811015610b9057600080fd5b81019080805190602001909291905050509050919050565b600360009054906101000a900473ffffffffffffffffffffffffffffffffffffffff1673ffffffffffffffffffffffffffffffffffffffff166324d7806c336040518263ffffffff167c0100000000000000000000000000000000000000000000000000000000028152600401808273ffffffffffffffffffffffffffffffffffffffff1673ffffffffffffffffffffffffffffffffffffffff168152602001915050602060405180830381600087803b158015610c6557600080fd5b505af1158015610c79573d6000803e3d6000fd5b505050506040513d6020811015610c8f57600080fd5b81019080805190602001909291905050501515610d3a576040517f08c379a00000000000000000000000000000000000000000000000000000000081526004018080602001828103825260238152602001807f4f6e6c792061646d696e732063616e206578656375746520746869732061637481526020017f696f6e000000000000000000000000000000000000000000000000000000000081525060400191505060405180910390fd5b600360009054906101000a900473ffffffffffffffffffffffffffffffffffffffff1673ffffffffffffffffffffffffffffffffffffffff166313e4028e33836040518363ffffffff167c0100000000000000000000000000000000000000000000000000000000028152600401808373ffffffffffffffffffffffffffffffffffffffff1673ffffffffffffffffffffffffffffffffffffffff1681526020018273ffffffffffffffffffffffffffffffffffffffff1673ffffffffffffffffffffffffffffffffffffffff16815260200192505050600060405180830381600087803b158015610e2b57600080fd5b505af1158015610e3f573d6000803e3d6000fd5b5050505050565b600360009054906101000a900473ffffffffffffffffffffffffffffffffffffffff1673ffffffffffffffffffffffffffffffffffffffff166324d7806c336040518263ffffffff167c0100000000000000000000000000000000000000000000000000000000028152600401808273ffffffffffffffffffffffffffffffffffffffff1673ffffffffffffffffffffffffffffffffffffffff168152602001915050602060405180830381600087803b158015610f0357600080fd5b505af1158015610f17573d6000803e3d6000fd5b505050506040513d6020811015610f2d57600080fd5b81019080805190602001909291905050501515610fd8576040517f08c379a00000000000000000000000000000000000000000000000000000000081526004018080602001828103825260238152602001807f4f6e6c792061646d696e732063616e206578656375746520746869732061637481526020017f696f6e000000000000000000000000000000000000000000000000000000000081525060400191505060405180910390fd5b600360009054906101000a900473ffffffffffffffffffffffffffffffffffffffff1673ffffffffffffffffffffffffffffffffffffffff16631785f53c826040518263ffffffff167c0100000000000000000000000000000000000000000000000000000000028152600401808273ffffffffffffffffffffffffffffffffffffffff1673ffffffffffffffffffffffffffffffffffffffff168152602001915050600060405180830381600087803b15801561109557600080fd5b505af11580156110a9573d6000803e3d6000fd5b505050508073ffffffffffffffffffffffffffffffffffffffff167fa3b62bc36326052d97ea62d63c3d60308ed4c3ea8ac079dd8499f1e9c4f80c0f60405160405180910390a250565b6000600360009054906101000a900473ffffffffffffffffffffffffffffffffffffffff1673ffffffffffffffffffffffffffffffffffffffff166324d7806c836040518263ffffffff167c0100000000000000000000000000000000000000000000000000000000028152600401808273ffffffffffffffffffffffffffffffffffffffff1673ffffffffffffffffffffffffffffffffffffffff168152602001915050602060405180830381600087803b1580156111b257600080fd5b505af11580156111c6573d6000803e3d6000fd5b505050506040513d60208110156111dc57600080fd5b81019080805190602001909291905050509050919050565b60025481565b60015481565b600360009054906101000a900473ffffffffffffffffffffffffffffffffffffffff1673ffffffffffffffffffffffffffffffffffffffff166324d7806c336040518263ffffffff167c0100000000000000000000000000000000000000000000000000000000028152600401808273ffffffffffffffffffffffffffffffffffffffff1673ffffffffffffffffffffffffffffffffffffffff168152602001915050602060405180830381600087803b1580156112bd57600080fd5b505af11580156112d1573d6000803e3d6000fd5b505050506040513d60208110156112e757600080fd5b81019080805190602001909291905050501515611392576040517f08c379a00000000000000000000000000000000000000000000000000000000081526004018080602001828103825260238152602001807f4f6e6c792061646d696e732063616e206578656375746520746869732061637481526020017f696f6e000000000000000000000000000000000000000000000000000000000081525060400191505060405180910390fd5b600360009054906101000a900473ffffffffffffffffffffffffffffffffffffffff1673ffffffffffffffffffffffffffffffffffffffff1663fa81413933836001546040518463ffffffff167c0100000000000000000000000000000000000000000000000000000000028152600401808473ffffffffffffffffffffffffffffffffffffffff1673ffffffffffffffffffffffffffffffffffffffff1681526020018373ffffffffffffffffffffffffffffffffffffffff1673ffffffffffffffffffffffffffffffffffffffff1681526020018281526020019350505050600060405180830381600087803b15801561148d57600080fd5b505af11580156114a1573d6000803e3d6000fd5b5050505050565b600080600360009054906101000a900473ffffffffffffffffffffffffffffffffffffffff1673ffffffffffffffffffffffffffffffffffffffff166324d7806c336040518263ffffffff167c0100000000000000000000000000000000000000000000000000000000028152600401808273ffffffffffffffffffffffffffffffffffffffff1673ffffffffffffffffffffffffffffffffffffffff168152602001915050602060405180830381600087803b15801561156857600080fd5b505af115801561157c573d6000803e3d6000fd5b505050506040513d602081101561159257600080fd5b8101908080519060200190929190505050151561163d576040517f08c379a00000000000000000000000000000000000000000000000000000000081526004018080602001828103825260238152602001807f4f6e6c792061646d696e732063616e206578656375746520746869732061637481526020017f696f6e000000000000000000000000000000000000000000000000000000000081525060400191505060405180910390fd5b600360009054906101000a900473ffffffffffffffffffffffffffffffffffffffff1673ffffffffffffffffffffffffffffffffffffffff16634d9738758686866040518463ffffffff167c0100000000000000000000000000000000000000000000000000000000028152600401808473ffffffffffffffffffffffffffffffffffffffff1673ffffffffffffffffffffffffffffffffffffffff1681526020018060200182810382528484828181526020019250602002808284378201915050945050505050600060405180830381600087803b15801561171f57600080fd5b505af1158015611733573d6000803e3d6000fd5b50505050600360009054906101000a900473ffffffffffffffffffffffffffffffffffffffff1673ffffffffffffffffffffffffffffffffffffffff1663d0416775866002546040518363ffffffff167c0100000000000000000000000000000000000000000000000000000000028152600401808373ffffffffffffffffffffffffffffffffffffffff1673ffffffffffffffffffffffffffffffffffffffff16815260200182815260200192505050600060405180830381600087803b1580156117fe57600080fd5b505af1158015611812573d6000803e3d6000fd5b50505050600091505b8383905082101561197357838383818110151561183457fe5b9050602002013573ffffffffffffffffffffffffffffffffffffffff169050600360009054906101000a900473ffffffffffffffffffffffffffffffffffffffff1673ffffffffffffffffffffffffffffffffffffffff1663fa81413986836001546040518463ffffffff167c0100000000000000000000000000000000000000000000000000000000028152600401808473ffffffffffffffffffffffffffffffffffffffff1673ffffffffffffffffffffffffffffffffffffffff1681526020018373ffffffffffffffffffffffffffffffffffffffff1673ffffffffffffffffffffffffffffffffffffffff1681526020018281526020019350505050600060405180830381600087803b15801561194e57600080fd5b505af1158015611962573d6000803e3d6000fd5b50505050818060010192505061181b565b8473ffffffffffffffffffffffffffffffffffffffff167f44d6d25963f097ad14f29f06854a01f575648a1ef82f30e562ccd3889717e33960405160405180910390a25050505050565b6000809054906101000a900473ffffffffffffffffffffffffffffffffffffffff1673ffffffffffffffffffffffffffffffffffffffff163373ffffffffffffffffffffffffffffffffffffffff16141515611aa7576040517f08c379a000000000000000000000000000000000000000000000000000000000815260040180806020018281038252602d8152602001807f4f6e6c792074686520726f6f74206163636f756e742063616e2065786563757481526020017f65207468697320616374696f6e0000000000000000000000000000000000000081525060400191505060405180910390fd5b8060018190555050565b6000600254905090565b6000809054906101000a900473ffffffffffffffffffffffffffffffffffffffff1673ffffffffffffffffffffffffffffffffffffffff163373ffffffffffffffffffffffffffffffffffffffff16141515611ba5576040517f08c379a000000000000000000000000000000000000000000000000000000000815260040180806020018281038252602d8152602001807f4f6e6c792074686520726f6f74206163636f756e742063616e2065786563757481526020017f65207468697320616374696f6e0000000000000000000000000000000000000081525060400191505060405180910390fd5b8060028190555050565b6000809054906101000a900473ffffffffffffffffffffffffffffffffffffffff1681565b6060600360009054906101000a900473ffffffffffffffffffffffffffffffffffffffff1673ffffffffffffffffffffffffffffffffffffffff166395e3b0cc836040518263ffffffff167c0100000000000000000000000000000000000000000000000000000000028152600401808273ffffffffffffffffffffffffffffffffffffffff1673ffffffffffffffffffffffffffffffffffffffff168152602001915050600060405180830381600087803b158015611c9357600080fd5b505af1158015611ca7573d6000803e3d6000fd5b505050506040513d6000823e3d601f19601f820116820180604052506020811015611cd157600080fd5b810190808051640100000000811115611ce957600080fd5b82810190506020810184811115611cff57600080fd5b8151856020820283011164010000000082111715611d1c57600080fd5b50509291905050509050919050565b6000600360009054906101000a900473ffffffffffffffffffffffffffffffffffffffff1673ffffffffffffffffffffffffffffffffffffffff1663d0096c6c84846040518363ffffffff167c0100000000000000000000000000000000000000000000000000000000028152600401808373ffffffffffffffffffffffffffffffffffffffff1673ffffffffffffffffffffffffffffffffffffffff1681526020018273ffffffffffffffffffffffffffffffffffffffff1673ffffffffffffffffffffffffffffffffffffffff16815260200192505050602060405180830381600087803b158015611e1e57600080fd5b505af1158015611e32573d6000803e3d6000fd5b505050506040513d6020811015611e4857600080fd5b8101908080519060200190929190505050905092915050565b606060008060009054906101000a900473ffffffffffffffffffffffffffffffffffffffff1673ffffffffffffffffffffffffffffffffffffffff163273ffffffffffffffffffffffffffffffffffffffff16141515611f29576040517f08c379a000000000000000000000000000000000000000000000000000000000815260040180806020018281038252600d8152602001807f4e6f7420746865206f776e65720000000000000000000000000000000000000081525060200191505060405180910390fd5b600360009054906101000a900473ffffffffffffffffffffffffffffffffffffffff1673ffffffffffffffffffffffffffffffffffffffff1663d0416775846002546040518363ffffffff167c0100000000000000000000000000000000000000000000000000000000028152600401808373ffffffffffffffffffffffffffffffffffffffff1673ffffffffffffffffffffffffffffffffffffffff16815260200182815260200192505050600060405180830381600087803b158015611ff057600080fd5b505af1158015612004573d6000803e3d6000fd5b50505050600360009054906101000a900473ffffffffffffffffffffffffffffffffffffffff1673ffffffffffffffffffffffffffffffffffffffff166395e3b0cc846040518263ffffffff167c0100000000000000000000000000000000000000000000000000000000028152600401808273ffffffffffffffffffffffffffffffffffffffff1673ffffffffffffffffffffffffffffffffffffffff168152602001915050600060405180830381600087803b1580156120c557600080fd5b505af11580156120d9573d6000803e3d6000fd5b505050506040513d6000823e3d601f19601f82011682018060405250602081101561210357600080fd5b81019080805164010000000081111561211b57600080fd5b8281019050602081018481111561213157600080fd5b815185602082028301116401000000008211171561214e57600080fd5b50509291905050509150600090505b815181101561229d57600360009054906101000a900473ffffffffffffffffffffffffffffffffffffffff1673ffffffffffffffffffffffffffffffffffffffff166340feed888484848151811015156121b357fe5b906020019060200201516001546040518463ffffffff167c0100000000000000000000000000000000000000000000000000000000028152600401808473ffffffffffffffffffffffffffffffffffffffff1673ffffffffffffffffffffffffffffffffffffffff1681526020018373ffffffffffffffffffffffffffffffffffffffff1673ffffffffffffffffffffffffffffffffffffffff1681526020018281526020019350505050600060405180830381600087803b15801561227857600080fd5b505af115801561228c573d6000803e3d6000fd5b50505050808060010191505061215d565b505050565b6000600360009054906101000a900473ffffffffffffffffffffffffffffffffffffffff1673ffffffffffffffffffffffffffffffffffffffff1663ddbbc5ca84846040518363ffffffff167c0100000000000000000000000000000000000000000000000000000000028152600401808373ffffffffffffffffffffffffffffffffffffffff1673ffffffffffffffffffffffffffffffffffffffff1681526020018273ffffffffffffffffffffffffffffffffffffffff1673ffffffffffffffffffffffffffffffffffffffff16815260200192505050602060405180830381600087803b15801561239557600080fd5b505af11580156123a9573d6000803e3d6000fd5b505050506040513d60208110156123bf57600080fd5b8101908080519060200190929190505050905092915050565b6000600154905090565b600082821115151561245c576040517f08c379a000000000000000000000000000000000000000000000000000000000815260040180806020018281038252601e8152602001807f4e6f7420656e6f75676820746f6b656e7320666f72207472616e73666572000081525060200191505060405180910390fd5b8183039050929150505600a165627a7a723058207ad37b25da9a4219d096bb5ea026744e1ec43ab548028f496f37d1e7226c15e50029",
  "source": "pragma solidity ^0.4.24;\n\nimport \"./Owned.sol\";\nimport \"./Storage/AdminStorage.sol\";\n\n\ncontract Admin is Owned {\n\n\n    event AdminAdded(address indexed user);\n    event AdminRemoved(address indexed user);\n    // event Hi(address user, uint256 length);\n\n    uint256 public adminUserTransferLimit = 15; // How much an admin can transfer to a user per month (from common pool)\n    uint256 public adminTotalTransferLimit = 500; // How much an admin can transfer total to users in a month (from common pool)\n\n    modifier onlyAdmin {\n        require(adminStorage.isAdmin(msg.sender), \"Only admins can execute this action\");\n        _;\n    }\n\n    AdminStorage adminStorage;\n\n    constructor (address storageContract) public {\n        adminStorage = AdminStorage(storageContract);\n    }\n\n    /**\n    * Checks if the user is an admin\n    *\n    * @param user The user to check\n    */\n    function isAdmin(address user) external view returns (bool) {\n        return adminStorage.isAdmin(user);\n    }\n\n    /** Adds an admin to a team\n    *\n    * @param user The user to add as an admin\n    * @param addresses The users that the admin can transfer tokens to (team members)\n    */ \n    function addAdmin(address user, address[] addresses) external onlyAdmin {\n        // admins[user] = true;\n        // adminData[user].totalTransferableBalance = adminTotalTransferLimit;\n        adminStorage.addAdmin(user, addresses); \n        adminStorage.setAdminTransferableBalance(user, adminTotalTransferLimit);\n        for (uint i = 0; i < addresses.length; i++) {\n            address currentUser = addresses[i];\n            adminStorage.addTeamMember(user, currentUser, adminUserTransferLimit); //add team member\n        }\n        emit AdminAdded(user);\n    }\n\n    /** Removes the user's admin status\n    *\n    * @param user The user to remove\n    */ \n    function removeAdmin(address user) external onlyAdmin {\n        adminStorage.removeAdmin(user);\n        emit AdminRemoved(user);\n    }\n\n    function isTeamMember(address admin, address user) external view returns (bool) {\n        return adminStorage.isTeamMember(admin, user);\n    }\n\n    function addTeamMember(address user) external onlyAdmin {\n        adminStorage.addTeamMember(msg.sender, user, adminUserTransferLimit);\n    }\n\n    function removeTeamMember(address user) external onlyAdmin {\n        adminStorage.removeTeamMember(msg.sender, user);\n    }\n\n    function getTeamMembers(address admin) external view returns (address[]) {\n        return adminStorage.getTeamMembers(admin);\n    }\n\n    function getAdminTransferableBalance(address admin) external view returns (uint256) {\n        return adminStorage.getAdminTransferableBalance(admin);\n    }\n\n    function getAdminUserAllowance(address admin, address user) external view returns (uint256) {\n        return adminStorage.getAdminUserAllowance(admin, user);\n    }\n\n    function reduceAdminTransferAllowance(address admin, address user, uint256 value) external {\n        // adminData[admin].totalTransferableBalance = adminData[admin].totalTransferableBalance.sub(value);\n        // adminData[admin].allowances[user] = adminData[admin].allowances[user].sub(value);\n        adminStorage.setAdminTransferableBalance(admin, adminStorage.getAdminTransferableBalance(admin).sub(value));\n        adminStorage.setAdminUserAllowance(admin, user, adminStorage.getAdminUserAllowance(admin, user).sub(value));\n    }\n\n    function resetAllowances(address admin) external {\n        require(tx.origin == owner, \"Not the owner\");\n        // adminData[admin].totalTransferableBalance = adminTotalTransferLimit;\n        adminStorage.setAdminTransferableBalance(admin, adminTotalTransferLimit);\n        // adminData[admin].allowances[user] = adminUserTransferLimit; iterate through team members\n        address[] memory team = adminStorage.getTeamMembers(admin);\n        for (uint i = 0; i < team.length; i++) {\n            adminStorage.setAdminUserAllowance(admin, team[i], adminUserTransferLimit);\n        }\n    }\n\n    function setAdminUserTransferLimit(uint256 limit) external onlyOwner {\n        adminUserTransferLimit = limit;\n    }\n\n    function setAdminTotalTransferLimit(uint256 limit) external onlyOwner {\n        adminTotalTransferLimit = limit;\n    }\n\n    function getAdminUserTransferLimit() external view returns (uint256) {\n        return adminUserTransferLimit;\n    }\n\n    function getAdminTotalTransferLimit() external view returns (uint256) {\n        return adminTotalTransferLimit;\n    }\n\n}",
  "sourcePath": "/Users/byue/Desktop/truffle/contracts/Admin.sol",
  "compiler": {
    "name": "solc",
    "version": "0.4.24+commit.e67f0147.Emscripten.clang"
  },
  "schemaVersion": "2.0.0",
  "updatedAt": "2018-07-17T23:51:35.661Z"
}