{
  "contractName": "OhanaCoin",
  "abi": [
    {
      "constant": true,
      "inputs": [],
      "name": "monthlyAllowance",
      "outputs": [
        {
          "name": "",
          "type": "uint8"
        }
      ],
      "payable": false,
      "stateMutability": "view",
      "type": "function"
    },
    {
      "constant": true,
      "inputs": [],
      "name": "name",
      "outputs": [
        {
          "name": "",
          "type": "string"
        }
      ],
      "payable": false,
      "stateMutability": "view",
      "type": "function"
    },
    {
      "constant": true,
      "inputs": [],
      "name": "userTransferAmountLimit",
      "outputs": [
        {
          "name": "",
          "type": "uint256"
        }
      ],
      "payable": false,
      "stateMutability": "view",
      "type": "function"
    },
    {
      "constant": true,
      "inputs": [],
      "name": "owner",
      "outputs": [
        {
          "name": "",
          "type": "address"
        }
      ],
      "payable": false,
      "stateMutability": "view",
      "type": "function"
    },
    {
      "constant": true,
      "inputs": [],
      "name": "symbol",
      "outputs": [
        {
          "name": "",
          "type": "string"
        }
      ],
      "payable": false,
      "stateMutability": "view",
      "type": "function"
    },
    {
      "inputs": [
        {
          "name": "adminContract",
          "type": "address"
        },
        {
          "name": "storageContract",
          "type": "address"
        }
      ],
      "payable": true,
      "stateMutability": "payable",
      "type": "constructor"
    },
    {
      "payable": true,
      "stateMutability": "payable",
      "type": "fallback"
    },
    {
      "anonymous": false,
      "inputs": [
        {
          "indexed": true,
          "name": "from",
          "type": "address"
        },
        {
          "indexed": true,
          "name": "to",
          "type": "address"
        },
        {
          "indexed": false,
          "name": "value",
          "type": "uint256"
        },
        {
          "indexed": false,
          "name": "message",
          "type": "string"
        }
      ],
      "name": "Transfer",
      "type": "event"
    },
    {
      "anonymous": false,
      "inputs": [
        {
          "indexed": true,
          "name": "from",
          "type": "address"
        },
        {
          "indexed": false,
          "name": "value",
          "type": "uint256"
        },
        {
          "indexed": false,
          "name": "balanceType",
          "type": "string"
        },
        {
          "indexed": false,
          "name": "burnType",
          "type": "string"
        }
      ],
      "name": "Burn",
      "type": "event"
    },
    {
      "anonymous": false,
      "inputs": [
        {
          "indexed": true,
          "name": "to",
          "type": "address"
        }
      ],
      "name": "Reset",
      "type": "event"
    },
    {
      "anonymous": false,
      "inputs": [
        {
          "indexed": false,
          "name": "message",
          "type": "string"
        }
      ],
      "name": "Error",
      "type": "event"
    },
    {
      "constant": false,
      "inputs": [
        {
          "name": "_to",
          "type": "address"
        },
        {
          "name": "_value",
          "type": "uint256"
        },
        {
          "name": "fromBalance",
          "type": "string"
        },
        {
          "name": "_message",
          "type": "string"
        }
      ],
      "name": "transfer",
      "outputs": [],
      "payable": false,
      "stateMutability": "nonpayable",
      "type": "function"
    },
    {
      "constant": false,
      "inputs": [
        {
          "name": "_to",
          "type": "address"
        },
        {
          "name": "_value",
          "type": "uint256"
        },
        {
          "name": "_message",
          "type": "string"
        }
      ],
      "name": "transferFrom",
      "outputs": [
        {
          "name": "",
          "type": "bool"
        }
      ],
      "payable": false,
      "stateMutability": "nonpayable",
      "type": "function"
    },
    {
      "constant": false,
      "inputs": [
        {
          "name": "_from",
          "type": "address"
        },
        {
          "name": "_value",
          "type": "uint256"
        }
      ],
      "name": "adminBurnFrom",
      "outputs": [
        {
          "name": "",
          "type": "bool"
        }
      ],
      "payable": false,
      "stateMutability": "nonpayable",
      "type": "function"
    },
    {
      "constant": false,
      "inputs": [
        {
          "name": "_from",
          "type": "address"
        },
        {
          "name": "_value",
          "type": "uint256"
        },
        {
          "name": "balanceType",
          "type": "string"
        }
      ],
      "name": "ownerBurnFrom",
      "outputs": [
        {
          "name": "",
          "type": "bool"
        }
      ],
      "payable": false,
      "stateMutability": "nonpayable",
      "type": "function"
    },
    {
      "constant": false,
      "inputs": [
        {
          "name": "_to",
          "type": "address"
        }
      ],
      "name": "resetBalances",
      "outputs": [],
      "payable": false,
      "stateMutability": "nonpayable",
      "type": "function"
    },
    {
      "constant": false,
      "inputs": [
        {
          "name": "_to",
          "type": "address"
        }
      ],
      "name": "depositAllowance",
      "outputs": [],
      "payable": false,
      "stateMutability": "nonpayable",
      "type": "function"
    },
    {
      "constant": false,
      "inputs": [
        {
          "name": "mintAmount",
          "type": "uint256"
        }
      ],
      "name": "mintTokens",
      "outputs": [],
      "payable": false,
      "stateMutability": "nonpayable",
      "type": "function"
    },
    {
      "constant": false,
      "inputs": [
        {
          "name": "limit",
          "type": "uint256"
        }
      ],
      "name": "setUserTransferAmountLimit",
      "outputs": [],
      "payable": false,
      "stateMutability": "nonpayable",
      "type": "function"
    },
    {
      "constant": false,
      "inputs": [
        {
          "name": "value",
          "type": "uint8"
        }
      ],
      "name": "setMonthlyAllowance",
      "outputs": [],
      "payable": false,
      "stateMutability": "nonpayable",
      "type": "function"
    },
    {
      "constant": true,
      "inputs": [
        {
          "name": "user",
          "type": "address"
        }
      ],
      "name": "getTransferableBalance",
      "outputs": [
        {
          "name": "",
          "type": "uint256"
        }
      ],
      "payable": false,
      "stateMutability": "view",
      "type": "function"
    },
    {
      "constant": true,
      "inputs": [
        {
          "name": "user",
          "type": "address"
        }
      ],
      "name": "getPersonalBalance",
      "outputs": [
        {
          "name": "",
          "type": "uint256"
        }
      ],
      "payable": false,
      "stateMutability": "view",
      "type": "function"
    },
    {
      "constant": true,
      "inputs": [
        {
          "name": "user",
          "type": "address"
        }
      ],
      "name": "getNumTransferredUsers",
      "outputs": [
        {
          "name": "",
          "type": "uint256"
        }
      ],
      "payable": false,
      "stateMutability": "view",
      "type": "function"
    },
    {
      "constant": true,
      "inputs": [
        {
          "name": "user",
          "type": "address"
        }
      ],
      "name": "getTransferredUsers",
      "outputs": [
        {
          "name": "",
          "type": "address[]"
        }
      ],
      "payable": false,
      "stateMutability": "view",
      "type": "function"
    },
    {
      "constant": true,
      "inputs": [
        {
          "name": "from",
          "type": "address"
        },
        {
          "name": "to",
          "type": "address"
        }
      ],
      "name": "getUserTransferredAmount",
      "outputs": [
        {
          "name": "",
          "type": "uint256"
        }
      ],
      "payable": false,
      "stateMutability": "view",
      "type": "function"
    },
    {
      "constant": true,
      "inputs": [],
      "name": "getTotalSupply",
      "outputs": [
        {
          "name": "",
          "type": "uint256"
        }
      ],
      "payable": false,
      "stateMutability": "view",
      "type": "function"
    },
    {
      "constant": true,
      "inputs": [
        {
          "name": "user",
          "type": "address"
        }
      ],
      "name": "getPastBalances",
      "outputs": [
        {
          "name": "",
          "type": "uint256[]"
        },
        {
          "name": "",
          "type": "uint256"
        }
      ],
      "payable": false,
      "stateMutability": "view",
      "type": "function"
    },
    {
      "constant": false,
      "inputs": [
        {
          "name": "user",
          "type": "address"
        }
      ],
      "name": "storeBalance",
      "outputs": [],
      "payable": false,
      "stateMutability": "nonpayable",
      "type": "function"
    }
  ],
  "bytecode": "0x60806040526040805190810160405280600981526020017f4f68616e61436f696e00000000000000000000000000000000000000000000008152506001908051906020019062000051929190620001f8565b506040805190810160405280600381526020017f4f484e0000000000000000000000000000000000000000000000000000000000815250600290805190602001906200009f929190620001f8565b50600f600355601e600460006101000a81548160ff021916908360ff1602179055506040516040806200598c8339810180604052810190808051906020019092919080519060200190929190505050336000806101000a81548173ffffffffffffffffffffffffffffffffffffffff021916908373ffffffffffffffffffffffffffffffffffffffff16021790555081600460016101000a81548173ffffffffffffffffffffffffffffffffffffffff021916908373ffffffffffffffffffffffffffffffffffffffff16021790555080600560006101000a81548173ffffffffffffffffffffffffffffffffffffffff021916908373ffffffffffffffffffffffffffffffffffffffff160217905550336000806101000a81548173ffffffffffffffffffffffffffffffffffffffff021916908373ffffffffffffffffffffffffffffffffffffffff1602179055505050620002a7565b828054600181600116156101000203166002900490600052602060002090601f016020900481019282601f106200023b57805160ff19168380011785556200026c565b828001600101855582156200026c579182015b828111156200026b5782518255916020019190600101906200024e565b5b5090506200027b91906200027f565b5090565b620002a491905b80821115620002a057600081600090555060010162000286565b5090565b90565b6156d580620002b76000396000f300608060405260043610610128576000357c0100000000000000000000000000000000000000000000000000000000900463ffffffff1680630467456d1461012d57806306fdde031461015e5780631bdbee0a146101ee578063221be633146102315780633957e7a5146102d05780633bc91dd21461033557806343f8aa561461038c5780634c0bcfe5146103b9578063572a9a641461041057806381b34796146104bb57806382045af5146105125780638da5cb5b1461053d578063909aad2c1461059457806395d89b41146105c457806397304ced14610654578063be6e7dee14610681578063c3b82f2b146106f8578063c4e41b221461073b578063d0b9061614610766578063d6fcb04b146107a9578063e9c0281514610826578063ea447a32146108a3575b600080fd5b34801561013957600080fd5b5061014261093b565b604051808260ff1660ff16815260200191505060405180910390f35b34801561016a57600080fd5b5061017361094e565b6040518080602001828103825283818151815260200191508051906020019080838360005b838110156101b3578082015181840152602081019050610198565b50505050905090810190601f1680156101e05780820380516001836020036101000a031916815260200191505b509250505060405180910390f35b3480156101fa57600080fd5b5061022f600480360381019080803573ffffffffffffffffffffffffffffffffffffffff1690602001909291905050506109ec565b005b34801561023d57600080fd5b50610272600480360381019080803573ffffffffffffffffffffffffffffffffffffffff169060200190929190505050610da1565b6040518080602001838152602001828103825284818151815260200191508051906020019060200280838360005b838110156102bb5780820151818401526020810190506102a0565b50505050905001935050505060405180910390f35b3480156102dc57600080fd5b5061031b600480360381019080803573ffffffffffffffffffffffffffffffffffffffff16906020019092919080359060200190929190505050610f09565b604051808215151515815260200191505060405180910390f35b34801561034157600080fd5b50610376600480360381019080803573ffffffffffffffffffffffffffffffffffffffff16906020019092919050505061181d565b6040518082815260200191505060405180910390f35b34801561039857600080fd5b506103b760048036038101908080359060200190929190505050611975565b005b3480156103c557600080fd5b506103fa600480360381019080803573ffffffffffffffffffffffffffffffffffffffff169060200190929190505050611a69565b6040518082815260200191505060405180910390f35b34801561041c57600080fd5b506104a1600480360381019080803573ffffffffffffffffffffffffffffffffffffffff16906020019092919080359060200190929190803590602001908201803590602001908080601f0160208091040260200160405190810160405280939291908181526020018383808284378201915050505050509192919290505050611b6a565b604051808215151515815260200191505060405180910390f35b3480156104c757600080fd5b506104fc600480360381019080803573ffffffffffffffffffffffffffffffffffffffff16906020019092919050505061253e565b6040518082815260200191505060405180910390f35b34801561051e57600080fd5b5061052761263f565b6040518082815260200191505060405180910390f35b34801561054957600080fd5b50610552612645565b604051808273ffffffffffffffffffffffffffffffffffffffff1673ffffffffffffffffffffffffffffffffffffffff16815260200191505060405180910390f35b3480156105a057600080fd5b506105c2600480360381019080803560ff16906020019092919050505061266a565b005b3480156105d057600080fd5b506105d9612772565b6040518080602001828103825283818151815260200191508051906020019080838360005b838110156106195780820151818401526020810190506105fe565b50505050905090810190601f1680156106465780820380516001836020036101000a031916815260200191505b509250505060405180910390f35b34801561066057600080fd5b5061067f60048036038101908080359060200190929190505050612810565b005b34801561068d57600080fd5b506106e2600480360381019080803573ffffffffffffffffffffffffffffffffffffffff169060200190929190803573ffffffffffffffffffffffffffffffffffffffff169060200190929190505050612d25565b6040518082815260200191505060405180910390f35b34801561070457600080fd5b50610739600480360381019080803573ffffffffffffffffffffffffffffffffffffffff169060200190929190505050612e5b565b005b34801561074757600080fd5b5061075061354a565b6040518082815260200191505060405180910390f35b34801561077257600080fd5b506107a7600480360381019080803573ffffffffffffffffffffffffffffffffffffffff169060200190929190505050613612565b005b3480156107b557600080fd5b5061080c600480360381019080803573ffffffffffffffffffffffffffffffffffffffff169060200190929190803590602001909291908035906020019082018035906020019190919293919293905050506137d4565b604051808215151515815260200191505060405180910390f35b34801561083257600080fd5b506108a1600480360381019080803573ffffffffffffffffffffffffffffffffffffffff16906020019092919080359060200190929190803590602001908201803590602001919091929391929390803590602001908201803590602001919091929391929390505050613e42565b005b3480156108af57600080fd5b506108e4600480360381019080803573ffffffffffffffffffffffffffffffffffffffff16906020019092919050505061413b565b6040518080602001828103825283818151815260200191508051906020019060200280838360005b8381101561092757808201518184015260208101905061090c565b505050509050019250505060405180910390f35b600460009054906101000a900460ff1681565b60018054600181600116156101000203166002900480601f0160208091040260200160405190810160405280929190818152602001828054600181600116156101000203166002900480156109e45780601f106109b9576101008083540402835291602001916109e4565b820191906000526020600020905b8154815290600101906020018083116109c757829003601f168201915b505050505081565b6000806000809054906101000a900473ffffffffffffffffffffffffffffffffffffffff1673ffffffffffffffffffffffffffffffffffffffff163373ffffffffffffffffffffffffffffffffffffffff16141515610ad9576040517f08c379a000000000000000000000000000000000000000000000000000000000815260040180806020018281038252602d8152602001807f4f6e6c792074686520726f6f74206163636f756e742063616e2065786563757481526020017f65207468697320616374696f6e0000000000000000000000000000000000000081525060400191505060405180910390fd5b610ae283611a69565b9150610aed8361253e565b9050610b2f83836040805190810160405280600c81526020017f5472616e7366657261626c650000000000000000000000000000000000000000815250611b6a565b50610b7083826040805190810160405280600881526020017f506572736f6e616c000000000000000000000000000000000000000000000000815250611b6a565b50610b7d620f4240612810565b610b8683612e5b565b600460019054906101000a900473ffffffffffffffffffffffffffffffffffffffff1673ffffffffffffffffffffffffffffffffffffffff166324d7806c846040518263ffffffff167c0100000000000000000000000000000000000000000000000000000000028152600401808273ffffffffffffffffffffffffffffffffffffffff1673ffffffffffffffffffffffffffffffffffffffff168152602001915050602060405180830381600087803b158015610c4357600080fd5b505af1158015610c57573d6000803e3d6000fd5b505050506040513d6020811015610c6d57600080fd5b810190808051906020019092919050505015610d5957600460019054906101000a900473ffffffffffffffffffffffffffffffffffffffff1673ffffffffffffffffffffffffffffffffffffffff1663d1bd50ed846040518263ffffffff167c0100000000000000000000000000000000000000000000000000000000028152600401808273ffffffffffffffffffffffffffffffffffffffff1673ffffffffffffffffffffffffffffffffffffffff168152602001915050600060405180830381600087803b158015610d4057600080fd5b505af1158015610d54573d6000803e3d6000fd5b505050505b8273ffffffffffffffffffffffffffffffffffffffff167f162f46783fcc741c289a7af5bd16474ace09d7e8a9d5fe1ac0d37b12afc0ccac60405160405180910390a2505050565b60606000600560009054906101000a900473ffffffffffffffffffffffffffffffffffffffff1673ffffffffffffffffffffffffffffffffffffffff1663221be633846040518263ffffffff167c0100000000000000000000000000000000000000000000000000000000028152600401808273ffffffffffffffffffffffffffffffffffffffff1673ffffffffffffffffffffffffffffffffffffffff168152602001915050600060405180830381600087803b158015610e6257600080fd5b505af1158015610e76573d6000803e3d6000fd5b505050506040513d6000823e3d601f19601f820116820180604052506040811015610ea057600080fd5b810190808051640100000000811115610eb857600080fd5b82810190506020810184811115610ece57600080fd5b8151856020820283011164010000000082111715610eeb57600080fd5b50509291906020018051906020019092919050505091509150915091565b6000600460019054906101000a900473ffffffffffffffffffffffffffffffffffffffff1673ffffffffffffffffffffffffffffffffffffffff166324d7806c336040518263ffffffff167c0100000000000000000000000000000000000000000000000000000000028152600401808273ffffffffffffffffffffffffffffffffffffffff1673ffffffffffffffffffffffffffffffffffffffff168152602001915050602060405180830381600087803b158015610fc857600080fd5b505af1158015610fdc573d6000803e3d6000fd5b505050506040513d6020811015610ff257600080fd5b8101908080519060200190929190505050151561109d576040517f08c379a00000000000000000000000000000000000000000000000000000000081526004018080602001828103825260238152602001807f4f6e6c792061646d696e732063616e206578656375746520746869732061637481526020017f696f6e000000000000000000000000000000000000000000000000000000000081525060400191505060405180910390fd5b600460019054906101000a900473ffffffffffffffffffffffffffffffffffffffff1673ffffffffffffffffffffffffffffffffffffffff1663ca7cbe23336040518263ffffffff167c0100000000000000000000000000000000000000000000000000000000028152600401808273ffffffffffffffffffffffffffffffffffffffff1673ffffffffffffffffffffffffffffffffffffffff168152602001915050602060405180830381600087803b15801561115a57600080fd5b505af115801561116e573d6000803e3d6000fd5b505050506040513d602081101561118457600080fd5b8101908080519060200190929190505050821115151561120c576040517f08c379a000000000000000000000000000000000000000000000000000000000815260040180806020018281038252601e8152602001807f547279696e6720746f206275726e206d6f7265206f766572206c696d6974000081525060200191505060405180910390fd5b600460019054906101000a900473ffffffffffffffffffffffffffffffffffffffff1673ffffffffffffffffffffffffffffffffffffffff166387d1c4163361135585600460019054906101000a900473ffffffffffffffffffffffffffffffffffffffff1673ffffffffffffffffffffffffffffffffffffffff1663ca7cbe23336040518263ffffffff167c0100000000000000000000000000000000000000000000000000000000028152600401808273ffffffffffffffffffffffffffffffffffffffff1673ffffffffffffffffffffffffffffffffffffffff168152602001915050602060405180830381600087803b15801561130c57600080fd5b505af1158015611320573d6000803e3d6000fd5b505050506040513d602081101561133657600080fd5b810190808051906020019092919050505061429290919063ffffffff16565b6040518363ffffffff167c0100000000000000000000000000000000000000000000000000000000028152600401808373ffffffffffffffffffffffffffffffffffffffff1673ffffffffffffffffffffffffffffffffffffffff16815260200182815260200192505050600060405180830381600087803b1580156113da57600080fd5b505af11580156113ee573d6000803e3d6000fd5b50505050600560009054906101000a900473ffffffffffffffffffffffffffffffffffffffff1673ffffffffffffffffffffffffffffffffffffffff1663a270c6908461153b85600560009054906101000a900473ffffffffffffffffffffffffffffffffffffffff1673ffffffffffffffffffffffffffffffffffffffff166381b34796896040518263ffffffff167c0100000000000000000000000000000000000000000000000000000000028152600401808273ffffffffffffffffffffffffffffffffffffffff1673ffffffffffffffffffffffffffffffffffffffff168152602001915050602060405180830381600087803b1580156114f257600080fd5b505af1158015611506573d6000803e3d6000fd5b505050506040513d602081101561151c57600080fd5b81019080805190602001909291905050506142ae90919063ffffffff16565b6040518363ffffffff167c0100000000000000000000000000000000000000000000000000000000028152600401808373ffffffffffffffffffffffffffffffffffffffff1673ffffffffffffffffffffffffffffffffffffffff16815260200182815260200192505050600060405180830381600087803b1580156115c057600080fd5b505af11580156115d4573d6000803e3d6000fd5b50505050600560009054906101000a900473ffffffffffffffffffffffffffffffffffffffff1673ffffffffffffffffffffffffffffffffffffffff1663f7ea7a3d6116e984600560009054906101000a900473ffffffffffffffffffffffffffffffffffffffff1673ffffffffffffffffffffffffffffffffffffffff166318160ddd6040518163ffffffff167c0100000000000000000000000000000000000000000000000000000000028152600401602060405180830381600087803b1580156116a057600080fd5b505af11580156116b4573d6000803e3d6000fd5b505050506040513d60208110156116ca57600080fd5b81019080805190602001909291905050506142ae90919063ffffffff16565b6040518263ffffffff167c010000000000000000000000000000000000000000000000000000000002815260040180828152602001915050600060405180830381600087803b15801561173b57600080fd5b505af115801561174f573d6000803e3d6000fd5b505050508273ffffffffffffffffffffffffffffffffffffffff167fc7fd3ef7ee498ebe6a01e4301f143a9fce50ad9557c045056f8455f1388d301383604051808281526020018060200180602001838103835260088152602001807f506572736f6e616c000000000000000000000000000000000000000000000000815250602001838103825260058152602001807f41646d696e000000000000000000000000000000000000000000000000000000815250602001935050505060405180910390a26001905092915050565b6000600560009054906101000a900473ffffffffffffffffffffffffffffffffffffffff1673ffffffffffffffffffffffffffffffffffffffff1663ea447a32836040518263ffffffff167c0100000000000000000000000000000000000000000000000000000000028152600401808273ffffffffffffffffffffffffffffffffffffffff1673ffffffffffffffffffffffffffffffffffffffff168152602001915050600060405180830381600087803b1580156118dc57600080fd5b505af11580156118f0573d6000803e3d6000fd5b505050506040513d6000823e3d601f19601f82011682018060405250602081101561191a57600080fd5b81019080805164010000000081111561193257600080fd5b8281019050602081018481111561194857600080fd5b815185602082028301116401000000008211171561196557600080fd5b5050929190505050519050919050565b6000809054906101000a900473ffffffffffffffffffffffffffffffffffffffff1673ffffffffffffffffffffffffffffffffffffffff163373ffffffffffffffffffffffffffffffffffffffff16141515611a5f576040517f08c379a000000000000000000000000000000000000000000000000000000000815260040180806020018281038252602d8152602001807f4f6e6c792074686520726f6f74206163636f756e742063616e2065786563757481526020017f65207468697320616374696f6e0000000000000000000000000000000000000081525060400191505060405180910390fd5b8060038190555050565b6000600560009054906101000a900473ffffffffffffffffffffffffffffffffffffffff1673ffffffffffffffffffffffffffffffffffffffff16634c0bcfe5836040518263ffffffff167c0100000000000000000000000000000000000000000000000000000000028152600401808273ffffffffffffffffffffffffffffffffffffffff1673ffffffffffffffffffffffffffffffffffffffff168152602001915050602060405180830381600087803b158015611b2857600080fd5b505af1158015611b3c573d6000803e3d6000fd5b505050506040513d6020811015611b5257600080fd5b81019080805190602001909291905050509050919050565b60008060009054906101000a900473ffffffffffffffffffffffffffffffffffffffff1673ffffffffffffffffffffffffffffffffffffffff163373ffffffffffffffffffffffffffffffffffffffff16141515611c56576040517f08c379a000000000000000000000000000000000000000000000000000000000815260040180806020018281038252602d8152602001807f4f6e6c792074686520726f6f74206163636f756e742063616e2065786563757481526020017f65207468697320616374696f6e0000000000000000000000000000000000000081525060400191505060405180910390fd5b73__Utilities_____________________________63bed34bba836040518263ffffffff167c0100000000000000000000000000000000000000000000000000000000028152600401808060200180602001838103835284818151815260200191508051906020019080838360005b83811015611ce0578082015181840152602081019050611cc5565b50505050905090810190601f168015611d0d5780820380516001836020036101000a031916815260200191505b508381038252600c8152602001807f5472616e7366657261626c650000000000000000000000000000000000000000815250602001935050505060206040518083038186803b158015611d5f57600080fd5b505af4158015611d73573d6000803e3d6000fd5b505050506040513d6020811015611d8957600080fd5b810190808051906020019092919050505015611f8a57600560009054906101000a900473ffffffffffffffffffffffffffffffffffffffff1673ffffffffffffffffffffffffffffffffffffffff1663957a494785611ee886600560009054906101000a900473ffffffffffffffffffffffffffffffffffffffff1673ffffffffffffffffffffffffffffffffffffffff16634c0bcfe58a6040518263ffffffff167c0100000000000000000000000000000000000000000000000000000000028152600401808273ffffffffffffffffffffffffffffffffffffffff1673ffffffffffffffffffffffffffffffffffffffff168152602001915050602060405180830381600087803b158015611e9f57600080fd5b505af1158015611eb3573d6000803e3d6000fd5b505050506040513d6020811015611ec957600080fd5b81019080805190602001909291905050506142ae90919063ffffffff16565b6040518363ffffffff167c0100000000000000000000000000000000000000000000000000000000028152600401808373ffffffffffffffffffffffffffffffffffffffff1673ffffffffffffffffffffffffffffffffffffffff16815260200182815260200192505050600060405180830381600087803b158015611f6d57600080fd5b505af1158015611f81573d6000803e3d6000fd5b505050506122c4565b73__Utilities_____________________________63bed34bba836040518263ffffffff167c0100000000000000000000000000000000000000000000000000000000028152600401808060200180602001838103835284818151815260200191508051906020019080838360005b83811015612014578082015181840152602081019050611ff9565b50505050905090810190601f1680156120415780820380516001836020036101000a031916815260200191505b50838103825260088152602001807f506572736f6e616c000000000000000000000000000000000000000000000000815250602001935050505060206040518083038186803b15801561209357600080fd5b505af41580156120a7573d6000803e3d6000fd5b505050506040513d60208110156120bd57600080fd5b8101908080519060200190929190505050156122be57600560009054906101000a900473ffffffffffffffffffffffffffffffffffffffff1673ffffffffffffffffffffffffffffffffffffffff1663a270c6908561221c86600560009054906101000a900473ffffffffffffffffffffffffffffffffffffffff1673ffffffffffffffffffffffffffffffffffffffff166381b347968a6040518263ffffffff167c0100000000000000000000000000000000000000000000000000000000028152600401808273ffffffffffffffffffffffffffffffffffffffff1673ffffffffffffffffffffffffffffffffffffffff168152602001915050602060405180830381600087803b1580156121d357600080fd5b505af11580156121e7573d6000803e3d6000fd5b505050506040513d60208110156121fd57600080fd5b81019080805190602001909291905050506142ae90919063ffffffff16565b6040518363ffffffff167c0100000000000000000000000000000000000000000000000000000000028152600401808373ffffffffffffffffffffffffffffffffffffffff1673ffffffffffffffffffffffffffffffffffffffff16815260200182815260200192505050600060405180830381600087803b1580156122a157600080fd5b505af11580156122b5573d6000803e3d6000fd5b505050506122c3565b600080fd5b5b600560009054906101000a900473ffffffffffffffffffffffffffffffffffffffff1673ffffffffffffffffffffffffffffffffffffffff1663f7ea7a3d6123d585600560009054906101000a900473ffffffffffffffffffffffffffffffffffffffff1673ffffffffffffffffffffffffffffffffffffffff166318160ddd6040518163ffffffff167c0100000000000000000000000000000000000000000000000000000000028152600401602060405180830381600087803b15801561238c57600080fd5b505af11580156123a0573d6000803e3d6000fd5b505050506040513d60208110156123b657600080fd5b81019080805190602001909291905050506142ae90919063ffffffff16565b6040518263ffffffff167c010000000000000000000000000000000000000000000000000000000002815260040180828152602001915050600060405180830381600087803b15801561242757600080fd5b505af115801561243b573d6000803e3d6000fd5b505050508373ffffffffffffffffffffffffffffffffffffffff167fc7fd3ef7ee498ebe6a01e4301f143a9fce50ad9557c045056f8455f1388d30138484604051808381526020018060200180602001838103835284818151815260200191508051906020019080838360005b838110156124c35780820151818401526020810190506124a8565b50505050905090810190601f1680156124f05780820380516001836020036101000a031916815260200191505b50838103825260058152602001807f4f776e657200000000000000000000000000000000000000000000000000000081525060200194505050505060405180910390a2600190509392505050565b6000600560009054906101000a900473ffffffffffffffffffffffffffffffffffffffff1673ffffffffffffffffffffffffffffffffffffffff166381b34796836040518263ffffffff167c0100000000000000000000000000000000000000000000000000000000028152600401808273ffffffffffffffffffffffffffffffffffffffff1673ffffffffffffffffffffffffffffffffffffffff168152602001915050602060405180830381600087803b1580156125fd57600080fd5b505af1158015612611573d6000803e3d6000fd5b505050506040513d602081101561262757600080fd5b81019080805190602001909291905050509050919050565b60035481565b6000809054906101000a900473ffffffffffffffffffffffffffffffffffffffff1681565b6000809054906101000a900473ffffffffffffffffffffffffffffffffffffffff1673ffffffffffffffffffffffffffffffffffffffff163373ffffffffffffffffffffffffffffffffffffffff16141515612754576040517f08c379a000000000000000000000000000000000000000000000000000000000815260040180806020018281038252602d8152602001807f4f6e6c792074686520726f6f74206163636f756e742063616e2065786563757481526020017f65207468697320616374696f6e0000000000000000000000000000000000000081525060400191505060405180910390fd5b80600460006101000a81548160ff021916908360ff16021790555050565b60028054600181600116156101000203166002900480601f0160208091040260200160405190810160405280929190818152602001828054600181600116156101000203166002900480156128085780601f106127dd57610100808354040283529160200191612808565b820191906000526020600020905b8154815290600101906020018083116127eb57829003601f168201915b505050505081565b6000809054906101000a900473ffffffffffffffffffffffffffffffffffffffff1673ffffffffffffffffffffffffffffffffffffffff163373ffffffffffffffffffffffffffffffffffffffff161415156128fa576040517f08c379a000000000000000000000000000000000000000000000000000000000815260040180806020018281038252602d8152602001807f4f6e6c792074686520726f6f74206163636f756e742063616e2065786563757481526020017f65207468697320616374696f6e0000000000000000000000000000000000000081525060400191505060405180910390fd5b600560009054906101000a900473ffffffffffffffffffffffffffffffffffffffff1673ffffffffffffffffffffffffffffffffffffffff1663957a49476000809054906101000a900473ffffffffffffffffffffffffffffffffffffffff16612a8584600560009054906101000a900473ffffffffffffffffffffffffffffffffffffffff1673ffffffffffffffffffffffffffffffffffffffff16634c0bcfe56000809054906101000a900473ffffffffffffffffffffffffffffffffffffffff166040518263ffffffff167c0100000000000000000000000000000000000000000000000000000000028152600401808273ffffffffffffffffffffffffffffffffffffffff1673ffffffffffffffffffffffffffffffffffffffff168152602001915050602060405180830381600087803b158015612a3c57600080fd5b505af1158015612a50573d6000803e3d6000fd5b505050506040513d6020811015612a6657600080fd5b810190808051906020019092919050505061429290919063ffffffff16565b6040518363ffffffff167c0100000000000000000000000000000000000000000000000000000000028152600401808373ffffffffffffffffffffffffffffffffffffffff1673ffffffffffffffffffffffffffffffffffffffff16815260200182815260200192505050600060405180830381600087803b158015612b0a57600080fd5b505af1158015612b1e573d6000803e3d6000fd5b50505050600560009054906101000a900473ffffffffffffffffffffffffffffffffffffffff1673ffffffffffffffffffffffffffffffffffffffff1663f7ea7a3d612c3383600560009054906101000a900473ffffffffffffffffffffffffffffffffffffffff1673ffffffffffffffffffffffffffffffffffffffff166318160ddd6040518163ffffffff167c0100000000000000000000000000000000000000000000000000000000028152600401602060405180830381600087803b158015612bea57600080fd5b505af1158015612bfe573d6000803e3d6000fd5b505050506040513d6020811015612c1457600080fd5b810190808051906020019092919050505061429290919063ffffffff16565b6040518263ffffffff167c010000000000000000000000000000000000000000000000000000000002815260040180828152602001915050600060405180830381600087803b158015612c8557600080fd5b505af1158015612c99573d6000803e3d6000fd5b505050506000809054906101000a900473ffffffffffffffffffffffffffffffffffffffff1673ffffffffffffffffffffffffffffffffffffffff1660007fcd6e659e4c2e75c3bfe47fecaccf39aeb368116a0ee52afb532e07f6cba6c0d18360405180828152602001806020018281038252600081526020016020019250505060405180910390a350565b6000600560009054906101000a900473ffffffffffffffffffffffffffffffffffffffff1673ffffffffffffffffffffffffffffffffffffffff1663be6e7dee84846040518363ffffffff167c0100000000000000000000000000000000000000000000000000000000028152600401808373ffffffffffffffffffffffffffffffffffffffff1673ffffffffffffffffffffffffffffffffffffffff1681526020018273ffffffffffffffffffffffffffffffffffffffff1673ffffffffffffffffffffffffffffffffffffffff16815260200192505050602060405180830381600087803b158015612e1857600080fd5b505af1158015612e2c573d6000803e3d6000fd5b505050506040513d6020811015612e4257600080fd5b8101908080519060200190929190505050905092915050565b6000809054906101000a900473ffffffffffffffffffffffffffffffffffffffff1673ffffffffffffffffffffffffffffffffffffffff163373ffffffffffffffffffffffffffffffffffffffff16141515612f45576040517f08c379a000000000000000000000000000000000000000000000000000000000815260040180806020018281038252602d8152602001807f4f6e6c792074686520726f6f74206163636f756e742063616e2065786563757481526020017f65207468697320616374696f6e0000000000000000000000000000000000000081525060400191505060405180910390fd5b600560009054906101000a900473ffffffffffffffffffffffffffffffffffffffff1673ffffffffffffffffffffffffffffffffffffffff16638d115dd9826040518263ffffffff167c0100000000000000000000000000000000000000000000000000000000028152600401808273ffffffffffffffffffffffffffffffffffffffff1673ffffffffffffffffffffffffffffffffffffffff168152602001915050600060405180830381600087803b15801561300257600080fd5b505af1158015613016573d6000803e3d6000fd5b50505050600560009054906101000a900473ffffffffffffffffffffffffffffffffffffffff1673ffffffffffffffffffffffffffffffffffffffff1663957a494782613175600460009054906101000a900460ff1660ff16600560009054906101000a900473ffffffffffffffffffffffffffffffffffffffff1673ffffffffffffffffffffffffffffffffffffffff16634c0bcfe5876040518263ffffffff167c0100000000000000000000000000000000000000000000000000000000028152600401808273ffffffffffffffffffffffffffffffffffffffff1673ffffffffffffffffffffffffffffffffffffffff168152602001915050602060405180830381600087803b15801561312c57600080fd5b505af1158015613140573d6000803e3d6000fd5b505050506040513d602081101561315657600080fd5b810190808051906020019092919050505061429290919063ffffffff16565b6040518363ffffffff167c0100000000000000000000000000000000000000000000000000000000028152600401808373ffffffffffffffffffffffffffffffffffffffff1673ffffffffffffffffffffffffffffffffffffffff16815260200182815260200192505050600060405180830381600087803b1580156131fa57600080fd5b505af115801561320e573d6000803e3d6000fd5b50505050600560009054906101000a900473ffffffffffffffffffffffffffffffffffffffff1673ffffffffffffffffffffffffffffffffffffffff1663957a49476000809054906101000a900473ffffffffffffffffffffffffffffffffffffffff166133af600460009054906101000a900460ff1660ff16600560009054906101000a900473ffffffffffffffffffffffffffffffffffffffff1673ffffffffffffffffffffffffffffffffffffffff16634c0bcfe56000809054906101000a900473ffffffffffffffffffffffffffffffffffffffff166040518263ffffffff167c0100000000000000000000000000000000000000000000000000000000028152600401808273ffffffffffffffffffffffffffffffffffffffff1673ffffffffffffffffffffffffffffffffffffffff168152602001915050602060405180830381600087803b15801561336657600080fd5b505af115801561337a573d6000803e3d6000fd5b505050506040513d602081101561339057600080fd5b81019080805190602001909291905050506142ae90919063ffffffff16565b6040518363ffffffff167c0100000000000000000000000000000000000000000000000000000000028152600401808373ffffffffffffffffffffffffffffffffffffffff1673ffffffffffffffffffffffffffffffffffffffff16815260200182815260200192505050600060405180830381600087803b15801561343457600080fd5b505af1158015613448573d6000803e3d6000fd5b505050508073ffffffffffffffffffffffffffffffffffffffff166108fc670de0b6b3a76400009081150290604051600060405180830381858888f1935050505015801561349a573d6000803e3d6000fd5b508073ffffffffffffffffffffffffffffffffffffffff166000809054906101000a900473ffffffffffffffffffffffffffffffffffffffff1673ffffffffffffffffffffffffffffffffffffffff167fcd6e659e4c2e75c3bfe47fecaccf39aeb368116a0ee52afb532e07f6cba6c0d1600460009054906101000a900460ff16604051808260ff168152602001806020018281038252600081526020016020019250505060405180910390a350565b6000600560009054906101000a900473ffffffffffffffffffffffffffffffffffffffff1673ffffffffffffffffffffffffffffffffffffffff166318160ddd6040518163ffffffff167c0100000000000000000000000000000000000000000000000000000000028152600401602060405180830381600087803b1580156135d257600080fd5b505af11580156135e6573d6000803e3d6000fd5b505050506040513d60208110156135fc57600080fd5b8101908080519060200190929190505050905090565b6000809054906101000a900473ffffffffffffffffffffffffffffffffffffffff1673ffffffffffffffffffffffffffffffffffffffff163373ffffffffffffffffffffffffffffffffffffffff161415156136fc576040517f08c379a000000000000000000000000000000000000000000000000000000000815260040180806020018281038252602d8152602001807f4f6e6c792074686520726f6f74206163636f756e742063616e2065786563757481526020017f65207468697320616374696f6e0000000000000000000000000000000000000081525060400191505060405180910390fd5b600560009054906101000a900473ffffffffffffffffffffffffffffffffffffffff1673ffffffffffffffffffffffffffffffffffffffff1663d0b90616826040518263ffffffff167c0100000000000000000000000000000000000000000000000000000000028152600401808273ffffffffffffffffffffffffffffffffffffffff1673ffffffffffffffffffffffffffffffffffffffff168152602001915050600060405180830381600087803b1580156137b957600080fd5b505af11580156137cd573d6000803e3d6000fd5b5050505050565b6000600460019054906101000a900473ffffffffffffffffffffffffffffffffffffffff1673ffffffffffffffffffffffffffffffffffffffff166324d7806c336040518263ffffffff167c0100000000000000000000000000000000000000000000000000000000028152600401808273ffffffffffffffffffffffffffffffffffffffff1673ffffffffffffffffffffffffffffffffffffffff168152602001915050602060405180830381600087803b15801561389357600080fd5b505af11580156138a7573d6000803e3d6000fd5b505050506040513d60208110156138bd57600080fd5b81019080805190602001909291905050501515613968576040517f08c379a00000000000000000000000000000000000000000000000000000000081526004018080602001828103825260238152602001807f4f6e6c792061646d696e732063616e206578656375746520746869732061637481526020017f696f6e000000000000000000000000000000000000000000000000000000000081525060400191505060405180910390fd5b600460019054906101000a900473ffffffffffffffffffffffffffffffffffffffff1673ffffffffffffffffffffffffffffffffffffffff16630b7c7ae1336040518263ffffffff167c0100000000000000000000000000000000000000000000000000000000028152600401808273ffffffffffffffffffffffffffffffffffffffff1673ffffffffffffffffffffffffffffffffffffffff168152602001915050602060405180830381600087803b158015613a2557600080fd5b505af1158015613a39573d6000803e3d6000fd5b505050506040513d6020811015613a4f57600080fd5b81019080805190602001909291905050508411151515613afd576040517f08c379a00000000000000000000000000000000000000000000000000000000081526004018080602001828103825260328152602001807f41646d696e2068617320657863656564656420746f74616c207472616e73666581526020017f7261626c6520746f6b656e73206c696d6974000000000000000000000000000081525060400191505060405180910390fd5b600460019054906101000a900473ffffffffffffffffffffffffffffffffffffffff1673ffffffffffffffffffffffffffffffffffffffff1663ddbbc5ca33876040518363ffffffff167c0100000000000000000000000000000000000000000000000000000000028152600401808373ffffffffffffffffffffffffffffffffffffffff1673ffffffffffffffffffffffffffffffffffffffff1681526020018273ffffffffffffffffffffffffffffffffffffffff1673ffffffffffffffffffffffffffffffffffffffff16815260200192505050602060405180830381600087803b158015613bee57600080fd5b505af1158015613c02573d6000803e3d6000fd5b505050506040513d6020811015613c1857600080fd5b81019080805190602001909291905050508411151515613cc6576040517f08c379a000000000000000000000000000000000000000000000000000000000815260040180806020018281038252603a8152602001807f41646d696e20686173207472616e7366657272656420746f6f206d616e79207481526020017f6f6b656e7320746f2074686174207573657220616c726561647900000000000081525060400191505060405180910390fd5b600460019054906101000a900473ffffffffffffffffffffffffffffffffffffffff1673ffffffffffffffffffffffffffffffffffffffff16630b5563143387876040518463ffffffff167c0100000000000000000000000000000000000000000000000000000000028152600401808473ffffffffffffffffffffffffffffffffffffffff1673ffffffffffffffffffffffffffffffffffffffff1681526020018373ffffffffffffffffffffffffffffffffffffffff1673ffffffffffffffffffffffffffffffffffffffff1681526020018281526020019350505050600060405180830381600087803b158015613dbf57600080fd5b505af1158015613dd3573d6000803e3d6000fd5b50505050613e366000809054906101000a900473ffffffffffffffffffffffffffffffffffffffff16868686868080601f016020809104026020016040519081016040528093929190818152602001838380828437820191505050505050614333565b60019050949350505050565b73__Utilities_____________________________63bed34bba85856040518363ffffffff167c010000000000000000000000000000000000000000000000000000000002815260040180806020018060200183810383528585828181526020019250808284378201915050838103825260088152602001807f506572736f6e616c00000000000000000000000000000000000000000000000081525060200194505050505060206040518083038186803b158015613f0057600080fd5b505af4158015613f14573d6000803e3d6000fd5b505050506040513d6020811015613f2a57600080fd5b810190808051906020019092919050505015613f8357613f7e33878785858080601f016020809104026020016040519081016040528093929190818152602001838380828437820191505050505050614cee565b614133565b73__Utilities_____________________________63bed34bba85856040518363ffffffff167c0100000000000000000000000000000000000000000000000000000000028152600401808060200180602001838103835285858281815260200192508082843782019150508381038252600c8152602001807f5472616e7366657261626c65000000000000000000000000000000000000000081525060200194505050505060206040518083038186803b15801561404157600080fd5b505af4158015614055573d6000803e3d6000fd5b505050506040513d602081101561406b57600080fd5b8101908080519060200190929190505050156140c4576140bf33878785858080601f016020809104026020016040519081016040528093929190818152602001838380828437820191505050505050614333565b614132565b6040517f08c379a000000000000000000000000000000000000000000000000000000000815260040180806020018281038252601e8152602001807f66726f6d42616c616e63652076616c7565206973206e6f742076616c6964000081525060200191505060405180910390fd5b5b505050505050565b6060600560009054906101000a900473ffffffffffffffffffffffffffffffffffffffff1673ffffffffffffffffffffffffffffffffffffffff1663ea447a32836040518263ffffffff167c0100000000000000000000000000000000000000000000000000000000028152600401808273ffffffffffffffffffffffffffffffffffffffff1673ffffffffffffffffffffffffffffffffffffffff168152602001915050600060405180830381600087803b1580156141fa57600080fd5b505af115801561420e573d6000803e3d6000fd5b505050506040513d6000823e3d601f19601f82011682018060405250602081101561423857600080fd5b81019080805164010000000081111561425057600080fd5b8281019050602081018481111561426657600080fd5b815185602082028301116401000000008211171561428357600080fd5b50509291905050509050919050565b600081830190508281101515156142a557fe5b80905092915050565b6000828211151515614328576040517f08c379a000000000000000000000000000000000000000000000000000000000815260040180806020018281038252601e8152602001807f4e6f7420656e6f75676820746f6b656e7320666f72207472616e73666572000081525060200191505060405180910390fd5b818303905092915050565b83838360008273ffffffffffffffffffffffffffffffffffffffff16141515156143c5576040517f08c379a00000000000000000000000000000000000000000000000000000000081526004018080602001828103825260188152602001807f496e76616c69642073656e64206164647265737320283029000000000000000081525060200191505060405180910390fd5b6000809054906101000a900473ffffffffffffffffffffffffffffffffffffffff1673ffffffffffffffffffffffffffffffffffffffff168373ffffffffffffffffffffffffffffffffffffffff161415156145f95760035461455c82600560009054906101000a900473ffffffffffffffffffffffffffffffffffffffff1673ffffffffffffffffffffffffffffffffffffffff1663be6e7dee87876040518363ffffffff167c0100000000000000000000000000000000000000000000000000000000028152600401808373ffffffffffffffffffffffffffffffffffffffff1673ffffffffffffffffffffffffffffffffffffffff1681526020018273ffffffffffffffffffffffffffffffffffffffff1673ffffffffffffffffffffffffffffffffffffffff16815260200192505050602060405180830381600087803b15801561451357600080fd5b505af1158015614527573d6000803e3d6000fd5b505050506040513d602081101561453d57600080fd5b810190808051906020019092919050505061429290919063ffffffff16565b111515156145f8576040517f08c379a00000000000000000000000000000000000000000000000000000000081526004018080602001828103825260328152602001807f596f752068617665207472616e7366657272656420746f6f206d75636820746f81526020017f2074686973207573657220616c7265616479000000000000000000000000000081525060400191505060405180910390fd5b5b600560009054906101000a900473ffffffffffffffffffffffffffffffffffffffff1673ffffffffffffffffffffffffffffffffffffffff1663957a49478861474288600560009054906101000a900473ffffffffffffffffffffffffffffffffffffffff1673ffffffffffffffffffffffffffffffffffffffff16634c0bcfe58d6040518263ffffffff167c0100000000000000000000000000000000000000000000000000000000028152600401808273ffffffffffffffffffffffffffffffffffffffff1673ffffffffffffffffffffffffffffffffffffffff168152602001915050602060405180830381600087803b1580156146f957600080fd5b505af115801561470d573d6000803e3d6000fd5b505050506040513d602081101561472357600080fd5b81019080805190602001909291905050506142ae90919063ffffffff16565b6040518363ffffffff167c0100000000000000000000000000000000000000000000000000000000028152600401808373ffffffffffffffffffffffffffffffffffffffff1673ffffffffffffffffffffffffffffffffffffffff16815260200182815260200192505050600060405180830381600087803b1580156147c757600080fd5b505af11580156147db573d6000803e3d6000fd5b50505050600560009054906101000a900473ffffffffffffffffffffffffffffffffffffffff1673ffffffffffffffffffffffffffffffffffffffff1663a270c6908761492888600560009054906101000a900473ffffffffffffffffffffffffffffffffffffffff1673ffffffffffffffffffffffffffffffffffffffff166381b347968c6040518263ffffffff167c0100000000000000000000000000000000000000000000000000000000028152600401808273ffffffffffffffffffffffffffffffffffffffff1673ffffffffffffffffffffffffffffffffffffffff168152602001915050602060405180830381600087803b1580156148df57600080fd5b505af11580156148f3573d6000803e3d6000fd5b505050506040513d602081101561490957600080fd5b810190808051906020019092919050505061429290919063ffffffff16565b6040518363ffffffff167c0100000000000000000000000000000000000000000000000000000000028152600401808373ffffffffffffffffffffffffffffffffffffffff1673ffffffffffffffffffffffffffffffffffffffff16815260200182815260200192505050600060405180830381600087803b1580156149ad57600080fd5b505af11580156149c1573d6000803e3d6000fd5b50505050600560009054906101000a900473ffffffffffffffffffffffffffffffffffffffff1673ffffffffffffffffffffffffffffffffffffffff16636007cf5b8888614b4389600560009054906101000a900473ffffffffffffffffffffffffffffffffffffffff1673ffffffffffffffffffffffffffffffffffffffff1663be6e7dee8e8e6040518363ffffffff167c0100000000000000000000000000000000000000000000000000000000028152600401808373ffffffffffffffffffffffffffffffffffffffff1673ffffffffffffffffffffffffffffffffffffffff1681526020018273ffffffffffffffffffffffffffffffffffffffff1673ffffffffffffffffffffffffffffffffffffffff16815260200192505050602060405180830381600087803b158015614afa57600080fd5b505af1158015614b0e573d6000803e3d6000fd5b505050506040513d6020811015614b2457600080fd5b810190808051906020019092919050505061429290919063ffffffff16565b6040518463ffffffff167c0100000000000000000000000000000000000000000000000000000000028152600401808473ffffffffffffffffffffffffffffffffffffffff1673ffffffffffffffffffffffffffffffffffffffff1681526020018373ffffffffffffffffffffffffffffffffffffffff1673ffffffffffffffffffffffffffffffffffffffff1681526020018281526020019350505050600060405180830381600087803b158015614bfb57600080fd5b505af1158015614c0f573d6000803e3d6000fd5b505050508573ffffffffffffffffffffffffffffffffffffffff168773ffffffffffffffffffffffffffffffffffffffff167fcd6e659e4c2e75c3bfe47fecaccf39aeb368116a0ee52afb532e07f6cba6c0d187876040518083815260200180602001828103825283818151815260200191508051906020019080838360005b83811015614caa578082015181840152602081019050614c8f565b50505050905090810190601f168015614cd75780820380516001836020036101000a031916815260200191505b50935050505060405180910390a350505050505050565b83838360008273ffffffffffffffffffffffffffffffffffffffff1614151515614d80576040517f08c379a00000000000000000000000000000000000000000000000000000000081526004018080602001828103825260188152602001807f496e76616c69642073656e64206164647265737320283029000000000000000081525060200191505060405180910390fd5b6000809054906101000a900473ffffffffffffffffffffffffffffffffffffffff1673ffffffffffffffffffffffffffffffffffffffff168373ffffffffffffffffffffffffffffffffffffffff16141515614fb457600354614f1782600560009054906101000a900473ffffffffffffffffffffffffffffffffffffffff1673ffffffffffffffffffffffffffffffffffffffff1663be6e7dee87876040518363ffffffff167c0100000000000000000000000000000000000000000000000000000000028152600401808373ffffffffffffffffffffffffffffffffffffffff1673ffffffffffffffffffffffffffffffffffffffff1681526020018273ffffffffffffffffffffffffffffffffffffffff1673ffffffffffffffffffffffffffffffffffffffff16815260200192505050602060405180830381600087803b158015614ece57600080fd5b505af1158015614ee2573d6000803e3d6000fd5b505050506040513d6020811015614ef857600080fd5b810190808051906020019092919050505061429290919063ffffffff16565b11151515614fb3576040517f08c379a00000000000000000000000000000000000000000000000000000000081526004018080602001828103825260328152602001807f596f752068617665207472616e7366657272656420746f6f206d75636820746f81526020017f2074686973207573657220616c7265616479000000000000000000000000000081525060400191505060405180910390fd5b5b600560009054906101000a900473ffffffffffffffffffffffffffffffffffffffff1673ffffffffffffffffffffffffffffffffffffffff1663a270c690886150fd88600560009054906101000a900473ffffffffffffffffffffffffffffffffffffffff1673ffffffffffffffffffffffffffffffffffffffff166381b347968d6040518263ffffffff167c0100000000000000000000000000000000000000000000000000000000028152600401808273ffffffffffffffffffffffffffffffffffffffff1673ffffffffffffffffffffffffffffffffffffffff168152602001915050602060405180830381600087803b1580156150b457600080fd5b505af11580156150c8573d6000803e3d6000fd5b505050506040513d60208110156150de57600080fd5b81019080805190602001909291905050506142ae90919063ffffffff16565b6040518363ffffffff167c0100000000000000000000000000000000000000000000000000000000028152600401808373ffffffffffffffffffffffffffffffffffffffff1673ffffffffffffffffffffffffffffffffffffffff16815260200182815260200192505050600060405180830381600087803b15801561518257600080fd5b505af1158015615196573d6000803e3d6000fd5b50505050600560009054906101000a900473ffffffffffffffffffffffffffffffffffffffff1673ffffffffffffffffffffffffffffffffffffffff1663a270c690876152e388600560009054906101000a900473ffffffffffffffffffffffffffffffffffffffff1673ffffffffffffffffffffffffffffffffffffffff166381b347968c6040518263ffffffff167c0100000000000000000000000000000000000000000000000000000000028152600401808273ffffffffffffffffffffffffffffffffffffffff1673ffffffffffffffffffffffffffffffffffffffff168152602001915050602060405180830381600087803b15801561529a57600080fd5b505af11580156152ae573d6000803e3d6000fd5b505050506040513d60208110156152c457600080fd5b810190808051906020019092919050505061429290919063ffffffff16565b6040518363ffffffff167c0100000000000000000000000000000000000000000000000000000000028152600401808373ffffffffffffffffffffffffffffffffffffffff1673ffffffffffffffffffffffffffffffffffffffff16815260200182815260200192505050600060405180830381600087803b15801561536857600080fd5b505af115801561537c573d6000803e3d6000fd5b50505050600560009054906101000a900473ffffffffffffffffffffffffffffffffffffffff1673ffffffffffffffffffffffffffffffffffffffff16636007cf5b88886154fe89600560009054906101000a900473ffffffffffffffffffffffffffffffffffffffff1673ffffffffffffffffffffffffffffffffffffffff1663be6e7dee8e8e6040518363ffffffff167c0100000000000000000000000000000000000000000000000000000000028152600401808373ffffffffffffffffffffffffffffffffffffffff1673ffffffffffffffffffffffffffffffffffffffff1681526020018273ffffffffffffffffffffffffffffffffffffffff1673ffffffffffffffffffffffffffffffffffffffff16815260200192505050602060405180830381600087803b1580156154b557600080fd5b505af11580156154c9573d6000803e3d6000fd5b505050506040513d60208110156154df57600080fd5b810190808051906020019092919050505061429290919063ffffffff16565b6040518463ffffffff167c0100000000000000000000000000000000000000000000000000000000028152600401808473ffffffffffffffffffffffffffffffffffffffff1673ffffffffffffffffffffffffffffffffffffffff1681526020018373ffffffffffffffffffffffffffffffffffffffff1673ffffffffffffffffffffffffffffffffffffffff1681526020018281526020019350505050600060405180830381600087803b1580156155b657600080fd5b505af11580156155ca573d6000803e3d6000fd5b505050508573ffffffffffffffffffffffffffffffffffffffff168773ffffffffffffffffffffffffffffffffffffffff167fcd6e659e4c2e75c3bfe47fecaccf39aeb368116a0ee52afb532e07f6cba6c0d187876040518083815260200180602001828103825283818151815260200191508051906020019080838360005b8381101561566557808201518184015260208101905061564a565b50505050905090810190601f1680156156925780820380516001836020036101000a031916815260200191505b50935050505060405180910390a3505050505050505600a165627a7a7230582059e7e27620934567f67a488d3a607244b9f28c552eab89f83a9cd61fda3879a80029",
  "source": "pragma solidity ^0.4.24;\n\nimport \"./Utilities.sol\";\nimport \"./Admin.sol\";\nimport \"./Owned.sol\";\nimport \"./Storage/OhanaCoinStorage.sol\";\n\n\ncontract OhanaCoin is Owned {\n    \n    // Check for some conditions before transferring any coins\n    modifier transferChecks(address _from, address _to, uint256 _value) {\n        // Prevent transfer to 0x0 address. Use burn() instead\n        require(_to != 0x0, \"Invalid send address (0)\");\n        // Check if sender has transferred too much already\n        if (_from != owner)\n            require(coinStorage.getUserTransferredAmount(_from, _to).add(_value) <= userTransferAmountLimit, \n                \"You have transferred too much to this user already\");\n        _;\n    }\n\n    modifier onlyAdmin {\n        require(admin.isAdmin(msg.sender), \"Only admins can execute this action\");\n        _;\n    }\n    \n    // Public variables of the token\n    string public name = \"OhanaCoin\";\n    string public symbol = \"OHN\";\n    uint256 public userTransferAmountLimit = 15; // How many coins a user can transfer total to another user in a given month\n    // uint8 public userTransactionsLimit = 3; // How many transactions a user can make each month\n    uint8 public monthlyAllowance = 30; // Monthly allowance of coins to users\n    // uint256 public etherAmount = 1000; // How much ether is allocated to each user each month\n    Admin admin;\n    OhanaCoinStorage coinStorage;\n\n    \n    // This generates a public event on the blockchain that will notify clients (transaction)\n    event Transfer(address indexed from, address indexed to, uint256 value, string message);\n    event Burn(address indexed from, uint256 value, string balanceType, string burnType);\n    event Reset(address indexed to);\n    event Error(string message);\n        \n    /**\n     * Constrctor function\n     *\n     * Initializes contract with initial supply tokens to the creator of the contract and ether\n     */\n    constructor(address adminContract, address storageContract) public payable {\n        admin = Admin(adminContract); // Create an instance of the deployed Admin contract\n        coinStorage = OhanaCoinStorage(storageContract); // Create an instance of the storage\n        owner = msg.sender;                                     // Owner will mint new coins every month\n    }\n    \n    /**\n     * Internal transfer, only can be called by this contract. The tokens are transferred \n     * from the _from address's transferable balance to the _to address's transferable \n     * balance. This facilitates user to user transactions.\n     * \n     * @param _from The address of the sender\n     * @param _to The address of the recipient\n     * @param _value The amount to send\n     * @param _message The message to send along with the transfer\n     */\n    function _transferableToPersonal(address _from, address _to, uint _value, string _message) internal transferChecks(_from, _to, _value) {\n        // Subtract from the sender\n        coinStorage.setTransferableBalance(_from, coinStorage.getTransferableBalance(_from).sub(_value)); // using safemath library\n        // balanceOf[_from].transferableBalance = balanceOf[_from].transferableBalance.sub(_value); \n        // Add the same to the recipient\n        coinStorage.setPersonalBalance(_to, coinStorage.getPersonalBalance(_to).add(_value));\n        // coinStorage.setNumTransfers(_from, coinStorage.getNumTransfers(_from) + 1);\n        coinStorage.setUserTransferAmount(_from, _to, coinStorage.getUserTransferredAmount(_from, _to).add(_value));\n        emit Transfer(_from, _to, _value, _message);\n    }\n    \n\n    /**\n     * Internal transfer, only can be called by this contract. The tokens are transfered \n     * to the _to address's personal balance. This facilitates user to user transactions.\n     * \n     * @param _from The address of the sender\n     * @param _to The address of the recipient\n     * @param _value The amount to send\n     * @param _message The message to send along with the transfer\n     */\n    function _personalToPersonal(address _from, address _to, uint _value, string _message) internal transferChecks(_from, _to, _value) {\n         // Subtract from the sender\n        coinStorage.setPersonalBalance(_from, coinStorage.getPersonalBalance(_from).sub(_value));\n        // Add the same to the recipient\n        coinStorage.setPersonalBalance(_to, coinStorage.getPersonalBalance(_to).add(_value));\n        // coinStorage.setNumTransfers(_from, coinStorage.getNumTransfers(_from) + 1);\n        coinStorage.setUserTransferAmount(_from, _to, coinStorage.getUserTransferredAmount(_from, _to).add(_value));\n        emit Transfer(_from, _to, _value, _message);\n    }\n    \n    /**\n     * Transfer tokens to either the personal or transferable balance\n     *\n     * Send `_value` tokens to `_to` from your account\n     *\n     * @param _to The address of the recipient\n     * @param _value The amount to send\n     * @param fromBalance Which balance to withdraw from (Personal or Transferable)\n     * @param _message The message to send along with the transfer\n     */\n    function transfer(address _to, uint256 _value, string fromBalance, string _message) external {\n        if (Utilities.compareStrings(fromBalance, \"Personal\"))  \n            _personalToPersonal(msg.sender, _to, _value, _message);\n        else if (Utilities.compareStrings(fromBalance, \"Transferable\"))\n            _transferableToPersonal(msg.sender, _to, _value, _message);\n        else\n            revert(\"fromBalance value is not valid\");\n    }\n    \n     /**\n     * Transfer tokens from other address\n     *\n     * Send `_value` tokens to `_to` on behalf of msg.sender\n     *\n     * @param _to The address of the recipient\n     * @param _value The amount to send\n     * @param _message The message to send along with the transfer\n     */\n    function transferFrom(address _to, uint256 _value, string _message) external onlyAdmin returns (bool) {\n        require(_value <= admin.getAdminTransferableBalance(msg.sender), \"Admin has exceeded total transferable tokens limit\");   \n        require(_value <= admin.getAdminUserAllowance(msg.sender, _to), \"Admin has transferred too many tokens to that user already\"); \n        // if (_value > admin.getAdminTransferableBalance(msg.sender)) {\n        //     emit Error(\"Admin has exceeded total transferable tokens limit\");\n        //     return false;\n        // } \n        admin.reduceAdminTransferAllowance(msg.sender, _to, _value); // Update the balances/allownances\n        _transferableToPersonal(owner, _to, _value, _message);         // Transfer to spending balance\n        return true;\n    }\n\n    /**\n     * Destroy tokens from _from account (only admins can execute this, for redeeming prizes)\n     *\n     * Remove `_value` tokens from the system irreversibly on behalf of `_from`.\n     *\n     * @param _from The address of the user to burn tokens from\n     * @param _value The amount of tokens to burn\n     */\n    function adminBurnFrom(address _from, uint256 _value) external onlyAdmin returns (bool) {\n        require(_value <= admin.getAdminBurnBalance(msg.sender), \"Trying to burn more over limit\");\n        admin.setAdminBurnBalance(msg.sender, admin.getAdminBurnBalance(msg.sender).add(_value));\n        coinStorage.setPersonalBalance(_from, coinStorage.getPersonalBalance(_from).sub(_value));\n        coinStorage.setTotalSupply(coinStorage.totalSupply().sub(_value));\n        emit Burn(_from, _value, \"Personal\", \"Admin\");\n        return true;\n    }   \n    \n    /**\n     * Destroy tokens from _from account (only owner can execute this, is a scheduled burn)\n     *\n     * Remove `_value` tokens from the system irreversibly on behalf of `_from`.\n     *\n     * @param _from The address of the user to burn tokens from\n     * @param _value The amount of money to burn\n     * @param balanceType Which balance to burn from (Transferable or Personal)\n     */\n    function ownerBurnFrom(address _from, uint256 _value, string balanceType) public onlyOwner returns (bool) {\n        if (Utilities.compareStrings(balanceType, \"Transferable\")) {    // Subtract from the targeted balance\n            coinStorage.setTransferableBalance(_from, coinStorage.getTransferableBalance(_from).sub(_value));\n        }\n        else if (Utilities.compareStrings(balanceType, \"Personal\")) {\n            coinStorage.setPersonalBalance(_from, coinStorage.getPersonalBalance(_from).sub(_value));\n        }\n        else { \n            revert();\n        }\n        coinStorage.setTotalSupply(coinStorage.totalSupply().sub(_value)); // Update totalSupply\n        emit Burn(_from, _value, balanceType, \"Owner\");\n        return true;\n    }\n\n    /** Burn balances, deposit monthly allowance and reset admin allowances. Called every four months\n    *\n    * @param _to The address to reset balances of\n    */\n    function resetBalances(address _to) external onlyOwner {\n        // Burn the users balances\n        uint256 transferableBalance = getTransferableBalance(_to);\n        uint256 personalBalance = getPersonalBalance(_to);\n        ownerBurnFrom(_to, transferableBalance, \"Transferable\");\n        ownerBurnFrom(_to, personalBalance, \"Personal\");\n        mintTokens(1000000); //add more tokens to the common pool\n        depositAllowance(_to); // deposit the monthlyAllowance as well\n        if (admin.isAdmin(_to)) {\n            // if user is an admin, reset his/her allowances as well\n            admin.resetAllowances(_to);\n        }\n        emit Reset(_to);\n    }\n\n    /**\n    * Every month, every root account deposits monthlyAllowance tokens into user's transfer balance\n    *\n    * @param _to The address to deposit the allowance to\n    */\n    function depositAllowance(address _to) public onlyOwner {\n        // coinStorage.setNumTransfers(_to, 0); //reset the number of transfers\n        coinStorage.resetTransferredUsers(_to); //reset the record of who _to has transferred to in the past month\n        coinStorage.setTransferableBalance(_to, coinStorage.getTransferableBalance(_to).add(monthlyAllowance));\n        coinStorage.setTransferableBalance(owner, coinStorage.getTransferableBalance(owner).sub(monthlyAllowance));\n        _to.transfer(1 ether); // transfer ether to user to cover gas costs of transactions\n        emit Transfer(owner, _to, monthlyAllowance, \"\");\n    }\n    \n    /**\n     * Owner of contract can mint new tokens\n     * \n     * @param mintAmount The amount to create\n     */\n    function mintTokens(uint256 mintAmount) public onlyOwner {\n        coinStorage.setTransferableBalance(owner, coinStorage.getTransferableBalance(owner).add(mintAmount));\n        coinStorage.setTotalSupply(coinStorage.totalSupply().add(mintAmount));\n        emit Transfer(0, owner, mintAmount, \"\");\n    }\n\n    function setUserTransferAmountLimit(uint256 limit) external onlyOwner {\n        userTransferAmountLimit = limit;\n    }\n\n    function setMonthlyAllowance(uint8 value) external onlyOwner {\n        monthlyAllowance = value;\n    }\n\n    function getTransferableBalance(address user) public view returns (uint256) {\n        return coinStorage.getTransferableBalance(user);\n    }\n\n    function getPersonalBalance(address user) public view returns (uint256) {\n        return coinStorage.getPersonalBalance(user);\n    }\n\n    function getNumTransferredUsers(address user) external view returns (uint256) {\n        return coinStorage.getTransferredUsers(user).length;\n    }\n\n    function getTransferredUsers(address user) external view returns (address[]) {\n        return coinStorage.getTransferredUsers(user);\n    }\n\n    function getUserTransferredAmount(address from, address to) external view returns (uint256) {\n        return coinStorage.getUserTransferredAmount(from, to);\n    }\n\n    function getTotalSupply() external view returns (uint256) {\n        return coinStorage.totalSupply();\n    }\n\n    function getPastBalances(address user) external view returns (uint256[], uint256) {\n        return coinStorage.getPastBalances(user);\n    }\n\n    function storeBalance(address user) external onlyOwner {\n        coinStorage.storeBalance(user);\n    } \n\n    /** \n    * Fallback function to prevent accidental sending of ether to this contract\n    */\n    function () public payable {\n        revert();\n    }\n    \n}",
  "sourcePath": "/Users/byue/Desktop/truffle/contracts/OhanaCoin.sol",
  "compiler": {
    "name": "solc",
    "version": "0.4.24+commit.e67f0147.Emscripten.clang"
  },
  "schemaVersion": "2.0.0",
  "updatedAt": "2018-07-20T22:55:21.170Z"
}