{
  "contractName": "OhanaCoin",
  "abi": [
    {
      "constant": true,
      "inputs": [],
      "name": "monthlyAllowance",
      "outputs": [
        {
          "name": "",
          "type": "uint8"
        }
      ],
      "payable": false,
      "stateMutability": "view",
      "type": "function"
    },
    {
      "constant": true,
      "inputs": [],
      "name": "name",
      "outputs": [
        {
          "name": "",
          "type": "string"
        }
      ],
      "payable": false,
      "stateMutability": "view",
      "type": "function"
    },
    {
      "constant": true,
      "inputs": [],
      "name": "userTransferAmountLimit",
      "outputs": [
        {
          "name": "",
          "type": "uint256"
        }
      ],
      "payable": false,
      "stateMutability": "view",
      "type": "function"
    },
    {
      "constant": true,
      "inputs": [],
      "name": "owner",
      "outputs": [
        {
          "name": "",
          "type": "address"
        }
      ],
      "payable": false,
      "stateMutability": "view",
      "type": "function"
    },
    {
      "constant": true,
      "inputs": [],
      "name": "symbol",
      "outputs": [
        {
          "name": "",
          "type": "string"
        }
      ],
      "payable": false,
      "stateMutability": "view",
      "type": "function"
    },
    {
      "inputs": [
        {
          "name": "adminContract",
          "type": "address"
        },
        {
          "name": "storageContract",
          "type": "address"
        }
      ],
      "payable": true,
      "stateMutability": "payable",
      "type": "constructor"
    },
    {
      "payable": true,
      "stateMutability": "payable",
      "type": "fallback"
    },
    {
      "anonymous": false,
      "inputs": [
        {
          "indexed": true,
          "name": "from",
          "type": "address"
        },
        {
          "indexed": true,
          "name": "to",
          "type": "address"
        },
        {
          "indexed": false,
          "name": "value",
          "type": "uint256"
        },
        {
          "indexed": false,
          "name": "message",
          "type": "string"
        }
      ],
      "name": "Transfer",
      "type": "event"
    },
    {
      "anonymous": false,
      "inputs": [
        {
          "indexed": true,
          "name": "from",
          "type": "address"
        },
        {
          "indexed": false,
          "name": "value",
          "type": "uint256"
        },
        {
          "indexed": false,
          "name": "balanceType",
          "type": "string"
        },
        {
          "indexed": false,
          "name": "burnType",
          "type": "string"
        }
      ],
      "name": "Burn",
      "type": "event"
    },
    {
      "anonymous": false,
      "inputs": [
        {
          "indexed": true,
          "name": "to",
          "type": "address"
        }
      ],
      "name": "Reset",
      "type": "event"
    },
    {
      "anonymous": false,
      "inputs": [
        {
          "indexed": false,
          "name": "message",
          "type": "string"
        }
      ],
      "name": "Error",
      "type": "event"
    },
    {
      "constant": false,
      "inputs": [
        {
          "name": "_to",
          "type": "address"
        },
        {
          "name": "_value",
          "type": "uint256"
        },
        {
          "name": "fromBalance",
          "type": "string"
        },
        {
          "name": "_message",
          "type": "string"
        }
      ],
      "name": "transfer",
      "outputs": [],
      "payable": false,
      "stateMutability": "nonpayable",
      "type": "function"
    },
    {
      "constant": false,
      "inputs": [
        {
          "name": "_to",
          "type": "address"
        },
        {
          "name": "_value",
          "type": "uint256"
        },
        {
          "name": "_message",
          "type": "string"
        }
      ],
      "name": "transferFrom",
      "outputs": [
        {
          "name": "",
          "type": "bool"
        }
      ],
      "payable": false,
      "stateMutability": "nonpayable",
      "type": "function"
    },
    {
      "constant": false,
      "inputs": [
        {
          "name": "_from",
          "type": "address"
        },
        {
          "name": "_value",
          "type": "uint256"
        }
      ],
      "name": "adminBurnFrom",
      "outputs": [
        {
          "name": "",
          "type": "bool"
        }
      ],
      "payable": false,
      "stateMutability": "nonpayable",
      "type": "function"
    },
    {
      "constant": false,
      "inputs": [
        {
          "name": "_from",
          "type": "address"
        },
        {
          "name": "_value",
          "type": "uint256"
        },
        {
          "name": "balanceType",
          "type": "string"
        }
      ],
      "name": "ownerBurnFrom",
      "outputs": [
        {
          "name": "",
          "type": "bool"
        }
      ],
      "payable": false,
      "stateMutability": "nonpayable",
      "type": "function"
    },
    {
      "constant": false,
      "inputs": [
        {
          "name": "_to",
          "type": "address"
        }
      ],
      "name": "resetBalances",
      "outputs": [],
      "payable": false,
      "stateMutability": "nonpayable",
      "type": "function"
    },
    {
      "constant": false,
      "inputs": [
        {
          "name": "_to",
          "type": "address"
        }
      ],
      "name": "depositAllowance",
      "outputs": [],
      "payable": false,
      "stateMutability": "nonpayable",
      "type": "function"
    },
    {
      "constant": false,
      "inputs": [
        {
          "name": "mintAmount",
          "type": "uint256"
        }
      ],
      "name": "mintTokens",
      "outputs": [],
      "payable": false,
      "stateMutability": "nonpayable",
      "type": "function"
    },
    {
      "constant": false,
      "inputs": [
        {
          "name": "limit",
          "type": "uint256"
        }
      ],
      "name": "setUserTransferAmountLimit",
      "outputs": [],
      "payable": false,
      "stateMutability": "nonpayable",
      "type": "function"
    },
    {
      "constant": false,
      "inputs": [
        {
          "name": "value",
          "type": "uint8"
        }
      ],
      "name": "setMonthlyAllowance",
      "outputs": [],
      "payable": false,
      "stateMutability": "nonpayable",
      "type": "function"
    },
    {
      "constant": true,
      "inputs": [
        {
          "name": "user",
          "type": "address"
        }
      ],
      "name": "getTransferableBalance",
      "outputs": [
        {
          "name": "",
          "type": "uint256"
        }
      ],
      "payable": false,
      "stateMutability": "view",
      "type": "function"
    },
    {
      "constant": true,
      "inputs": [
        {
          "name": "user",
          "type": "address"
        }
      ],
      "name": "getPersonalBalance",
      "outputs": [
        {
          "name": "",
          "type": "uint256"
        }
      ],
      "payable": false,
      "stateMutability": "view",
      "type": "function"
    },
    {
      "constant": true,
      "inputs": [
        {
          "name": "user",
          "type": "address"
        }
      ],
      "name": "getNumTransferredUsers",
      "outputs": [
        {
          "name": "",
          "type": "uint256"
        }
      ],
      "payable": false,
      "stateMutability": "view",
      "type": "function"
    },
    {
      "constant": true,
      "inputs": [],
      "name": "getTotalSupply",
      "outputs": [
        {
          "name": "",
          "type": "uint256"
        }
      ],
      "payable": false,
      "stateMutability": "view",
      "type": "function"
    }
  ],
  "bytecode": "0x60806040526040805190810160405280600981526020017f4f68616e61436f696e00000000000000000000000000000000000000000000008152506001908051906020019062000051929190620001f8565b506040805190810160405280600381526020017f4f484e0000000000000000000000000000000000000000000000000000000000815250600290805190602001906200009f929190620001f8565b50600f600355601e600460006101000a81548160ff021916908360ff16021790555060405160408062004e0c8339810180604052810190808051906020019092919080519060200190929190505050336000806101000a81548173ffffffffffffffffffffffffffffffffffffffff021916908373ffffffffffffffffffffffffffffffffffffffff16021790555081600460016101000a81548173ffffffffffffffffffffffffffffffffffffffff021916908373ffffffffffffffffffffffffffffffffffffffff16021790555080600560006101000a81548173ffffffffffffffffffffffffffffffffffffffff021916908373ffffffffffffffffffffffffffffffffffffffff160217905550336000806101000a81548173ffffffffffffffffffffffffffffffffffffffff021916908373ffffffffffffffffffffffffffffffffffffffff1602179055505050620002a7565b828054600181600116156101000203166002900490600052602060002090601f016020900481019282601f106200023b57805160ff19168380011785556200026c565b828001600101855582156200026c579182015b828111156200026b5782518255916020019190600101906200024e565b5b5090506200027b91906200027f565b5090565b620002a491905b80821115620002a057600081600090555060010162000286565b5090565b90565b614b5580620002b76000396000f3006080604052600436106100fc576000357c0100000000000000000000000000000000000000000000000000000000900463ffffffff1680630467456d1461010157806306fdde03146101325780631bdbee0a146101c25780633957e7a5146102055780633bc91dd21461026a57806343f8aa56146102c15780634c0bcfe5146102ee578063572a9a641461034557806381b34796146103f057806382045af5146104475780638da5cb5b14610472578063909aad2c146104c957806395d89b41146104f957806397304ced14610589578063c3b82f2b146105b6578063c4e41b22146105f9578063d6fcb04b14610624578063e9c02815146106a1575b600080fd5b34801561010d57600080fd5b5061011661071e565b604051808260ff1660ff16815260200191505060405180910390f35b34801561013e57600080fd5b50610147610731565b6040518080602001828103825283818151815260200191508051906020019080838360005b8381101561018757808201518184015260208101905061016c565b50505050905090810190601f1680156101b45780820380516001836020036101000a031916815260200191505b509250505060405180910390f35b3480156101ce57600080fd5b50610203600480360381019080803573ffffffffffffffffffffffffffffffffffffffff1690602001909291905050506107cf565b005b34801561021157600080fd5b50610250600480360381019080803573ffffffffffffffffffffffffffffffffffffffff16906020019092919080359060200190929190505050610b84565b604051808215151515815260200191505060405180910390f35b34801561027657600080fd5b506102ab600480360381019080803573ffffffffffffffffffffffffffffffffffffffff169060200190929190505050611143565b6040518082815260200191505060405180910390f35b3480156102cd57600080fd5b506102ec60048036038101908080359060200190929190505050611244565b005b3480156102fa57600080fd5b5061032f600480360381019080803573ffffffffffffffffffffffffffffffffffffffff169060200190929190505050611338565b6040518082815260200191505060405180910390f35b34801561035157600080fd5b506103d6600480360381019080803573ffffffffffffffffffffffffffffffffffffffff16906020019092919080359060200190929190803590602001908201803590602001908080601f0160208091040260200160405190810160405280939291908181526020018383808284378201915050505050509192919290505050611439565b604051808215151515815260200191505060405180910390f35b3480156103fc57600080fd5b50610431600480360381019080803573ffffffffffffffffffffffffffffffffffffffff169060200190929190505050611e0d565b6040518082815260200191505060405180910390f35b34801561045357600080fd5b5061045c611f0e565b6040518082815260200191505060405180910390f35b34801561047e57600080fd5b50610487611f14565b604051808273ffffffffffffffffffffffffffffffffffffffff1673ffffffffffffffffffffffffffffffffffffffff16815260200191505060405180910390f35b3480156104d557600080fd5b506104f7600480360381019080803560ff169060200190929190505050611f39565b005b34801561050557600080fd5b5061050e612041565b6040518080602001828103825283818151815260200191508051906020019080838360005b8381101561054e578082015181840152602081019050610533565b50505050905090810190601f16801561057b5780820380516001836020036101000a031916815260200191505b509250505060405180910390f35b34801561059557600080fd5b506105b4600480360381019080803590602001909291905050506120df565b005b3480156105c257600080fd5b506105f7600480360381019080803573ffffffffffffffffffffffffffffffffffffffff1690602001909291905050506125f4565b005b34801561060557600080fd5b5061060e612ce3565b6040518082815260200191505060405180910390f35b34801561063057600080fd5b50610687600480360381019080803573ffffffffffffffffffffffffffffffffffffffff16906020019092919080359060200190929190803590602001908201803590602001919091929391929390505050612dab565b604051808215151515815260200191505060405180910390f35b3480156106ad57600080fd5b5061071c600480360381019080803573ffffffffffffffffffffffffffffffffffffffff16906020019092919080359060200190929190803590602001908201803590602001919091929391929390803590602001908201803590602001919091929391929390505050613419565b005b600460009054906101000a900460ff1681565b60018054600181600116156101000203166002900480601f0160208091040260200160405190810160405280929190818152602001828054600181600116156101000203166002900480156107c75780601f1061079c576101008083540402835291602001916107c7565b820191906000526020600020905b8154815290600101906020018083116107aa57829003601f168201915b505050505081565b6000806000809054906101000a900473ffffffffffffffffffffffffffffffffffffffff1673ffffffffffffffffffffffffffffffffffffffff163373ffffffffffffffffffffffffffffffffffffffff161415156108bc576040517f08c379a000000000000000000000000000000000000000000000000000000000815260040180806020018281038252602d8152602001807f4f6e6c792074686520726f6f74206163636f756e742063616e2065786563757481526020017f65207468697320616374696f6e0000000000000000000000000000000000000081525060400191505060405180910390fd5b6108c583611338565b91506108d083611e0d565b905061091283836040805190810160405280600c81526020017f5472616e7366657261626c650000000000000000000000000000000000000000815250611439565b5061095383826040805190810160405280600881526020017f506572736f6e616c000000000000000000000000000000000000000000000000815250611439565b50610960620f42406120df565b610969836125f4565b600460019054906101000a900473ffffffffffffffffffffffffffffffffffffffff1673ffffffffffffffffffffffffffffffffffffffff166324d7806c846040518263ffffffff167c0100000000000000000000000000000000000000000000000000000000028152600401808273ffffffffffffffffffffffffffffffffffffffff1673ffffffffffffffffffffffffffffffffffffffff168152602001915050602060405180830381600087803b158015610a2657600080fd5b505af1158015610a3a573d6000803e3d6000fd5b505050506040513d6020811015610a5057600080fd5b810190808051906020019092919050505015610b3c57600460019054906101000a900473ffffffffffffffffffffffffffffffffffffffff1673ffffffffffffffffffffffffffffffffffffffff1663d1bd50ed846040518263ffffffff167c0100000000000000000000000000000000000000000000000000000000028152600401808273ffffffffffffffffffffffffffffffffffffffff1673ffffffffffffffffffffffffffffffffffffffff168152602001915050600060405180830381600087803b158015610b2357600080fd5b505af1158015610b37573d6000803e3d6000fd5b505050505b8273ffffffffffffffffffffffffffffffffffffffff167f162f46783fcc741c289a7af5bd16474ace09d7e8a9d5fe1ac0d37b12afc0ccac60405160405180910390a2505050565b6000600460019054906101000a900473ffffffffffffffffffffffffffffffffffffffff1673ffffffffffffffffffffffffffffffffffffffff166324d7806c336040518263ffffffff167c0100000000000000000000000000000000000000000000000000000000028152600401808273ffffffffffffffffffffffffffffffffffffffff1673ffffffffffffffffffffffffffffffffffffffff168152602001915050602060405180830381600087803b158015610c4357600080fd5b505af1158015610c57573d6000803e3d6000fd5b505050506040513d6020811015610c6d57600080fd5b81019080805190602001909291905050501515610d18576040517f08c379a00000000000000000000000000000000000000000000000000000000081526004018080602001828103825260238152602001807f4f6e6c792061646d696e732063616e206578656375746520746869732061637481526020017f696f6e000000000000000000000000000000000000000000000000000000000081525060400191505060405180910390fd5b600560009054906101000a900473ffffffffffffffffffffffffffffffffffffffff1673ffffffffffffffffffffffffffffffffffffffff1663a270c69084610e6185600560009054906101000a900473ffffffffffffffffffffffffffffffffffffffff1673ffffffffffffffffffffffffffffffffffffffff166381b34796896040518263ffffffff167c0100000000000000000000000000000000000000000000000000000000028152600401808273ffffffffffffffffffffffffffffffffffffffff1673ffffffffffffffffffffffffffffffffffffffff168152602001915050602060405180830381600087803b158015610e1857600080fd5b505af1158015610e2c573d6000803e3d6000fd5b505050506040513d6020811015610e4257600080fd5b810190808051906020019092919050505061371290919063ffffffff16565b6040518363ffffffff167c0100000000000000000000000000000000000000000000000000000000028152600401808373ffffffffffffffffffffffffffffffffffffffff1673ffffffffffffffffffffffffffffffffffffffff16815260200182815260200192505050600060405180830381600087803b158015610ee657600080fd5b505af1158015610efa573d6000803e3d6000fd5b50505050600560009054906101000a900473ffffffffffffffffffffffffffffffffffffffff1673ffffffffffffffffffffffffffffffffffffffff1663f7ea7a3d61100f84600560009054906101000a900473ffffffffffffffffffffffffffffffffffffffff1673ffffffffffffffffffffffffffffffffffffffff166318160ddd6040518163ffffffff167c0100000000000000000000000000000000000000000000000000000000028152600401602060405180830381600087803b158015610fc657600080fd5b505af1158015610fda573d6000803e3d6000fd5b505050506040513d6020811015610ff057600080fd5b810190808051906020019092919050505061371290919063ffffffff16565b6040518263ffffffff167c010000000000000000000000000000000000000000000000000000000002815260040180828152602001915050600060405180830381600087803b15801561106157600080fd5b505af1158015611075573d6000803e3d6000fd5b505050508273ffffffffffffffffffffffffffffffffffffffff167fc7fd3ef7ee498ebe6a01e4301f143a9fce50ad9557c045056f8455f1388d301383604051808281526020018060200180602001838103835260088152602001807f506572736f6e616c000000000000000000000000000000000000000000000000815250602001838103825260058152602001807f41646d696e000000000000000000000000000000000000000000000000000000815250602001935050505060405180910390a26001905092915050565b6000600560009054906101000a900473ffffffffffffffffffffffffffffffffffffffff1673ffffffffffffffffffffffffffffffffffffffff16633bc91dd2836040518263ffffffff167c0100000000000000000000000000000000000000000000000000000000028152600401808273ffffffffffffffffffffffffffffffffffffffff1673ffffffffffffffffffffffffffffffffffffffff168152602001915050602060405180830381600087803b15801561120257600080fd5b505af1158015611216573d6000803e3d6000fd5b505050506040513d602081101561122c57600080fd5b81019080805190602001909291905050509050919050565b6000809054906101000a900473ffffffffffffffffffffffffffffffffffffffff1673ffffffffffffffffffffffffffffffffffffffff163373ffffffffffffffffffffffffffffffffffffffff1614151561132e576040517f08c379a000000000000000000000000000000000000000000000000000000000815260040180806020018281038252602d8152602001807f4f6e6c792074686520726f6f74206163636f756e742063616e2065786563757481526020017f65207468697320616374696f6e0000000000000000000000000000000000000081525060400191505060405180910390fd5b8060038190555050565b6000600560009054906101000a900473ffffffffffffffffffffffffffffffffffffffff1673ffffffffffffffffffffffffffffffffffffffff16634c0bcfe5836040518263ffffffff167c0100000000000000000000000000000000000000000000000000000000028152600401808273ffffffffffffffffffffffffffffffffffffffff1673ffffffffffffffffffffffffffffffffffffffff168152602001915050602060405180830381600087803b1580156113f757600080fd5b505af115801561140b573d6000803e3d6000fd5b505050506040513d602081101561142157600080fd5b81019080805190602001909291905050509050919050565b60008060009054906101000a900473ffffffffffffffffffffffffffffffffffffffff1673ffffffffffffffffffffffffffffffffffffffff163373ffffffffffffffffffffffffffffffffffffffff16141515611525576040517f08c379a000000000000000000000000000000000000000000000000000000000815260040180806020018281038252602d8152602001807f4f6e6c792074686520726f6f74206163636f756e742063616e2065786563757481526020017f65207468697320616374696f6e0000000000000000000000000000000000000081525060400191505060405180910390fd5b73__Utilities_____________________________63bed34bba836040518263ffffffff167c0100000000000000000000000000000000000000000000000000000000028152600401808060200180602001838103835284818151815260200191508051906020019080838360005b838110156115af578082015181840152602081019050611594565b50505050905090810190601f1680156115dc5780820380516001836020036101000a031916815260200191505b508381038252600c8152602001807f5472616e7366657261626c650000000000000000000000000000000000000000815250602001935050505060206040518083038186803b15801561162e57600080fd5b505af4158015611642573d6000803e3d6000fd5b505050506040513d602081101561165857600080fd5b81019080805190602001909291905050501561185957600560009054906101000a900473ffffffffffffffffffffffffffffffffffffffff1673ffffffffffffffffffffffffffffffffffffffff1663957a4947856117b786600560009054906101000a900473ffffffffffffffffffffffffffffffffffffffff1673ffffffffffffffffffffffffffffffffffffffff16634c0bcfe58a6040518263ffffffff167c0100000000000000000000000000000000000000000000000000000000028152600401808273ffffffffffffffffffffffffffffffffffffffff1673ffffffffffffffffffffffffffffffffffffffff168152602001915050602060405180830381600087803b15801561176e57600080fd5b505af1158015611782573d6000803e3d6000fd5b505050506040513d602081101561179857600080fd5b810190808051906020019092919050505061371290919063ffffffff16565b6040518363ffffffff167c0100000000000000000000000000000000000000000000000000000000028152600401808373ffffffffffffffffffffffffffffffffffffffff1673ffffffffffffffffffffffffffffffffffffffff16815260200182815260200192505050600060405180830381600087803b15801561183c57600080fd5b505af1158015611850573d6000803e3d6000fd5b50505050611b93565b73__Utilities_____________________________63bed34bba836040518263ffffffff167c0100000000000000000000000000000000000000000000000000000000028152600401808060200180602001838103835284818151815260200191508051906020019080838360005b838110156118e35780820151818401526020810190506118c8565b50505050905090810190601f1680156119105780820380516001836020036101000a031916815260200191505b50838103825260088152602001807f506572736f6e616c000000000000000000000000000000000000000000000000815250602001935050505060206040518083038186803b15801561196257600080fd5b505af4158015611976573d6000803e3d6000fd5b505050506040513d602081101561198c57600080fd5b810190808051906020019092919050505015611b8d57600560009054906101000a900473ffffffffffffffffffffffffffffffffffffffff1673ffffffffffffffffffffffffffffffffffffffff1663a270c69085611aeb86600560009054906101000a900473ffffffffffffffffffffffffffffffffffffffff1673ffffffffffffffffffffffffffffffffffffffff166381b347968a6040518263ffffffff167c0100000000000000000000000000000000000000000000000000000000028152600401808273ffffffffffffffffffffffffffffffffffffffff1673ffffffffffffffffffffffffffffffffffffffff168152602001915050602060405180830381600087803b158015611aa257600080fd5b505af1158015611ab6573d6000803e3d6000fd5b505050506040513d6020811015611acc57600080fd5b810190808051906020019092919050505061371290919063ffffffff16565b6040518363ffffffff167c0100000000000000000000000000000000000000000000000000000000028152600401808373ffffffffffffffffffffffffffffffffffffffff1673ffffffffffffffffffffffffffffffffffffffff16815260200182815260200192505050600060405180830381600087803b158015611b7057600080fd5b505af1158015611b84573d6000803e3d6000fd5b50505050611b92565b600080fd5b5b600560009054906101000a900473ffffffffffffffffffffffffffffffffffffffff1673ffffffffffffffffffffffffffffffffffffffff1663f7ea7a3d611ca485600560009054906101000a900473ffffffffffffffffffffffffffffffffffffffff1673ffffffffffffffffffffffffffffffffffffffff166318160ddd6040518163ffffffff167c0100000000000000000000000000000000000000000000000000000000028152600401602060405180830381600087803b158015611c5b57600080fd5b505af1158015611c6f573d6000803e3d6000fd5b505050506040513d6020811015611c8557600080fd5b810190808051906020019092919050505061371290919063ffffffff16565b6040518263ffffffff167c010000000000000000000000000000000000000000000000000000000002815260040180828152602001915050600060405180830381600087803b158015611cf657600080fd5b505af1158015611d0a573d6000803e3d6000fd5b505050508373ffffffffffffffffffffffffffffffffffffffff167fc7fd3ef7ee498ebe6a01e4301f143a9fce50ad9557c045056f8455f1388d30138484604051808381526020018060200180602001838103835284818151815260200191508051906020019080838360005b83811015611d92578082015181840152602081019050611d77565b50505050905090810190601f168015611dbf5780820380516001836020036101000a031916815260200191505b50838103825260058152602001807f4f776e657200000000000000000000000000000000000000000000000000000081525060200194505050505060405180910390a2600190509392505050565b6000600560009054906101000a900473ffffffffffffffffffffffffffffffffffffffff1673ffffffffffffffffffffffffffffffffffffffff166381b34796836040518263ffffffff167c0100000000000000000000000000000000000000000000000000000000028152600401808273ffffffffffffffffffffffffffffffffffffffff1673ffffffffffffffffffffffffffffffffffffffff168152602001915050602060405180830381600087803b158015611ecc57600080fd5b505af1158015611ee0573d6000803e3d6000fd5b505050506040513d6020811015611ef657600080fd5b81019080805190602001909291905050509050919050565b60035481565b6000809054906101000a900473ffffffffffffffffffffffffffffffffffffffff1681565b6000809054906101000a900473ffffffffffffffffffffffffffffffffffffffff1673ffffffffffffffffffffffffffffffffffffffff163373ffffffffffffffffffffffffffffffffffffffff16141515612023576040517f08c379a000000000000000000000000000000000000000000000000000000000815260040180806020018281038252602d8152602001807f4f6e6c792074686520726f6f74206163636f756e742063616e2065786563757481526020017f65207468697320616374696f6e0000000000000000000000000000000000000081525060400191505060405180910390fd5b80600460006101000a81548160ff021916908360ff16021790555050565b60028054600181600116156101000203166002900480601f0160208091040260200160405190810160405280929190818152602001828054600181600116156101000203166002900480156120d75780601f106120ac576101008083540402835291602001916120d7565b820191906000526020600020905b8154815290600101906020018083116120ba57829003601f168201915b505050505081565b6000809054906101000a900473ffffffffffffffffffffffffffffffffffffffff1673ffffffffffffffffffffffffffffffffffffffff163373ffffffffffffffffffffffffffffffffffffffff161415156121c9576040517f08c379a000000000000000000000000000000000000000000000000000000000815260040180806020018281038252602d8152602001807f4f6e6c792074686520726f6f74206163636f756e742063616e2065786563757481526020017f65207468697320616374696f6e0000000000000000000000000000000000000081525060400191505060405180910390fd5b600560009054906101000a900473ffffffffffffffffffffffffffffffffffffffff1673ffffffffffffffffffffffffffffffffffffffff1663957a49476000809054906101000a900473ffffffffffffffffffffffffffffffffffffffff1661235484600560009054906101000a900473ffffffffffffffffffffffffffffffffffffffff1673ffffffffffffffffffffffffffffffffffffffff16634c0bcfe56000809054906101000a900473ffffffffffffffffffffffffffffffffffffffff166040518263ffffffff167c0100000000000000000000000000000000000000000000000000000000028152600401808273ffffffffffffffffffffffffffffffffffffffff1673ffffffffffffffffffffffffffffffffffffffff168152602001915050602060405180830381600087803b15801561230b57600080fd5b505af115801561231f573d6000803e3d6000fd5b505050506040513d602081101561233557600080fd5b810190808051906020019092919050505061379790919063ffffffff16565b6040518363ffffffff167c0100000000000000000000000000000000000000000000000000000000028152600401808373ffffffffffffffffffffffffffffffffffffffff1673ffffffffffffffffffffffffffffffffffffffff16815260200182815260200192505050600060405180830381600087803b1580156123d957600080fd5b505af11580156123ed573d6000803e3d6000fd5b50505050600560009054906101000a900473ffffffffffffffffffffffffffffffffffffffff1673ffffffffffffffffffffffffffffffffffffffff1663f7ea7a3d61250283600560009054906101000a900473ffffffffffffffffffffffffffffffffffffffff1673ffffffffffffffffffffffffffffffffffffffff166318160ddd6040518163ffffffff167c0100000000000000000000000000000000000000000000000000000000028152600401602060405180830381600087803b1580156124b957600080fd5b505af11580156124cd573d6000803e3d6000fd5b505050506040513d60208110156124e357600080fd5b810190808051906020019092919050505061379790919063ffffffff16565b6040518263ffffffff167c010000000000000000000000000000000000000000000000000000000002815260040180828152602001915050600060405180830381600087803b15801561255457600080fd5b505af1158015612568573d6000803e3d6000fd5b505050506000809054906101000a900473ffffffffffffffffffffffffffffffffffffffff1673ffffffffffffffffffffffffffffffffffffffff1660007fcd6e659e4c2e75c3bfe47fecaccf39aeb368116a0ee52afb532e07f6cba6c0d18360405180828152602001806020018281038252600081526020016020019250505060405180910390a350565b6000809054906101000a900473ffffffffffffffffffffffffffffffffffffffff1673ffffffffffffffffffffffffffffffffffffffff163373ffffffffffffffffffffffffffffffffffffffff161415156126de576040517f08c379a000000000000000000000000000000000000000000000000000000000815260040180806020018281038252602d8152602001807f4f6e6c792074686520726f6f74206163636f756e742063616e2065786563757481526020017f65207468697320616374696f6e0000000000000000000000000000000000000081525060400191505060405180910390fd5b600560009054906101000a900473ffffffffffffffffffffffffffffffffffffffff1673ffffffffffffffffffffffffffffffffffffffff16638d115dd9826040518263ffffffff167c0100000000000000000000000000000000000000000000000000000000028152600401808273ffffffffffffffffffffffffffffffffffffffff1673ffffffffffffffffffffffffffffffffffffffff168152602001915050600060405180830381600087803b15801561279b57600080fd5b505af11580156127af573d6000803e3d6000fd5b50505050600560009054906101000a900473ffffffffffffffffffffffffffffffffffffffff1673ffffffffffffffffffffffffffffffffffffffff1663957a49478261290e600460009054906101000a900460ff1660ff16600560009054906101000a900473ffffffffffffffffffffffffffffffffffffffff1673ffffffffffffffffffffffffffffffffffffffff16634c0bcfe5876040518263ffffffff167c0100000000000000000000000000000000000000000000000000000000028152600401808273ffffffffffffffffffffffffffffffffffffffff1673ffffffffffffffffffffffffffffffffffffffff168152602001915050602060405180830381600087803b1580156128c557600080fd5b505af11580156128d9573d6000803e3d6000fd5b505050506040513d60208110156128ef57600080fd5b810190808051906020019092919050505061379790919063ffffffff16565b6040518363ffffffff167c0100000000000000000000000000000000000000000000000000000000028152600401808373ffffffffffffffffffffffffffffffffffffffff1673ffffffffffffffffffffffffffffffffffffffff16815260200182815260200192505050600060405180830381600087803b15801561299357600080fd5b505af11580156129a7573d6000803e3d6000fd5b50505050600560009054906101000a900473ffffffffffffffffffffffffffffffffffffffff1673ffffffffffffffffffffffffffffffffffffffff1663957a49476000809054906101000a900473ffffffffffffffffffffffffffffffffffffffff16612b48600460009054906101000a900460ff1660ff16600560009054906101000a900473ffffffffffffffffffffffffffffffffffffffff1673ffffffffffffffffffffffffffffffffffffffff16634c0bcfe56000809054906101000a900473ffffffffffffffffffffffffffffffffffffffff166040518263ffffffff167c0100000000000000000000000000000000000000000000000000000000028152600401808273ffffffffffffffffffffffffffffffffffffffff1673ffffffffffffffffffffffffffffffffffffffff168152602001915050602060405180830381600087803b158015612aff57600080fd5b505af1158015612b13573d6000803e3d6000fd5b505050506040513d6020811015612b2957600080fd5b810190808051906020019092919050505061371290919063ffffffff16565b6040518363ffffffff167c0100000000000000000000000000000000000000000000000000000000028152600401808373ffffffffffffffffffffffffffffffffffffffff1673ffffffffffffffffffffffffffffffffffffffff16815260200182815260200192505050600060405180830381600087803b158015612bcd57600080fd5b505af1158015612be1573d6000803e3d6000fd5b505050508073ffffffffffffffffffffffffffffffffffffffff166108fc670de0b6b3a76400009081150290604051600060405180830381858888f19350505050158015612c33573d6000803e3d6000fd5b508073ffffffffffffffffffffffffffffffffffffffff166000809054906101000a900473ffffffffffffffffffffffffffffffffffffffff1673ffffffffffffffffffffffffffffffffffffffff167fcd6e659e4c2e75c3bfe47fecaccf39aeb368116a0ee52afb532e07f6cba6c0d1600460009054906101000a900460ff16604051808260ff168152602001806020018281038252600081526020016020019250505060405180910390a350565b6000600560009054906101000a900473ffffffffffffffffffffffffffffffffffffffff1673ffffffffffffffffffffffffffffffffffffffff166318160ddd6040518163ffffffff167c0100000000000000000000000000000000000000000000000000000000028152600401602060405180830381600087803b158015612d6b57600080fd5b505af1158015612d7f573d6000803e3d6000fd5b505050506040513d6020811015612d9557600080fd5b8101908080519060200190929190505050905090565b6000600460019054906101000a900473ffffffffffffffffffffffffffffffffffffffff1673ffffffffffffffffffffffffffffffffffffffff166324d7806c336040518263ffffffff167c0100000000000000000000000000000000000000000000000000000000028152600401808273ffffffffffffffffffffffffffffffffffffffff1673ffffffffffffffffffffffffffffffffffffffff168152602001915050602060405180830381600087803b158015612e6a57600080fd5b505af1158015612e7e573d6000803e3d6000fd5b505050506040513d6020811015612e9457600080fd5b81019080805190602001909291905050501515612f3f576040517f08c379a00000000000000000000000000000000000000000000000000000000081526004018080602001828103825260238152602001807f4f6e6c792061646d696e732063616e206578656375746520746869732061637481526020017f696f6e000000000000000000000000000000000000000000000000000000000081525060400191505060405180910390fd5b600460019054906101000a900473ffffffffffffffffffffffffffffffffffffffff1673ffffffffffffffffffffffffffffffffffffffff16630b7c7ae1336040518263ffffffff167c0100000000000000000000000000000000000000000000000000000000028152600401808273ffffffffffffffffffffffffffffffffffffffff1673ffffffffffffffffffffffffffffffffffffffff168152602001915050602060405180830381600087803b158015612ffc57600080fd5b505af1158015613010573d6000803e3d6000fd5b505050506040513d602081101561302657600080fd5b810190808051906020019092919050505084111515156130d4576040517f08c379a00000000000000000000000000000000000000000000000000000000081526004018080602001828103825260328152602001807f41646d696e2068617320657863656564656420746f74616c207472616e73666581526020017f7261626c6520746f6b656e73206c696d6974000000000000000000000000000081525060400191505060405180910390fd5b600460019054906101000a900473ffffffffffffffffffffffffffffffffffffffff1673ffffffffffffffffffffffffffffffffffffffff1663ddbbc5ca33876040518363ffffffff167c0100000000000000000000000000000000000000000000000000000000028152600401808373ffffffffffffffffffffffffffffffffffffffff1673ffffffffffffffffffffffffffffffffffffffff1681526020018273ffffffffffffffffffffffffffffffffffffffff1673ffffffffffffffffffffffffffffffffffffffff16815260200192505050602060405180830381600087803b1580156131c557600080fd5b505af11580156131d9573d6000803e3d6000fd5b505050506040513d60208110156131ef57600080fd5b8101908080519060200190929190505050841115151561329d576040517f08c379a000000000000000000000000000000000000000000000000000000000815260040180806020018281038252603a8152602001807f41646d696e20686173207472616e7366657272656420746f6f206d616e79207481526020017f6f6b656e7320746f2074686174207573657220616c726561647900000000000081525060400191505060405180910390fd5b600460019054906101000a900473ffffffffffffffffffffffffffffffffffffffff1673ffffffffffffffffffffffffffffffffffffffff16630b5563143387876040518463ffffffff167c0100000000000000000000000000000000000000000000000000000000028152600401808473ffffffffffffffffffffffffffffffffffffffff1673ffffffffffffffffffffffffffffffffffffffff1681526020018373ffffffffffffffffffffffffffffffffffffffff1673ffffffffffffffffffffffffffffffffffffffff1681526020018281526020019350505050600060405180830381600087803b15801561339657600080fd5b505af11580156133aa573d6000803e3d6000fd5b5050505061340d6000809054906101000a900473ffffffffffffffffffffffffffffffffffffffff16868686868080601f0160208091040260200160405190810160405280939291908181526020018383808284378201915050505050506137b3565b60019050949350505050565b73__Utilities_____________________________63bed34bba85856040518363ffffffff167c010000000000000000000000000000000000000000000000000000000002815260040180806020018060200183810383528585828181526020019250808284378201915050838103825260088152602001807f506572736f6e616c00000000000000000000000000000000000000000000000081525060200194505050505060206040518083038186803b1580156134d757600080fd5b505af41580156134eb573d6000803e3d6000fd5b505050506040513d602081101561350157600080fd5b81019080805190602001909291905050501561355a5761355533878785858080601f01602080910402602001604051908101604052809392919081815260200183838082843782019150505050505061416e565b61370a565b73__Utilities_____________________________63bed34bba85856040518363ffffffff167c0100000000000000000000000000000000000000000000000000000000028152600401808060200180602001838103835285858281815260200192508082843782019150508381038252600c8152602001807f5472616e7366657261626c65000000000000000000000000000000000000000081525060200194505050505060206040518083038186803b15801561361857600080fd5b505af415801561362c573d6000803e3d6000fd5b505050506040513d602081101561364257600080fd5b81019080805190602001909291905050501561369b5761369633878785858080601f0160208091040260200160405190810160405280939291908181526020018383808284378201915050505050506137b3565b613709565b6040517f08c379a000000000000000000000000000000000000000000000000000000000815260040180806020018281038252601e8152602001807f66726f6d42616c616e63652076616c7565206973206e6f742076616c6964000081525060200191505060405180910390fd5b5b505050505050565b600082821115151561378c576040517f08c379a000000000000000000000000000000000000000000000000000000000815260040180806020018281038252601e8152602001807f4e6f7420656e6f75676820746f6b656e7320666f72207472616e73666572000081525060200191505060405180910390fd5b818303905092915050565b600081830190508281101515156137aa57fe5b80905092915050565b83838360008273ffffffffffffffffffffffffffffffffffffffff1614151515613845576040517f08c379a00000000000000000000000000000000000000000000000000000000081526004018080602001828103825260188152602001807f496e76616c69642073656e64206164647265737320283029000000000000000081525060200191505060405180910390fd5b6000809054906101000a900473ffffffffffffffffffffffffffffffffffffffff1673ffffffffffffffffffffffffffffffffffffffff168373ffffffffffffffffffffffffffffffffffffffff16141515613a79576003546139dc82600560009054906101000a900473ffffffffffffffffffffffffffffffffffffffff1673ffffffffffffffffffffffffffffffffffffffff166325d8e0d387876040518363ffffffff167c0100000000000000000000000000000000000000000000000000000000028152600401808373ffffffffffffffffffffffffffffffffffffffff1673ffffffffffffffffffffffffffffffffffffffff1681526020018273ffffffffffffffffffffffffffffffffffffffff1673ffffffffffffffffffffffffffffffffffffffff16815260200192505050602060405180830381600087803b15801561399357600080fd5b505af11580156139a7573d6000803e3d6000fd5b505050506040513d60208110156139bd57600080fd5b810190808051906020019092919050505061379790919063ffffffff16565b11151515613a78576040517f08c379a00000000000000000000000000000000000000000000000000000000081526004018080602001828103825260328152602001807f596f752068617665207472616e7366657272656420746f6f206d75636820746f81526020017f2074686973207573657220616c7265616479000000000000000000000000000081525060400191505060405180910390fd5b5b600560009054906101000a900473ffffffffffffffffffffffffffffffffffffffff1673ffffffffffffffffffffffffffffffffffffffff1663957a494788613bc288600560009054906101000a900473ffffffffffffffffffffffffffffffffffffffff1673ffffffffffffffffffffffffffffffffffffffff16634c0bcfe58d6040518263ffffffff167c0100000000000000000000000000000000000000000000000000000000028152600401808273ffffffffffffffffffffffffffffffffffffffff1673ffffffffffffffffffffffffffffffffffffffff168152602001915050602060405180830381600087803b158015613b7957600080fd5b505af1158015613b8d573d6000803e3d6000fd5b505050506040513d6020811015613ba357600080fd5b810190808051906020019092919050505061371290919063ffffffff16565b6040518363ffffffff167c0100000000000000000000000000000000000000000000000000000000028152600401808373ffffffffffffffffffffffffffffffffffffffff1673ffffffffffffffffffffffffffffffffffffffff16815260200182815260200192505050600060405180830381600087803b158015613c4757600080fd5b505af1158015613c5b573d6000803e3d6000fd5b50505050600560009054906101000a900473ffffffffffffffffffffffffffffffffffffffff1673ffffffffffffffffffffffffffffffffffffffff1663a270c69087613da888600560009054906101000a900473ffffffffffffffffffffffffffffffffffffffff1673ffffffffffffffffffffffffffffffffffffffff166381b347968c6040518263ffffffff167c0100000000000000000000000000000000000000000000000000000000028152600401808273ffffffffffffffffffffffffffffffffffffffff1673ffffffffffffffffffffffffffffffffffffffff168152602001915050602060405180830381600087803b158015613d5f57600080fd5b505af1158015613d73573d6000803e3d6000fd5b505050506040513d6020811015613d8957600080fd5b810190808051906020019092919050505061379790919063ffffffff16565b6040518363ffffffff167c0100000000000000000000000000000000000000000000000000000000028152600401808373ffffffffffffffffffffffffffffffffffffffff1673ffffffffffffffffffffffffffffffffffffffff16815260200182815260200192505050600060405180830381600087803b158015613e2d57600080fd5b505af1158015613e41573d6000803e3d6000fd5b50505050600560009054906101000a900473ffffffffffffffffffffffffffffffffffffffff1673ffffffffffffffffffffffffffffffffffffffff16636007cf5b8888613fc389600560009054906101000a900473ffffffffffffffffffffffffffffffffffffffff1673ffffffffffffffffffffffffffffffffffffffff166325d8e0d38e8e6040518363ffffffff167c0100000000000000000000000000000000000000000000000000000000028152600401808373ffffffffffffffffffffffffffffffffffffffff1673ffffffffffffffffffffffffffffffffffffffff1681526020018273ffffffffffffffffffffffffffffffffffffffff1673ffffffffffffffffffffffffffffffffffffffff16815260200192505050602060405180830381600087803b158015613f7a57600080fd5b505af1158015613f8e573d6000803e3d6000fd5b505050506040513d6020811015613fa457600080fd5b810190808051906020019092919050505061379790919063ffffffff16565b6040518463ffffffff167c0100000000000000000000000000000000000000000000000000000000028152600401808473ffffffffffffffffffffffffffffffffffffffff1673ffffffffffffffffffffffffffffffffffffffff1681526020018373ffffffffffffffffffffffffffffffffffffffff1673ffffffffffffffffffffffffffffffffffffffff1681526020018281526020019350505050600060405180830381600087803b15801561407b57600080fd5b505af115801561408f573d6000803e3d6000fd5b505050508573ffffffffffffffffffffffffffffffffffffffff168773ffffffffffffffffffffffffffffffffffffffff167fcd6e659e4c2e75c3bfe47fecaccf39aeb368116a0ee52afb532e07f6cba6c0d187876040518083815260200180602001828103825283818151815260200191508051906020019080838360005b8381101561412a57808201518184015260208101905061410f565b50505050905090810190601f1680156141575780820380516001836020036101000a031916815260200191505b50935050505060405180910390a350505050505050565b83838360008273ffffffffffffffffffffffffffffffffffffffff1614151515614200576040517f08c379a00000000000000000000000000000000000000000000000000000000081526004018080602001828103825260188152602001807f496e76616c69642073656e64206164647265737320283029000000000000000081525060200191505060405180910390fd5b6000809054906101000a900473ffffffffffffffffffffffffffffffffffffffff1673ffffffffffffffffffffffffffffffffffffffff168373ffffffffffffffffffffffffffffffffffffffff161415156144345760035461439782600560009054906101000a900473ffffffffffffffffffffffffffffffffffffffff1673ffffffffffffffffffffffffffffffffffffffff166325d8e0d387876040518363ffffffff167c0100000000000000000000000000000000000000000000000000000000028152600401808373ffffffffffffffffffffffffffffffffffffffff1673ffffffffffffffffffffffffffffffffffffffff1681526020018273ffffffffffffffffffffffffffffffffffffffff1673ffffffffffffffffffffffffffffffffffffffff16815260200192505050602060405180830381600087803b15801561434e57600080fd5b505af1158015614362573d6000803e3d6000fd5b505050506040513d602081101561437857600080fd5b810190808051906020019092919050505061379790919063ffffffff16565b11151515614433576040517f08c379a00000000000000000000000000000000000000000000000000000000081526004018080602001828103825260328152602001807f596f752068617665207472616e7366657272656420746f6f206d75636820746f81526020017f2074686973207573657220616c7265616479000000000000000000000000000081525060400191505060405180910390fd5b5b600560009054906101000a900473ffffffffffffffffffffffffffffffffffffffff1673ffffffffffffffffffffffffffffffffffffffff1663a270c6908861457d88600560009054906101000a900473ffffffffffffffffffffffffffffffffffffffff1673ffffffffffffffffffffffffffffffffffffffff166381b347968d6040518263ffffffff167c0100000000000000000000000000000000000000000000000000000000028152600401808273ffffffffffffffffffffffffffffffffffffffff1673ffffffffffffffffffffffffffffffffffffffff168152602001915050602060405180830381600087803b15801561453457600080fd5b505af1158015614548573d6000803e3d6000fd5b505050506040513d602081101561455e57600080fd5b810190808051906020019092919050505061371290919063ffffffff16565b6040518363ffffffff167c0100000000000000000000000000000000000000000000000000000000028152600401808373ffffffffffffffffffffffffffffffffffffffff1673ffffffffffffffffffffffffffffffffffffffff16815260200182815260200192505050600060405180830381600087803b15801561460257600080fd5b505af1158015614616573d6000803e3d6000fd5b50505050600560009054906101000a900473ffffffffffffffffffffffffffffffffffffffff1673ffffffffffffffffffffffffffffffffffffffff1663a270c6908761476388600560009054906101000a900473ffffffffffffffffffffffffffffffffffffffff1673ffffffffffffffffffffffffffffffffffffffff166381b347968c6040518263ffffffff167c0100000000000000000000000000000000000000000000000000000000028152600401808273ffffffffffffffffffffffffffffffffffffffff1673ffffffffffffffffffffffffffffffffffffffff168152602001915050602060405180830381600087803b15801561471a57600080fd5b505af115801561472e573d6000803e3d6000fd5b505050506040513d602081101561474457600080fd5b810190808051906020019092919050505061379790919063ffffffff16565b6040518363ffffffff167c0100000000000000000000000000000000000000000000000000000000028152600401808373ffffffffffffffffffffffffffffffffffffffff1673ffffffffffffffffffffffffffffffffffffffff16815260200182815260200192505050600060405180830381600087803b1580156147e857600080fd5b505af11580156147fc573d6000803e3d6000fd5b50505050600560009054906101000a900473ffffffffffffffffffffffffffffffffffffffff1673ffffffffffffffffffffffffffffffffffffffff16636007cf5b888861497e89600560009054906101000a900473ffffffffffffffffffffffffffffffffffffffff1673ffffffffffffffffffffffffffffffffffffffff166325d8e0d38e8e6040518363ffffffff167c0100000000000000000000000000000000000000000000000000000000028152600401808373ffffffffffffffffffffffffffffffffffffffff1673ffffffffffffffffffffffffffffffffffffffff1681526020018273ffffffffffffffffffffffffffffffffffffffff1673ffffffffffffffffffffffffffffffffffffffff16815260200192505050602060405180830381600087803b15801561493557600080fd5b505af1158015614949573d6000803e3d6000fd5b505050506040513d602081101561495f57600080fd5b810190808051906020019092919050505061379790919063ffffffff16565b6040518463ffffffff167c0100000000000000000000000000000000000000000000000000000000028152600401808473ffffffffffffffffffffffffffffffffffffffff1673ffffffffffffffffffffffffffffffffffffffff1681526020018373ffffffffffffffffffffffffffffffffffffffff1673ffffffffffffffffffffffffffffffffffffffff1681526020018281526020019350505050600060405180830381600087803b158015614a3657600080fd5b505af1158015614a4a573d6000803e3d6000fd5b505050508573ffffffffffffffffffffffffffffffffffffffff168773ffffffffffffffffffffffffffffffffffffffff167fcd6e659e4c2e75c3bfe47fecaccf39aeb368116a0ee52afb532e07f6cba6c0d187876040518083815260200180602001828103825283818151815260200191508051906020019080838360005b83811015614ae5578082015181840152602081019050614aca565b50505050905090810190601f168015614b125780820380516001836020036101000a031916815260200191505b50935050505060405180910390a3505050505050505600a165627a7a72305820702ca7ec8a03a46e34f9d4c13435ffebe8a05538faa9fe2bf60f8d1c874d86b10029",
  "source": "pragma solidity ^0.4.24;\n\nimport \"./Utilities.sol\";\nimport \"./Admin.sol\";\nimport \"./Owned.sol\";\nimport \"./Storage/OhanaCoinStorage.sol\";\n\n\ncontract OhanaCoin is Owned {\n    \n    // Check for some conditions before transferring any coins\n    modifier transferChecks(address _from, address _to, uint256 _value) {\n        // Prevent transfer to 0x0 address. Use burn() instead\n        require(_to != 0x0, \"Invalid send address (0)\");\n        // Check if sender has transferred too much already\n        if (_from != owner)\n            require(coinStorage.getUserTransferAmount(_from, _to).add(_value) <= userTransferAmountLimit, \n                \"You have transferred too much to this user already\");\n        _;\n    }\n\n    modifier onlyAdmin {\n        require(admin.isAdmin(msg.sender), \"Only admins can execute this action\");\n        _;\n    }\n    \n    // Public variables of the token\n    string public name = \"OhanaCoin\";\n    string public symbol = \"OHN\";\n    uint256 public userTransferAmountLimit = 15; // How many coins a user can transfer total to another user in a given month\n    // uint8 public userTransactionsLimit = 3; // How many transactions a user can make each month\n    uint8 public monthlyAllowance = 30; // Monthly allowance of coins to users\n    // uint256 public etherAmount = 1000; // How much ether is allocated to each user each month\n    Admin admin;\n    OhanaCoinStorage coinStorage;\n\n    \n    // This generates a public event on the blockchain that will notify clients (transaction)\n    event Transfer(address indexed from, address indexed to, uint256 value, string message);\n    event Burn(address indexed from, uint256 value, string balanceType, string burnType);\n    event Reset(address indexed to);\n    event Error(string message);\n        \n    /**\n     * Constrctor function\n     *\n     * Initializes contract with initial supply tokens to the creator of the contract and ether\n     */\n    constructor(address adminContract, address storageContract) public payable {\n        admin = Admin(adminContract); // Create an instance of the deployed Admin contract\n        coinStorage = OhanaCoinStorage(storageContract); // Create an instance of the storage\n        owner = msg.sender;                                     // Owner will mint new coins every month\n    }\n    \n    /**\n     * Internal transfer, only can be called by this contract. The tokens are transferred \n     * from the _from address's transferable balance to the _to address's transferable \n     * balance. This facilitates user to user transactions.\n     * \n     * @param _from The address of the sender\n     * @param _to The address of the recipient\n     * @param _value The amount to send\n     * @param _message The message to send along with the transfer\n     */\n    function _transferableToPersonal(address _from, address _to, uint _value, string _message) internal transferChecks(_from, _to, _value) {\n        // Subtract from the sender\n        coinStorage.setTransferableBalance(_from, coinStorage.getTransferableBalance(_from).sub(_value)); // using safemath library\n        // balanceOf[_from].transferableBalance = balanceOf[_from].transferableBalance.sub(_value); \n        // Add the same to the recipient\n        coinStorage.setPersonalBalance(_to, coinStorage.getPersonalBalance(_to).add(_value));\n        // coinStorage.setNumTransfers(_from, coinStorage.getNumTransfers(_from) + 1);\n        coinStorage.setUserTransferAmount(_from, _to, coinStorage.getUserTransferAmount(_from, _to).add(_value));\n        emit Transfer(_from, _to, _value, _message);\n    }\n    \n\n    /**\n     * Internal transfer, only can be called by this contract. The tokens are transfered \n     * to the _to address's personal balance. This facilitates user to user transactions.\n     * \n     * @param _from The address of the sender\n     * @param _to The address of the recipient\n     * @param _value The amount to send\n     * @param _message The message to send along with the transfer\n     */\n    function _personalToPersonal(address _from, address _to, uint _value, string _message) internal transferChecks(_from, _to, _value) {\n         // Subtract from the sender\n        coinStorage.setPersonalBalance(_from, coinStorage.getPersonalBalance(_from).sub(_value));\n        // Add the same to the recipient\n        coinStorage.setPersonalBalance(_to, coinStorage.getPersonalBalance(_to).add(_value));\n        // coinStorage.setNumTransfers(_from, coinStorage.getNumTransfers(_from) + 1);\n        coinStorage.setUserTransferAmount(_from, _to, coinStorage.getUserTransferAmount(_from, _to).add(_value));\n        emit Transfer(_from, _to, _value, _message);\n    }\n    \n    /**\n     * Transfer tokens to either the personal or transferable balance\n     *\n     * Send `_value` tokens to `_to` from your account\n     *\n     * @param _to The address of the recipient\n     * @param _value The amount to send\n     * @param fromBalance Which balance to withdraw from (Personal or Transferable)\n     * @param _message The message to send along with the transfer\n     */\n    function transfer(address _to, uint256 _value, string fromBalance, string _message) external {\n        if (Utilities.compareStrings(fromBalance, \"Personal\"))  \n            _personalToPersonal(msg.sender, _to, _value, _message);\n        else if (Utilities.compareStrings(fromBalance, \"Transferable\"))\n            _transferableToPersonal(msg.sender, _to, _value, _message);\n        else\n            revert(\"fromBalance value is not valid\");\n    }\n    \n     /**\n     * Transfer tokens from other address\n     *\n     * Send `_value` tokens to `_to` on behalf of msg.sender\n     *\n     * @param _to The address of the recipient\n     * @param _value The amount to send\n     * @param _message The message to send along with the transfer\n     */\n    function transferFrom(address _to, uint256 _value, string _message) external onlyAdmin returns (bool) {\n        require(_value <= admin.getAdminTransferableBalance(msg.sender), \"Admin has exceeded total transferable tokens limit\");   \n        require(_value <= admin.getAdminUserAllowance(msg.sender, _to), \"Admin has transferred too many tokens to that user already\");  \n        admin.reduceAdminTransferAllowance(msg.sender, _to, _value); // Update the balances/allownances\n        _transferableToPersonal(owner, _to, _value, _message);         // Transfer to spending balance\n        return true;\n    }\n\n    /**\n     * Destroy tokens from _from account (only admins can execute this, for redeeming prizes)\n     *\n     * Remove `_value` tokens from the system irreversibly on behalf of `_from`.\n     *\n     * @param _from The address of the user to burn tokens from\n     * @param _value The amount of tokens to burn\n     */\n    function adminBurnFrom(address _from, uint256 _value) external onlyAdmin returns (bool) {\n        coinStorage.setPersonalBalance(_from, coinStorage.getPersonalBalance(_from).sub(_value));\n        coinStorage.setTotalSupply(coinStorage.totalSupply().sub(_value));\n        emit Burn(_from, _value, \"Personal\", \"Admin\");\n        return true;\n    }   \n    \n    /**\n     * Destroy tokens from _from account (only owner can execute this, is a scheduled burn)\n     *\n     * Remove `_value` tokens from the system irreversibly on behalf of `_from`.\n     *\n     * @param _from The address of the user to burn tokens from\n     * @param _value The amount of money to burn\n     * @param balanceType Which balance to burn from (Transferable or Personal)\n     */\n    function ownerBurnFrom(address _from, uint256 _value, string balanceType) public onlyOwner returns (bool) {\n        if (Utilities.compareStrings(balanceType, \"Transferable\")) {    // Subtract from the targeted balance\n            coinStorage.setTransferableBalance(_from, coinStorage.getTransferableBalance(_from).sub(_value));\n        }\n        else if (Utilities.compareStrings(balanceType, \"Personal\")) {\n            coinStorage.setPersonalBalance(_from, coinStorage.getPersonalBalance(_from).sub(_value));\n        }\n        else { \n            revert();\n        }\n        coinStorage.setTotalSupply(coinStorage.totalSupply().sub(_value)); // Update totalSupply\n        emit Burn(_from, _value, balanceType, \"Owner\");\n        return true;\n    }\n\n    /** Burn balances, deposit monthly allowance and reset admin allowances. Called every four months\n    *\n    * @param _to The address to reset balances of\n    */\n    function resetBalances(address _to) external onlyOwner {\n        // Burn the users balances\n        uint256 transferableBalance = getTransferableBalance(_to);\n        uint256 personalBalance = getPersonalBalance(_to);\n        ownerBurnFrom(_to, transferableBalance, \"Transferable\");\n        ownerBurnFrom(_to, personalBalance, \"Personal\");\n        mintTokens(1000000); //add more tokens to the common pool\n        depositAllowance(_to); // deposit the monthlyAllowance as well\n        if (admin.isAdmin(_to)) {\n            // if user is an admin, reset his/her allowances as well\n            admin.resetAllowances(_to);\n        }\n        emit Reset(_to);\n    }\n\n    /**\n    * Every month, every root account deposits monthlyAllowance tokens into user's transfer balance\n    *\n    * @param _to The address to deposit the allowance to\n    */\n    function depositAllowance(address _to) public onlyOwner {\n        // coinStorage.setNumTransfers(_to, 0); //reset the number of transfers\n        coinStorage.resetTransferredUsers(_to); //reset the record of who _to has transferred to in the past month\n        coinStorage.setTransferableBalance(_to, coinStorage.getTransferableBalance(_to).add(monthlyAllowance));\n        coinStorage.setTransferableBalance(owner, coinStorage.getTransferableBalance(owner).sub(monthlyAllowance));\n        _to.transfer(1 ether); // transfer ether to user to cover gas costs of transactions\n        emit Transfer(owner, _to, monthlyAllowance, \"\");\n    }\n    \n    /**\n     * Owner of contract can mint new tokens\n     * \n     * @param mintAmount The amount to create\n     */\n    function mintTokens(uint256 mintAmount) public onlyOwner {\n        coinStorage.setTransferableBalance(owner, coinStorage.getTransferableBalance(owner).add(mintAmount));\n        coinStorage.setTotalSupply(coinStorage.totalSupply().add(mintAmount));\n        emit Transfer(0, owner, mintAmount, \"\");\n    }\n\n    // function setUserTransactionsLimit(uint8 limit) external onlyOwner {\n    //     userTransactionsLimit = limit;\n    // }\n\n    function setUserTransferAmountLimit(uint256 limit) external onlyOwner {\n        userTransferAmountLimit = limit;\n    }\n\n    function setMonthlyAllowance(uint8 value) external onlyOwner {\n        monthlyAllowance = value;\n    }\n\n    function getTransferableBalance(address user) public view returns (uint256) {\n        return coinStorage.getTransferableBalance(user);\n    }\n\n    function getPersonalBalance(address user) public view returns (uint256) {\n        return coinStorage.getPersonalBalance(user);\n    }\n\n    // function getNumTransfers(address user) external view returns (uint8) {\n    //     return coinStorage.getNumTransfers(user);\n    // }\n\n    function getNumTransferredUsers(address user) external view returns (uint256) {\n        return coinStorage.getNumTransferredUsers(user);\n    }\n\n    function getTotalSupply() external view returns (uint256) {\n        return coinStorage.totalSupply();\n    }\n\n    /** \n    * Fallback function to prevent accidental sending of ether to this contract\n    */\n    function () public payable {\n        revert();\n    }\n    \n}",
  "sourcePath": "/Users/byue/Desktop/truffle/contracts/OhanaCoin.sol",
  "compiler": {
    "name": "solc",
    "version": "0.4.24+commit.e67f0147.Emscripten.clang"
  },
  "schemaVersion": "2.0.0",
  "updatedAt": "2018-07-13T21:24:13.392Z"
}