{
  "contractName": "OhanaCoinStorage",
  "abi": [
    {
      "constant": true,
      "inputs": [],
      "name": "totalSupply",
      "outputs": [
        {
          "name": "",
          "type": "uint256"
        }
      ],
      "payable": false,
      "stateMutability": "view",
      "type": "function"
    },
    {
      "constant": true,
      "inputs": [
        {
          "name": "",
          "type": "address"
        }
      ],
      "name": "balanceOf",
      "outputs": [
        {
          "name": "personalBalance",
          "type": "uint256"
        },
        {
          "name": "transferableBalance",
          "type": "uint256"
        },
        {
          "name": "balancesStartIndex",
          "type": "uint256"
        }
      ],
      "payable": false,
      "stateMutability": "view",
      "type": "function"
    },
    {
      "constant": true,
      "inputs": [
        {
          "name": "",
          "type": "address"
        }
      ],
      "name": "accessAllowed",
      "outputs": [
        {
          "name": "",
          "type": "bool"
        }
      ],
      "payable": false,
      "stateMutability": "view",
      "type": "function"
    },
    {
      "inputs": [
        {
          "name": "initialSupply",
          "type": "uint256"
        }
      ],
      "payable": false,
      "stateMutability": "nonpayable",
      "type": "constructor"
    },
    {
      "constant": false,
      "inputs": [
        {
          "name": "_address",
          "type": "address"
        }
      ],
      "name": "allowAccess",
      "outputs": [],
      "payable": false,
      "stateMutability": "nonpayable",
      "type": "function"
    },
    {
      "constant": false,
      "inputs": [
        {
          "name": "_address",
          "type": "address"
        }
      ],
      "name": "denyAccess",
      "outputs": [],
      "payable": false,
      "stateMutability": "nonpayable",
      "type": "function"
    },
    {
      "constant": true,
      "inputs": [
        {
          "name": "user",
          "type": "address"
        }
      ],
      "name": "getTransferableBalance",
      "outputs": [
        {
          "name": "",
          "type": "uint256"
        }
      ],
      "payable": false,
      "stateMutability": "view",
      "type": "function"
    },
    {
      "constant": true,
      "inputs": [
        {
          "name": "user",
          "type": "address"
        }
      ],
      "name": "getPersonalBalance",
      "outputs": [
        {
          "name": "",
          "type": "uint256"
        }
      ],
      "payable": false,
      "stateMutability": "view",
      "type": "function"
    },
    {
      "constant": true,
      "inputs": [
        {
          "name": "from",
          "type": "address"
        },
        {
          "name": "to",
          "type": "address"
        }
      ],
      "name": "getUserTransferredAmount",
      "outputs": [
        {
          "name": "",
          "type": "uint256"
        }
      ],
      "payable": false,
      "stateMutability": "view",
      "type": "function"
    },
    {
      "constant": true,
      "inputs": [
        {
          "name": "user",
          "type": "address"
        }
      ],
      "name": "getTransferredUsers",
      "outputs": [
        {
          "name": "",
          "type": "address[]"
        }
      ],
      "payable": false,
      "stateMutability": "view",
      "type": "function"
    },
    {
      "constant": true,
      "inputs": [
        {
          "name": "user",
          "type": "address"
        }
      ],
      "name": "getPastBalances",
      "outputs": [
        {
          "name": "",
          "type": "uint256[]"
        },
        {
          "name": "",
          "type": "uint256"
        }
      ],
      "payable": false,
      "stateMutability": "view",
      "type": "function"
    },
    {
      "constant": false,
      "inputs": [
        {
          "name": "from",
          "type": "address"
        },
        {
          "name": "to",
          "type": "address"
        },
        {
          "name": "value",
          "type": "uint256"
        }
      ],
      "name": "setUserTransferAmount",
      "outputs": [],
      "payable": false,
      "stateMutability": "nonpayable",
      "type": "function"
    },
    {
      "constant": false,
      "inputs": [
        {
          "name": "user",
          "type": "address"
        },
        {
          "name": "amount",
          "type": "uint256"
        }
      ],
      "name": "setTransferableBalance",
      "outputs": [],
      "payable": false,
      "stateMutability": "nonpayable",
      "type": "function"
    },
    {
      "constant": false,
      "inputs": [
        {
          "name": "user",
          "type": "address"
        },
        {
          "name": "amount",
          "type": "uint256"
        }
      ],
      "name": "setPersonalBalance",
      "outputs": [],
      "payable": false,
      "stateMutability": "nonpayable",
      "type": "function"
    },
    {
      "constant": false,
      "inputs": [
        {
          "name": "amount",
          "type": "uint256"
        }
      ],
      "name": "setTotalSupply",
      "outputs": [],
      "payable": false,
      "stateMutability": "nonpayable",
      "type": "function"
    },
    {
      "constant": false,
      "inputs": [
        {
          "name": "user",
          "type": "address"
        }
      ],
      "name": "storeBalance",
      "outputs": [],
      "payable": false,
      "stateMutability": "nonpayable",
      "type": "function"
    },
    {
      "constant": false,
      "inputs": [
        {
          "name": "user",
          "type": "address"
        }
      ],
      "name": "resetTransferredUsers",
      "outputs": [],
      "payable": false,
      "stateMutability": "nonpayable",
      "type": "function"
    }
  ],
  "bytecode": "0x608060405234801561001057600080fd5b5060405160208061145b8339810180604052810190808051906020019092919050505060018060003373ffffffffffffffffffffffffffffffffffffffff1673ffffffffffffffffffffffffffffffffffffffff16815260200190815260200160002060006101000a81548160ff021916908315150217905550806002819055506002546000803373ffffffffffffffffffffffffffffffffffffffff1673ffffffffffffffffffffffffffffffffffffffff1681526020019081526020016000206001018190555050611372806100e96000396000f3006080604052600436106100e6576000357c0100000000000000000000000000000000000000000000000000000000900463ffffffff16806318160ddd146100eb578063221be633146101165780634c0bcfe5146101b55780636007cf5b1461020c57806361afd5ac1461027957806370a08231146102bc578063725019761461032157806381b347961461037c5780638d115dd9146103d3578063957a494714610416578063a270c69014610463578063be6e7dee146104b0578063c4a85bc114610527578063d0b906161461056a578063ea447a32146105ad578063f7ea7a3d14610645575b600080fd5b3480156100f757600080fd5b50610100610672565b6040518082815260200191505060405180910390f35b34801561012257600080fd5b50610157600480360381019080803573ffffffffffffffffffffffffffffffffffffffff169060200190929190505050610678565b6040518080602001838152602001828103825284818151815260200191508051906020019060200280838360005b838110156101a0578082015181840152602081019050610185565b50505050905001935050505060405180910390f35b3480156101c157600080fd5b506101f6600480360381019080803573ffffffffffffffffffffffffffffffffffffffff16906020019092919050505061075a565b6040518082815260200191505060405180910390f35b34801561021857600080fd5b50610277600480360381019080803573ffffffffffffffffffffffffffffffffffffffff169060200190929190803573ffffffffffffffffffffffffffffffffffffffff169060200190929190803590602001909291905050506107a5565b005b34801561028557600080fd5b506102ba600480360381019080803573ffffffffffffffffffffffffffffffffffffffff1690602001909291905050506109b2565b005b3480156102c857600080fd5b506102fd600480360381019080803573ffffffffffffffffffffffffffffffffffffffff169060200190929190505050610a65565b60405180848152602001838152602001828152602001935050505060405180910390f35b34801561032d57600080fd5b50610362600480360381019080803573ffffffffffffffffffffffffffffffffffffffff169060200190929190505050610a8f565b604051808215151515815260200191505060405180910390f35b34801561038857600080fd5b506103bd600480360381019080803573ffffffffffffffffffffffffffffffffffffffff169060200190929190505050610aaf565b6040518082815260200191505060405180910390f35b3480156103df57600080fd5b50610414600480360381019080803573ffffffffffffffffffffffffffffffffffffffff169060200190929190505050610afa565b005b34801561042257600080fd5b50610461600480360381019080803573ffffffffffffffffffffffffffffffffffffffff16906020019092919080359060200190929190505050610d02565b005b34801561046f57600080fd5b506104ae600480360381019080803573ffffffffffffffffffffffffffffffffffffffff16906020019092919080359060200190929190505050610da4565b005b3480156104bc57600080fd5b50610511600480360381019080803573ffffffffffffffffffffffffffffffffffffffff169060200190929190803573ffffffffffffffffffffffffffffffffffffffff169060200190929190505050610e46565b6040518082815260200191505060405180910390f35b34801561053357600080fd5b50610568600480360381019080803573ffffffffffffffffffffffffffffffffffffffff169060200190929190505050610ecf565b005b34801561057657600080fd5b506105ab600480360381019080803573ffffffffffffffffffffffffffffffffffffffff169060200190929190505050610f81565b005b3480156105b957600080fd5b506105ee600480360381019080803573ffffffffffffffffffffffffffffffffffffffff1690602001909291905050506111cf565b6040518080602001828103825283818151815260200191508051906020019060200280838360005b83811015610631578082015181840152602081019050610616565b505050509050019250505060405180910390f35b34801561065157600080fd5b506106706004803603810190808035906020019092919050505061129e565b005b60025481565b606060008060008473ffffffffffffffffffffffffffffffffffffffff1673ffffffffffffffffffffffffffffffffffffffff1681526020019081526020016000206004016000808573ffffffffffffffffffffffffffffffffffffffff1673ffffffffffffffffffffffffffffffffffffffff168152602001908152602001600020600501548180548060200260200160405190810160405280929190818152602001828054801561074a57602002820191906000526020600020905b815481526020019060010190808311610736575b5050505050915091509150915091565b60008060008373ffffffffffffffffffffffffffffffffffffffff1673ffffffffffffffffffffffffffffffffffffffff168152602001908152602001600020600101549050919050565b600160003373ffffffffffffffffffffffffffffffffffffffff1673ffffffffffffffffffffffffffffffffffffffff16815260200190815260200160002060009054906101000a900460ff1615156107fd57600080fd5b60008060008573ffffffffffffffffffffffffffffffffffffffff1673ffffffffffffffffffffffffffffffffffffffff16815260200190815260200160002060020160008473ffffffffffffffffffffffffffffffffffffffff1673ffffffffffffffffffffffffffffffffffffffff16815260200190815260200160002054141561092a576000808473ffffffffffffffffffffffffffffffffffffffff1673ffffffffffffffffffffffffffffffffffffffff1681526020019081526020016000206003018290806001815401808255809150509060018203906000526020600020016000909192909190916101000a81548173ffffffffffffffffffffffffffffffffffffffff021916908373ffffffffffffffffffffffffffffffffffffffff160217905550505b806000808573ffffffffffffffffffffffffffffffffffffffff1673ffffffffffffffffffffffffffffffffffffffff16815260200190815260200160002060020160008473ffffffffffffffffffffffffffffffffffffffff1673ffffffffffffffffffffffffffffffffffffffff16815260200190815260200160002081905550505050565b600160003373ffffffffffffffffffffffffffffffffffffffff1673ffffffffffffffffffffffffffffffffffffffff16815260200190815260200160002060009054906101000a900460ff161515610a0a57600080fd5b6000600160008373ffffffffffffffffffffffffffffffffffffffff1673ffffffffffffffffffffffffffffffffffffffff16815260200190815260200160002060006101000a81548160ff02191690831515021790555050565b60006020528060005260406000206000915090508060000154908060010154908060050154905083565b60016020528060005260406000206000915054906101000a900460ff1681565b60008060008373ffffffffffffffffffffffffffffffffffffffff1673ffffffffffffffffffffffffffffffffffffffff168152602001908152602001600020600001549050919050565b600080600160003373ffffffffffffffffffffffffffffffffffffffff1673ffffffffffffffffffffffffffffffffffffffff16815260200190815260200160002060009054906101000a900460ff161515610b5557600080fd5b600091505b6000808473ffffffffffffffffffffffffffffffffffffffff1673ffffffffffffffffffffffffffffffffffffffff16815260200190815260200160002060030180549050821015610cb0576000808473ffffffffffffffffffffffffffffffffffffffff1673ffffffffffffffffffffffffffffffffffffffff16815260200190815260200160002060030182815481101515610bf457fe5b9060005260206000200160009054906101000a900473ffffffffffffffffffffffffffffffffffffffff1690506000808473ffffffffffffffffffffffffffffffffffffffff1673ffffffffffffffffffffffffffffffffffffffff16815260200190815260200160002060020160008273ffffffffffffffffffffffffffffffffffffffff1673ffffffffffffffffffffffffffffffffffffffff168152602001908152602001600020600090558180600101925050610b5a565b6000808473ffffffffffffffffffffffffffffffffffffffff1673ffffffffffffffffffffffffffffffffffffffff1681526020019081526020016000206003016000610cfd9190611300565b505050565b600160003373ffffffffffffffffffffffffffffffffffffffff1673ffffffffffffffffffffffffffffffffffffffff16815260200190815260200160002060009054906101000a900460ff161515610d5a57600080fd5b806000808473ffffffffffffffffffffffffffffffffffffffff1673ffffffffffffffffffffffffffffffffffffffff168152602001908152602001600020600101819055505050565b600160003373ffffffffffffffffffffffffffffffffffffffff1673ffffffffffffffffffffffffffffffffffffffff16815260200190815260200160002060009054906101000a900460ff161515610dfc57600080fd5b806000808473ffffffffffffffffffffffffffffffffffffffff1673ffffffffffffffffffffffffffffffffffffffff168152602001908152602001600020600001819055505050565b60008060008473ffffffffffffffffffffffffffffffffffffffff1673ffffffffffffffffffffffffffffffffffffffff16815260200190815260200160002060020160008373ffffffffffffffffffffffffffffffffffffffff1673ffffffffffffffffffffffffffffffffffffffff16815260200190815260200160002054905092915050565b600160003373ffffffffffffffffffffffffffffffffffffffff1673ffffffffffffffffffffffffffffffffffffffff16815260200190815260200160002060009054906101000a900460ff161515610f2757600080fd5b60018060008373ffffffffffffffffffffffffffffffffffffffff1673ffffffffffffffffffffffffffffffffffffffff16815260200190815260200160002060006101000a81548160ff02191690831515021790555050565b600080600160003373ffffffffffffffffffffffffffffffffffffffff1673ffffffffffffffffffffffffffffffffffffffff16815260200190815260200160002060009054906101000a900460ff161515610fdc57600080fd5b6000808473ffffffffffffffffffffffffffffffffffffffff1673ffffffffffffffffffffffffffffffffffffffff1681526020019081526020016000206004018054905091506000808473ffffffffffffffffffffffffffffffffffffffff1673ffffffffffffffffffffffffffffffffffffffff168152602001908152602001600020600501549050600a8210151561111e576000808473ffffffffffffffffffffffffffffffffffffffff1673ffffffffffffffffffffffffffffffffffffffff168152602001908152602001600020600401818154811015156110bf57fe5b906000526020600020016000905560016000808573ffffffffffffffffffffffffffffffffffffffff1673ffffffffffffffffffffffffffffffffffffffff168152602001908152602001600020600501600082825401925050819055505b6000808473ffffffffffffffffffffffffffffffffffffffff1673ffffffffffffffffffffffffffffffffffffffff1681526020019081526020016000206004016000808573ffffffffffffffffffffffffffffffffffffffff1673ffffffffffffffffffffffffffffffffffffffff168152602001908152602001600020600001549080600181540180825580915050906001820390600052602060002001600090919290919091505550505050565b60606000808373ffffffffffffffffffffffffffffffffffffffff1673ffffffffffffffffffffffffffffffffffffffff16815260200190815260200160002060030180548060200260200160405190810160405280929190818152602001828054801561129257602002820191906000526020600020905b8160009054906101000a900473ffffffffffffffffffffffffffffffffffffffff1673ffffffffffffffffffffffffffffffffffffffff1681526020019060010190808311611248575b50505050509050919050565b600160003373ffffffffffffffffffffffffffffffffffffffff1673ffffffffffffffffffffffffffffffffffffffff16815260200190815260200160002060009054906101000a900460ff1615156112f657600080fd5b8060028190555050565b508054600082559060005260206000209081019061131e9190611321565b50565b61134391905b8082111561133f576000816000905550600101611327565b5090565b905600a165627a7a72305820664d56e0199445941865aef08f63250c9907e7a5877db25b5df19aa77003a4c40029",
  "source": "pragma solidity ^0.4.24;\n\n/**\n * Separate logic code from data to make contracts upgradeable; i.e. can update transaction logic in the future without losing data\n */\n\ncontract OhanaCoinStorage {\n\n\t// Stores a user's balances\n    struct Wallet {\n        uint256 personalBalance;        // Personal balance for each user (used for prizes, etc)\n        uint256 transferableBalance;    // Available coins to give to other users\n        mapping (address => uint256) transferAmounts; // Amount user has transfered to another user so far in the month\n        address[] transferredUsers; // Stores users that this user has transferred to in this month\n        uint256[] pastTenBalances; // Stores users balances from past 10 days\n        uint256 balancesStartIndex; // Stores index of oldest balance in pastTenBalances\n    }\n\n    mapping (address => Wallet) public balanceOf;    // Maps user to his/her balances\n    mapping (address => bool) public accessAllowed;  // Stores who has access to call functions of this contract (OhanaCoin contract only)\n    uint256 public totalSupply;\n\n    modifier hasAccess() {\n    \trequire(accessAllowed[msg.sender]);\n    \t_;\n    }\n\n    constructor(uint256 initialSupply) public {\n    \taccessAllowed[msg.sender] = true;\n    \ttotalSupply = initialSupply;                               \t\t// Set totalSupply\n        balanceOf[msg.sender].transferableBalance = totalSupply;        // Give the creator all initial tokens\n    }\n\n    function allowAccess(address _address) hasAccess external {\n    \taccessAllowed[_address] = true;\n    }\n\n    function denyAccess(address _address) hasAccess external {\n    \taccessAllowed[_address] = false;\n    }\n\n    function getTransferableBalance(address user) external view returns (uint256) {\n        return balanceOf[user].transferableBalance;\n    }\n\n    function getPersonalBalance(address user) external view returns (uint256) {\n        return balanceOf[user].personalBalance;\n    }\n\n    // function getNumTransfers(address user) hasAccess external view returns (uint8) {\n    //     return balanceOf[user].numTransfers;\n    // }\n\n    function getUserTransferredAmount(address from, address to) external view returns (uint256) {\n        return balanceOf[from].transferAmounts[to];\n    }\n\n    function getTransferredUsers(address user) external view returns (address[]) {\n        return balanceOf[user].transferredUsers;\n    }\n\n    function getPastBalances(address user) external view returns (uint256[], uint256) {\n        return (balanceOf[user].pastTenBalances, balanceOf[user].balancesStartIndex);\n    }\n\n    function setUserTransferAmount(address from, address to, uint256 value) hasAccess external {\n        if (balanceOf[from].transferAmounts[to] == 0) {\n            balanceOf[from].transferredUsers.push(to); // haven't transferred to that user before, add to list\n        }\n        balanceOf[from].transferAmounts[to] = value;\n    }\n\n    function setTransferableBalance(address user, uint256 amount) hasAccess external {\n    \tbalanceOf[user].transferableBalance = amount;\n    }\n\n    function setPersonalBalance(address user, uint256 amount) hasAccess external {\n    \tbalanceOf[user].personalBalance = amount;\n    }\n\n    // function setNumTransfers(address user, uint8 amount) hasAccess external {\n    // \tbalanceOf[user].numTransfers = amount;\n    // }\n\n    function setTotalSupply(uint256 amount) hasAccess external {\n        totalSupply = amount;\n    }\n\n    function storeBalance(address user) hasAccess external {\n        uint arrSize = balanceOf[user].pastTenBalances.length;\n        uint256 startIndex = balanceOf[user].balancesStartIndex;\n        if (arrSize >= 10) {\n            delete balanceOf[user].pastTenBalances[startIndex];\n            balanceOf[user].balancesStartIndex += 1;\n        }\n        balanceOf[user].pastTenBalances.push(balanceOf[user].personalBalance); //add current balance to the front of array\n    }\n\n    function resetTransferredUsers(address user) hasAccess external {\n        for (uint i = 0; i < balanceOf[user].transferredUsers.length; i++) {\n            address currentUser = balanceOf[user].transferredUsers[i];\n            delete balanceOf[user].transferAmounts[currentUser]; //resets to 0\n        }\n        delete balanceOf[user].transferredUsers;\n    } \n\n}",
  "sourcePath": "/Users/byue/Desktop/truffle/contracts/storage/OhanaCoinStorage.sol",
  "compiler": {
    "name": "solc",
    "version": "0.4.24+commit.e67f0147.Emscripten.clang"
  },
  "schemaVersion": "2.0.0",
  "updatedAt": "2018-07-23T20:56:21.094Z"
}