{
  "contractName": "OhanaCoin",
  "abi": [
    {
      "constant": true,
      "inputs": [],
      "name": "monthlyAllowance",
      "outputs": [
        {
          "name": "",
          "type": "uint8"
        }
      ],
      "payable": false,
      "stateMutability": "view",
      "type": "function"
    },
    {
      "constant": true,
      "inputs": [],
      "name": "name",
      "outputs": [
        {
          "name": "",
          "type": "string"
        }
      ],
      "payable": false,
      "stateMutability": "view",
      "type": "function"
    },
    {
      "constant": true,
      "inputs": [],
      "name": "totalSupply",
      "outputs": [
        {
          "name": "",
          "type": "uint256"
        }
      ],
      "payable": false,
      "stateMutability": "view",
      "type": "function"
    },
    {
      "constant": true,
      "inputs": [
        {
          "name": "",
          "type": "address"
        }
      ],
      "name": "balanceOf",
      "outputs": [
        {
          "name": "personalBalance",
          "type": "uint256"
        },
        {
          "name": "transferableBalance",
          "type": "uint256"
        },
        {
          "name": "balancesStartIndex",
          "type": "uint256"
        }
      ],
      "payable": false,
      "stateMutability": "view",
      "type": "function"
    },
    {
      "constant": true,
      "inputs": [
        {
          "name": "",
          "type": "address"
        }
      ],
      "name": "accessAllowed",
      "outputs": [
        {
          "name": "",
          "type": "bool"
        }
      ],
      "payable": false,
      "stateMutability": "view",
      "type": "function"
    },
    {
      "constant": true,
      "inputs": [],
      "name": "userTransferAmountLimit",
      "outputs": [
        {
          "name": "",
          "type": "uint256"
        }
      ],
      "payable": false,
      "stateMutability": "view",
      "type": "function"
    },
    {
      "constant": true,
      "inputs": [],
      "name": "owner",
      "outputs": [
        {
          "name": "",
          "type": "address"
        }
      ],
      "payable": false,
      "stateMutability": "view",
      "type": "function"
    },
    {
      "constant": true,
      "inputs": [],
      "name": "symbol",
      "outputs": [
        {
          "name": "",
          "type": "string"
        }
      ],
      "payable": false,
      "stateMutability": "view",
      "type": "function"
    },
    {
      "inputs": [
        {
          "name": "initialSupply",
          "type": "uint256"
        },
        {
          "name": "adminContract",
          "type": "address"
        },
        {
          "name": "storageContract",
          "type": "address"
        }
      ],
      "payable": true,
      "stateMutability": "payable",
      "type": "constructor"
    },
    {
      "payable": true,
      "stateMutability": "payable",
      "type": "fallback"
    },
    {
      "anonymous": false,
      "inputs": [
        {
          "indexed": true,
          "name": "from",
          "type": "address"
        },
        {
          "indexed": true,
          "name": "to",
          "type": "address"
        },
        {
          "indexed": false,
          "name": "value",
          "type": "uint256"
        },
        {
          "indexed": false,
          "name": "message",
          "type": "string"
        }
      ],
      "name": "Transfer",
      "type": "event"
    },
    {
      "anonymous": false,
      "inputs": [
        {
          "indexed": true,
          "name": "from",
          "type": "address"
        },
        {
          "indexed": false,
          "name": "value",
          "type": "uint256"
        },
        {
          "indexed": false,
          "name": "balanceType",
          "type": "string"
        },
        {
          "indexed": false,
          "name": "burnType",
          "type": "string"
        }
      ],
      "name": "Burn",
      "type": "event"
    },
    {
      "anonymous": false,
      "inputs": [
        {
          "indexed": true,
          "name": "to",
          "type": "address"
        }
      ],
      "name": "Reset",
      "type": "event"
    },
    {
      "anonymous": false,
      "inputs": [
        {
          "indexed": false,
          "name": "message",
          "type": "string"
        }
      ],
      "name": "Error",
      "type": "event"
    },
    {
      "constant": false,
      "inputs": [
        {
          "name": "_to",
          "type": "address"
        },
        {
          "name": "_value",
          "type": "uint256"
        },
        {
          "name": "fromBalance",
          "type": "uint256"
        },
        {
          "name": "_message",
          "type": "string"
        }
      ],
      "name": "transfer",
      "outputs": [],
      "payable": false,
      "stateMutability": "nonpayable",
      "type": "function"
    },
    {
      "constant": false,
      "inputs": [
        {
          "name": "_to",
          "type": "address"
        },
        {
          "name": "_value",
          "type": "uint256"
        },
        {
          "name": "_message",
          "type": "string"
        }
      ],
      "name": "transferFrom",
      "outputs": [
        {
          "name": "",
          "type": "bool"
        }
      ],
      "payable": false,
      "stateMutability": "nonpayable",
      "type": "function"
    },
    {
      "constant": false,
      "inputs": [
        {
          "name": "_from",
          "type": "address"
        },
        {
          "name": "_value",
          "type": "uint256"
        }
      ],
      "name": "adminBurnFrom",
      "outputs": [],
      "payable": false,
      "stateMutability": "nonpayable",
      "type": "function"
    },
    {
      "constant": false,
      "inputs": [
        {
          "name": "_from",
          "type": "address"
        },
        {
          "name": "_value",
          "type": "uint256"
        },
        {
          "name": "balanceType",
          "type": "string"
        }
      ],
      "name": "ownerBurnFrom",
      "outputs": [],
      "payable": false,
      "stateMutability": "nonpayable",
      "type": "function"
    },
    {
      "constant": false,
      "inputs": [
        {
          "name": "_to",
          "type": "address"
        }
      ],
      "name": "resetBalances",
      "outputs": [],
      "payable": false,
      "stateMutability": "nonpayable",
      "type": "function"
    },
    {
      "constant": false,
      "inputs": [
        {
          "name": "_to",
          "type": "address"
        }
      ],
      "name": "depositAllowance",
      "outputs": [],
      "payable": false,
      "stateMutability": "nonpayable",
      "type": "function"
    },
    {
      "constant": false,
      "inputs": [
        {
          "name": "mintAmount",
          "type": "uint256"
        }
      ],
      "name": "mintTokens",
      "outputs": [],
      "payable": false,
      "stateMutability": "nonpayable",
      "type": "function"
    },
    {
      "constant": false,
      "inputs": [
        {
          "name": "limit",
          "type": "uint256"
        }
      ],
      "name": "setUserTransferAmountLimit",
      "outputs": [],
      "payable": false,
      "stateMutability": "nonpayable",
      "type": "function"
    },
    {
      "constant": false,
      "inputs": [
        {
          "name": "value",
          "type": "uint8"
        }
      ],
      "name": "setMonthlyAllowance",
      "outputs": [],
      "payable": false,
      "stateMutability": "nonpayable",
      "type": "function"
    },
    {
      "constant": true,
      "inputs": [
        {
          "name": "user",
          "type": "address"
        }
      ],
      "name": "getTransferableBalance",
      "outputs": [
        {
          "name": "",
          "type": "uint256"
        }
      ],
      "payable": false,
      "stateMutability": "view",
      "type": "function"
    },
    {
      "constant": true,
      "inputs": [
        {
          "name": "user",
          "type": "address"
        }
      ],
      "name": "getPersonalBalance",
      "outputs": [
        {
          "name": "",
          "type": "uint256"
        }
      ],
      "payable": false,
      "stateMutability": "view",
      "type": "function"
    },
    {
      "constant": true,
      "inputs": [
        {
          "name": "user",
          "type": "address"
        }
      ],
      "name": "getNumTransferredUsers",
      "outputs": [
        {
          "name": "",
          "type": "uint256"
        }
      ],
      "payable": false,
      "stateMutability": "view",
      "type": "function"
    },
    {
      "constant": true,
      "inputs": [
        {
          "name": "user",
          "type": "address"
        }
      ],
      "name": "getTransferredUsers",
      "outputs": [
        {
          "name": "",
          "type": "address[]"
        }
      ],
      "payable": false,
      "stateMutability": "view",
      "type": "function"
    },
    {
      "constant": true,
      "inputs": [
        {
          "name": "from",
          "type": "address"
        },
        {
          "name": "to",
          "type": "address"
        }
      ],
      "name": "getUserTransferredAmount",
      "outputs": [
        {
          "name": "",
          "type": "uint256"
        }
      ],
      "payable": false,
      "stateMutability": "view",
      "type": "function"
    },
    {
      "constant": true,
      "inputs": [],
      "name": "getTotalSupply",
      "outputs": [
        {
          "name": "",
          "type": "uint256"
        }
      ],
      "payable": false,
      "stateMutability": "view",
      "type": "function"
    },
    {
      "constant": true,
      "inputs": [
        {
          "name": "user",
          "type": "address"
        }
      ],
      "name": "getPastBalances",
      "outputs": [
        {
          "name": "",
          "type": "uint256[]"
        },
        {
          "name": "",
          "type": "uint256"
        }
      ],
      "payable": false,
      "stateMutability": "view",
      "type": "function"
    },
    {
      "constant": false,
      "inputs": [
        {
          "name": "user",
          "type": "address"
        }
      ],
      "name": "storeBalance",
      "outputs": [],
      "payable": false,
      "stateMutability": "nonpayable",
      "type": "function"
    }
  ],
  "bytecode": "0x60806040526040805190810160405280600981526020017f4f68616e61436f696e0000000000000000000000000000000000000000000000815250600490805190602001906200005192919062000253565b506040805190810160405280600381526020017f4f484e0000000000000000000000000000000000000000000000000000000000815250600590805190602001906200009f92919062000253565b50600f600655601e600760006101000a81548160ff021916908360ff16021790555060405160608062003e33833981018060405281019080805190602001909291908051906020019092919080519060200190929190505050336000806101000a81548173ffffffffffffffffffffffffffffffffffffffff021916908373ffffffffffffffffffffffffffffffffffffffff16021790555081600760016101000a81548173ffffffffffffffffffffffffffffffffffffffff021916908373ffffffffffffffffffffffffffffffffffffffff16021790555080600860006101000a81548173ffffffffffffffffffffffffffffffffffffffff021916908373ffffffffffffffffffffffffffffffffffffffff160217905550336000806101000a81548173ffffffffffffffffffffffffffffffffffffffff021916908373ffffffffffffffffffffffffffffffffffffffff16021790555082600381905550600354600160003373ffffffffffffffffffffffffffffffffffffffff1673ffffffffffffffffffffffffffffffffffffffff1681526020019081526020016000206001018190555050505062000302565b828054600181600116156101000203166002900490600052602060002090601f016020900481019282601f106200029657805160ff1916838001178555620002c7565b82800160010185558215620002c7579182015b82811115620002c6578251825591602001919060010190620002a9565b5b509050620002d69190620002da565b5090565b620002ff91905b80821115620002fb576000816000905550600101620002e1565b5090565b90565b613b2180620003126000396000f300608060405260043610610149576000357c0100000000000000000000000000000000000000000000000000000000900463ffffffff1680630467456d1461014e57806306fdde031461017f57806318160ddd1461020f5780631bdbee0a1461023a578063221be6331461027d5780633957e7a51461031c5780633bc91dd21461036957806343f8aa56146103c05780634c0bcfe5146103ed578063572a9a64146104445780636da2a10e146104d757806370a082311461054657806372501976146105ab57806381b347961461060657806382045af51461065d5780638da5cb5b14610688578063909aad2c146106df57806395d89b411461070f57806397304ced1461079f578063be6e7dee146107cc578063c3b82f2b14610843578063c4e41b2214610886578063d0b90616146108b1578063d6fcb04b146108f4578063ea447a3214610971575b600080fd5b34801561015a57600080fd5b50610163610a09565b604051808260ff1660ff16815260200191505060405180910390f35b34801561018b57600080fd5b50610194610a1c565b6040518080602001828103825283818151815260200191508051906020019080838360005b838110156101d45780820151818401526020810190506101b9565b50505050905090810190601f1680156102015780820380516001836020036101000a031916815260200191505b509250505060405180910390f35b34801561021b57600080fd5b50610224610aba565b6040518082815260200191505060405180910390f35b34801561024657600080fd5b5061027b600480360381019080803573ffffffffffffffffffffffffffffffffffffffff169060200190929190505050610ac0565b005b34801561028957600080fd5b506102be600480360381019080803573ffffffffffffffffffffffffffffffffffffffff169060200190929190505050610e73565b6040518080602001838152602001828103825284818151815260200191508051906020019060200280838360005b838110156103075780820151818401526020810190506102ec565b50505050905001935050505060405180910390f35b34801561032857600080fd5b50610367600480360381019080803573ffffffffffffffffffffffffffffffffffffffff16906020019092919080359060200190929190505050610f57565b005b34801561037557600080fd5b506103aa600480360381019080803573ffffffffffffffffffffffffffffffffffffffff1690602001909291905050506115b8565b6040518082815260200191505060405180910390f35b3480156103cc57600080fd5b506103eb60048036038101908080359060200190929190505050611607565b005b3480156103f957600080fd5b5061042e600480360381019080803573ffffffffffffffffffffffffffffffffffffffff1690602001909291905050506116fb565b6040518082815260200191505060405180910390f35b34801561045057600080fd5b506104d5600480360381019080803573ffffffffffffffffffffffffffffffffffffffff16906020019092919080359060200190929190803590602001908201803590602001908080601f0160208091040260200160405190810160405280939291908181526020018383808284378201915050505050509192919290505050611747565b005b3480156104e357600080fd5b50610544600480360381019080803573ffffffffffffffffffffffffffffffffffffffff1690602001909291908035906020019092919080359060200190929190803590602001908201803590602001919091929391929390505050611d1d565b005b34801561055257600080fd5b50610587600480360381019080803573ffffffffffffffffffffffffffffffffffffffff1690602001909291905050506120b4565b60405180848152602001838152602001828152602001935050505060405180910390f35b3480156105b757600080fd5b506105ec600480360381019080803573ffffffffffffffffffffffffffffffffffffffff1690602001909291905050506120de565b604051808215151515815260200191505060405180910390f35b34801561061257600080fd5b50610647600480360381019080803573ffffffffffffffffffffffffffffffffffffffff1690602001909291905050506120fe565b6040518082815260200191505060405180910390f35b34801561066957600080fd5b5061067261214a565b6040518082815260200191505060405180910390f35b34801561069457600080fd5b5061069d612150565b604051808273ffffffffffffffffffffffffffffffffffffffff1673ffffffffffffffffffffffffffffffffffffffff16815260200191505060405180910390f35b3480156106eb57600080fd5b5061070d600480360381019080803560ff169060200190929190505050612175565b005b34801561071b57600080fd5b5061072461227d565b6040518080602001828103825283818151815260200191508051906020019080838360005b83811015610764578082015181840152602081019050610749565b50505050905090810190601f1680156107915780820380516001836020036101000a031916815260200191505b509250505060405180910390f35b3480156107ab57600080fd5b506107ca6004803603810190808035906020019092919050505061231b565b005b3480156107d857600080fd5b5061082d600480360381019080803573ffffffffffffffffffffffffffffffffffffffff169060200190929190803573ffffffffffffffffffffffffffffffffffffffff169060200190929190505050612585565b6040518082815260200191505060405180910390f35b34801561084f57600080fd5b50610884600480360381019080803573ffffffffffffffffffffffffffffffffffffffff16906020019092919050505061260f565b005b34801561089257600080fd5b5061089b612b44565b6040518082815260200191505060405180910390f35b3480156108bd57600080fd5b506108f2600480360381019080803573ffffffffffffffffffffffffffffffffffffffff169060200190929190505050612b4e565b005b34801561090057600080fd5b50610957600480360381019080803573ffffffffffffffffffffffffffffffffffffffff16906020019092919080359060200190929190803590602001908201803590602001919091929391929390505050612e33565b604051808215151515815260200191505060405180910390f35b34801561097d57600080fd5b506109b2600480360381019080803573ffffffffffffffffffffffffffffffffffffffff1690602001909291905050506134a1565b6040518080602001828103825283818151815260200191508051906020019060200280838360005b838110156109f55780820151818401526020810190506109da565b505050509050019250505060405180910390f35b600760009054906101000a900460ff1681565b60048054600181600116156101000203166002900480601f016020809104026020016040519081016040528092919081815260200182805460018160011615610100020316600290048015610ab25780601f10610a8757610100808354040283529160200191610ab2565b820191906000526020600020905b815481529060010190602001808311610a9557829003601f168201915b505050505081565b60035481565b6000806000809054906101000a900473ffffffffffffffffffffffffffffffffffffffff1673ffffffffffffffffffffffffffffffffffffffff163373ffffffffffffffffffffffffffffffffffffffff16141515610bad576040517f08c379a000000000000000000000000000000000000000000000000000000000815260040180806020018281038252602d8152602001807f4f6e6c792074686520726f6f74206163636f756e742063616e2065786563757481526020017f65207468697320616374696f6e0000000000000000000000000000000000000081525060400191505060405180910390fd5b610bb6836116fb565b9150610bc1836120fe565b9050610c0383836040805190810160405280600c81526020017f5472616e7366657261626c650000000000000000000000000000000000000000815250611747565b610c4383826040805190810160405280600881526020017f506572736f6e616c000000000000000000000000000000000000000000000000815250611747565b610c4f620f424061231b565b610c588361260f565b600760019054906101000a900473ffffffffffffffffffffffffffffffffffffffff1673ffffffffffffffffffffffffffffffffffffffff166324d7806c846040518263ffffffff167c0100000000000000000000000000000000000000000000000000000000028152600401808273ffffffffffffffffffffffffffffffffffffffff1673ffffffffffffffffffffffffffffffffffffffff168152602001915050602060405180830381600087803b158015610d1557600080fd5b505af1158015610d29573d6000803e3d6000fd5b505050506040513d6020811015610d3f57600080fd5b810190808051906020019092919050505015610e2b57600760019054906101000a900473ffffffffffffffffffffffffffffffffffffffff1673ffffffffffffffffffffffffffffffffffffffff1663d1bd50ed846040518263ffffffff167c0100000000000000000000000000000000000000000000000000000000028152600401808273ffffffffffffffffffffffffffffffffffffffff1673ffffffffffffffffffffffffffffffffffffffff168152602001915050600060405180830381600087803b158015610e1257600080fd5b505af1158015610e26573d6000803e3d6000fd5b505050505b8273ffffffffffffffffffffffffffffffffffffffff167f162f46783fcc741c289a7af5bd16474ace09d7e8a9d5fe1ac0d37b12afc0ccac60405160405180910390a2505050565b60606000600160008473ffffffffffffffffffffffffffffffffffffffff1673ffffffffffffffffffffffffffffffffffffffff168152602001908152602001600020600401600160008573ffffffffffffffffffffffffffffffffffffffff1673ffffffffffffffffffffffffffffffffffffffff1681526020019081526020016000206005015481805480602002602001604051908101604052809291908181526020018280548015610f4757602002820191906000526020600020905b815481526020019060010190808311610f33575b5050505050915091509150915091565b600760019054906101000a900473ffffffffffffffffffffffffffffffffffffffff1673ffffffffffffffffffffffffffffffffffffffff166324d7806c336040518263ffffffff167c0100000000000000000000000000000000000000000000000000000000028152600401808273ffffffffffffffffffffffffffffffffffffffff1673ffffffffffffffffffffffffffffffffffffffff168152602001915050602060405180830381600087803b15801561101457600080fd5b505af1158015611028573d6000803e3d6000fd5b505050506040513d602081101561103e57600080fd5b810190808051906020019092919050505015156110e9576040517f08c379a00000000000000000000000000000000000000000000000000000000081526004018080602001828103825260238152602001807f4f6e6c792061646d696e732063616e206578656375746520746869732061637481526020017f696f6e000000000000000000000000000000000000000000000000000000000081525060400191505060405180910390fd5b600760019054906101000a900473ffffffffffffffffffffffffffffffffffffffff1673ffffffffffffffffffffffffffffffffffffffff1663ca7cbe23336040518263ffffffff167c0100000000000000000000000000000000000000000000000000000000028152600401808273ffffffffffffffffffffffffffffffffffffffff1673ffffffffffffffffffffffffffffffffffffffff168152602001915050602060405180830381600087803b1580156111a657600080fd5b505af11580156111ba573d6000803e3d6000fd5b505050506040513d60208110156111d057600080fd5b81019080805190602001909291905050508111151515611258576040517f08c379a000000000000000000000000000000000000000000000000000000000815260040180806020018281038252601e8152602001807f547279696e6720746f206275726e206d6f7265206f766572206c696d6974000081525060200191505060405180910390fd5b600760019054906101000a900473ffffffffffffffffffffffffffffffffffffffff1673ffffffffffffffffffffffffffffffffffffffff166387d1c416336113a184600760019054906101000a900473ffffffffffffffffffffffffffffffffffffffff1673ffffffffffffffffffffffffffffffffffffffff1663ca7cbe23336040518263ffffffff167c0100000000000000000000000000000000000000000000000000000000028152600401808273ffffffffffffffffffffffffffffffffffffffff1673ffffffffffffffffffffffffffffffffffffffff168152602001915050602060405180830381600087803b15801561135857600080fd5b505af115801561136c573d6000803e3d6000fd5b505050506040513d602081101561138257600080fd5b810190808051906020019092919050505061357190919063ffffffff16565b6040518363ffffffff167c0100000000000000000000000000000000000000000000000000000000028152600401808373ffffffffffffffffffffffffffffffffffffffff1673ffffffffffffffffffffffffffffffffffffffff16815260200182815260200192505050600060405180830381600087803b15801561142657600080fd5b505af115801561143a573d6000803e3d6000fd5b5050505061149381600160008573ffffffffffffffffffffffffffffffffffffffff1673ffffffffffffffffffffffffffffffffffffffff1681526020019081526020016000206000015461358d90919063ffffffff16565b600160008473ffffffffffffffffffffffffffffffffffffffff1673ffffffffffffffffffffffffffffffffffffffff168152602001908152602001600020600001819055506114ee8160035461358d90919063ffffffff16565b6003819055508173ffffffffffffffffffffffffffffffffffffffff167fc7fd3ef7ee498ebe6a01e4301f143a9fce50ad9557c045056f8455f1388d301382604051808281526020018060200180602001838103835260088152602001807f506572736f6e616c000000000000000000000000000000000000000000000000815250602001838103825260058152602001807f41646d696e000000000000000000000000000000000000000000000000000000815250602001935050505060405180910390a25050565b6000600160008373ffffffffffffffffffffffffffffffffffffffff1673ffffffffffffffffffffffffffffffffffffffff168152602001908152602001600020600301805490509050919050565b6000809054906101000a900473ffffffffffffffffffffffffffffffffffffffff1673ffffffffffffffffffffffffffffffffffffffff163373ffffffffffffffffffffffffffffffffffffffff161415156116f1576040517f08c379a000000000000000000000000000000000000000000000000000000000815260040180806020018281038252602d8152602001807f4f6e6c792074686520726f6f74206163636f756e742063616e2065786563757481526020017f65207468697320616374696f6e0000000000000000000000000000000000000081525060400191505060405180910390fd5b8060068190555050565b6000600160008373ffffffffffffffffffffffffffffffffffffffff1673ffffffffffffffffffffffffffffffffffffffff168152602001908152602001600020600101549050919050565b6000809054906101000a900473ffffffffffffffffffffffffffffffffffffffff1673ffffffffffffffffffffffffffffffffffffffff163373ffffffffffffffffffffffffffffffffffffffff16141515611831576040517f08c379a000000000000000000000000000000000000000000000000000000000815260040180806020018281038252602d8152602001807f4f6e6c792074686520726f6f74206163636f756e742063616e2065786563757481526020017f65207468697320616374696f6e0000000000000000000000000000000000000081525060400191505060405180910390fd5b73__Utilities_____________________________63bed34bba826040518263ffffffff167c0100000000000000000000000000000000000000000000000000000000028152600401808060200180602001838103835284818151815260200191508051906020019080838360005b838110156118bb5780820151818401526020810190506118a0565b50505050905090810190601f1680156118e85780820380516001836020036101000a031916815260200191505b508381038252600c8152602001807f5472616e7366657261626c650000000000000000000000000000000000000000815250602001935050505060206040518083038186803b15801561193a57600080fd5b505af415801561194e573d6000803e3d6000fd5b505050506040513d602081101561196457600080fd5b810190808051906020019092919050505015611a1a576119cf82600160008673ffffffffffffffffffffffffffffffffffffffff1673ffffffffffffffffffffffffffffffffffffffff1681526020019081526020016000206001015461358d90919063ffffffff16565b600160008573ffffffffffffffffffffffffffffffffffffffff1673ffffffffffffffffffffffffffffffffffffffff16815260200190815260200160002060010181905550611c09565b73__Utilities_____________________________63bed34bba826040518263ffffffff167c0100000000000000000000000000000000000000000000000000000000028152600401808060200180602001838103835284818151815260200191508051906020019080838360005b83811015611aa4578082015181840152602081019050611a89565b50505050905090810190601f168015611ad15780820380516001836020036101000a031916815260200191505b50838103825260088152602001807f506572736f6e616c000000000000000000000000000000000000000000000000815250602001935050505060206040518083038186803b158015611b2357600080fd5b505af4158015611b37573d6000803e3d6000fd5b505050506040513d6020811015611b4d57600080fd5b810190808051906020019092919050505015611c0357611bb882600160008673ffffffffffffffffffffffffffffffffffffffff1673ffffffffffffffffffffffffffffffffffffffff1681526020019081526020016000206000015461358d90919063ffffffff16565b600160008573ffffffffffffffffffffffffffffffffffffffff1673ffffffffffffffffffffffffffffffffffffffff16815260200190815260200160002060000181905550611c08565b600080fd5b5b611c1e8260035461358d90919063ffffffff16565b6003819055508273ffffffffffffffffffffffffffffffffffffffff167fc7fd3ef7ee498ebe6a01e4301f143a9fce50ad9557c045056f8455f1388d30138383604051808381526020018060200180602001838103835284818151815260200191508051906020019080838360005b83811015611ca8578082015181840152602081019050611c8d565b50505050905090810190601f168015611cd55780820380516001836020036101000a031916815260200191505b50838103825260058152602001807f4f776e657200000000000000000000000000000000000000000000000000000081525060200194505050505060405180910390a2505050565b6000831415611dc657611d7b84600160003373ffffffffffffffffffffffffffffffffffffffff1673ffffffffffffffffffffffffffffffffffffffff1681526020019081526020016000206000015461358d90919063ffffffff16565b600160003373ffffffffffffffffffffffffffffffffffffffff1673ffffffffffffffffffffffffffffffffffffffff16815260200190815260200160002060000181905550611e6c565b6001831415611e6b57611e2484600160003373ffffffffffffffffffffffffffffffffffffffff1673ffffffffffffffffffffffffffffffffffffffff1681526020019081526020016000206001015461358d90919063ffffffff16565b600160003373ffffffffffffffffffffffffffffffffffffffff1673ffffffffffffffffffffffffffffffffffffffff168152602001908152602001600020600101819055505b5b611ec184600160008873ffffffffffffffffffffffffffffffffffffffff1673ffffffffffffffffffffffffffffffffffffffff1681526020019081526020016000206000015461357190919063ffffffff16565b600160008773ffffffffffffffffffffffffffffffffffffffff1673ffffffffffffffffffffffffffffffffffffffff16815260200190815260200160002060000181905550611f9984600160003373ffffffffffffffffffffffffffffffffffffffff1673ffffffffffffffffffffffffffffffffffffffff16815260200190815260200160002060020160008873ffffffffffffffffffffffffffffffffffffffff1673ffffffffffffffffffffffffffffffffffffffff1681526020019081526020016000205461357190919063ffffffff16565b600160003373ffffffffffffffffffffffffffffffffffffffff1673ffffffffffffffffffffffffffffffffffffffff16815260200190815260200160002060020160008773ffffffffffffffffffffffffffffffffffffffff1673ffffffffffffffffffffffffffffffffffffffff168152602001908152602001600020819055506120263386613612565b8473ffffffffffffffffffffffffffffffffffffffff163373ffffffffffffffffffffffffffffffffffffffff167fcd6e659e4c2e75c3bfe47fecaccf39aeb368116a0ee52afb532e07f6cba6c0d186858560405180848152602001806020018281038252848482818152602001925080828437820191505094505050505060405180910390a35050505050565b60016020528060005260406000206000915090508060000154908060010154908060050154905083565b60026020528060005260406000206000915054906101000a900460ff1681565b6000600160008373ffffffffffffffffffffffffffffffffffffffff1673ffffffffffffffffffffffffffffffffffffffff168152602001908152602001600020600001549050919050565b60065481565b6000809054906101000a900473ffffffffffffffffffffffffffffffffffffffff1681565b6000809054906101000a900473ffffffffffffffffffffffffffffffffffffffff1673ffffffffffffffffffffffffffffffffffffffff163373ffffffffffffffffffffffffffffffffffffffff1614151561225f576040517f08c379a000000000000000000000000000000000000000000000000000000000815260040180806020018281038252602d8152602001807f4f6e6c792074686520726f6f74206163636f756e742063616e2065786563757481526020017f65207468697320616374696f6e0000000000000000000000000000000000000081525060400191505060405180910390fd5b80600760006101000a81548160ff021916908360ff16021790555050565b60058054600181600116156101000203166002900480601f0160208091040260200160405190810160405280929190818152602001828054600181600116156101000203166002900480156123135780601f106122e857610100808354040283529160200191612313565b820191906000526020600020905b8154815290600101906020018083116122f657829003601f168201915b505050505081565b6000809054906101000a900473ffffffffffffffffffffffffffffffffffffffff1673ffffffffffffffffffffffffffffffffffffffff163373ffffffffffffffffffffffffffffffffffffffff16141515612405576040517f08c379a000000000000000000000000000000000000000000000000000000000815260040180806020018281038252602d8152602001807f4f6e6c792074686520726f6f74206163636f756e742063616e2065786563757481526020017f65207468697320616374696f6e0000000000000000000000000000000000000081525060400191505060405180910390fd5b61247b81600160008060009054906101000a900473ffffffffffffffffffffffffffffffffffffffff1673ffffffffffffffffffffffffffffffffffffffff1673ffffffffffffffffffffffffffffffffffffffff1681526020019081526020016000206001015461357190919063ffffffff16565b600160008060009054906101000a900473ffffffffffffffffffffffffffffffffffffffff1673ffffffffffffffffffffffffffffffffffffffff1673ffffffffffffffffffffffffffffffffffffffff168152602001908152602001600020600101819055506124f78160035461357190919063ffffffff16565b6003819055506000809054906101000a900473ffffffffffffffffffffffffffffffffffffffff1673ffffffffffffffffffffffffffffffffffffffff1660007fcd6e659e4c2e75c3bfe47fecaccf39aeb368116a0ee52afb532e07f6cba6c0d18360405180828152602001806020018281038252600081526020016020019250505060405180910390a350565b6000600160008473ffffffffffffffffffffffffffffffffffffffff1673ffffffffffffffffffffffffffffffffffffffff16815260200190815260200160002060020160008373ffffffffffffffffffffffffffffffffffffffff1673ffffffffffffffffffffffffffffffffffffffff16815260200190815260200160002054905092915050565b6000806000809054906101000a900473ffffffffffffffffffffffffffffffffffffffff1673ffffffffffffffffffffffffffffffffffffffff163373ffffffffffffffffffffffffffffffffffffffff161415156126fc576040517f08c379a000000000000000000000000000000000000000000000000000000000815260040180806020018281038252602d8152602001807f4f6e6c792074686520726f6f74206163636f756e742063616e2065786563757481526020017f65207468697320616374696f6e0000000000000000000000000000000000000081525060400191505060405180910390fd5b600091505b600160008473ffffffffffffffffffffffffffffffffffffffff1673ffffffffffffffffffffffffffffffffffffffff1681526020019081526020016000206003018054905082101561285a57600160008473ffffffffffffffffffffffffffffffffffffffff1673ffffffffffffffffffffffffffffffffffffffff1681526020019081526020016000206003018281548110151561279d57fe5b9060005260206000200160009054906101000a900473ffffffffffffffffffffffffffffffffffffffff169050600160008473ffffffffffffffffffffffffffffffffffffffff1673ffffffffffffffffffffffffffffffffffffffff16815260200190815260200160002060020160008273ffffffffffffffffffffffffffffffffffffffff1673ffffffffffffffffffffffffffffffffffffffff168152602001908152602001600020600090558180600101925050612701565b600160008473ffffffffffffffffffffffffffffffffffffffff1673ffffffffffffffffffffffffffffffffffffffff16815260200190815260200160002060030160006128a89190613aaf565b61290f600760009054906101000a900460ff1660ff16600160008673ffffffffffffffffffffffffffffffffffffffff1673ffffffffffffffffffffffffffffffffffffffff1681526020019081526020016000206001015461357190919063ffffffff16565b600160008573ffffffffffffffffffffffffffffffffffffffff1673ffffffffffffffffffffffffffffffffffffffff168152602001908152602001600020600101819055506129dd600760009054906101000a900460ff1660ff16600160008060009054906101000a900473ffffffffffffffffffffffffffffffffffffffff1673ffffffffffffffffffffffffffffffffffffffff1673ffffffffffffffffffffffffffffffffffffffff1681526020019081526020016000206001015461358d90919063ffffffff16565b600160008060009054906101000a900473ffffffffffffffffffffffffffffffffffffffff1673ffffffffffffffffffffffffffffffffffffffff1673ffffffffffffffffffffffffffffffffffffffff168152602001908152602001600020600101819055508273ffffffffffffffffffffffffffffffffffffffff166108fc670de0b6b3a76400009081150290604051600060405180830381858888f19350505050158015612a92573d6000803e3d6000fd5b508273ffffffffffffffffffffffffffffffffffffffff166000809054906101000a900473ffffffffffffffffffffffffffffffffffffffff1673ffffffffffffffffffffffffffffffffffffffff167fcd6e659e4c2e75c3bfe47fecaccf39aeb368116a0ee52afb532e07f6cba6c0d1600760009054906101000a900460ff16604051808260ff168152602001806020018281038252600081526020016020019250505060405180910390a3505050565b6000600354905090565b6000806000809054906101000a900473ffffffffffffffffffffffffffffffffffffffff1673ffffffffffffffffffffffffffffffffffffffff163373ffffffffffffffffffffffffffffffffffffffff16141515612c3b576040517f08c379a000000000000000000000000000000000000000000000000000000000815260040180806020018281038252602d8152602001807f4f6e6c792074686520726f6f74206163636f756e742063616e2065786563757481526020017f65207468697320616374696f6e0000000000000000000000000000000000000081525060400191505060405180910390fd5b600160008473ffffffffffffffffffffffffffffffffffffffff1673ffffffffffffffffffffffffffffffffffffffff168152602001908152602001600020600401805490509150600160008473ffffffffffffffffffffffffffffffffffffffff1673ffffffffffffffffffffffffffffffffffffffff168152602001908152602001600020600501549050600a82101515612d8057600160008473ffffffffffffffffffffffffffffffffffffffff1673ffffffffffffffffffffffffffffffffffffffff16815260200190815260200160002060040181815481101515612d2157fe5b906000526020600020016000905560018060008573ffffffffffffffffffffffffffffffffffffffff1673ffffffffffffffffffffffffffffffffffffffff168152602001908152602001600020600501600082825401925050819055505b600160008473ffffffffffffffffffffffffffffffffffffffff1673ffffffffffffffffffffffffffffffffffffffff168152602001908152602001600020600401600160008573ffffffffffffffffffffffffffffffffffffffff1673ffffffffffffffffffffffffffffffffffffffff168152602001908152602001600020600001549080600181540180825580915050906001820390600052602060002001600090919290919091505550505050565b6000600760019054906101000a900473ffffffffffffffffffffffffffffffffffffffff1673ffffffffffffffffffffffffffffffffffffffff166324d7806c336040518263ffffffff167c0100000000000000000000000000000000000000000000000000000000028152600401808273ffffffffffffffffffffffffffffffffffffffff1673ffffffffffffffffffffffffffffffffffffffff168152602001915050602060405180830381600087803b158015612ef257600080fd5b505af1158015612f06573d6000803e3d6000fd5b505050506040513d6020811015612f1c57600080fd5b81019080805190602001909291905050501515612fc7576040517f08c379a00000000000000000000000000000000000000000000000000000000081526004018080602001828103825260238152602001807f4f6e6c792061646d696e732063616e206578656375746520746869732061637481526020017f696f6e000000000000000000000000000000000000000000000000000000000081525060400191505060405180910390fd5b600760019054906101000a900473ffffffffffffffffffffffffffffffffffffffff1673ffffffffffffffffffffffffffffffffffffffff16630b7c7ae1336040518263ffffffff167c0100000000000000000000000000000000000000000000000000000000028152600401808273ffffffffffffffffffffffffffffffffffffffff1673ffffffffffffffffffffffffffffffffffffffff168152602001915050602060405180830381600087803b15801561308457600080fd5b505af1158015613098573d6000803e3d6000fd5b505050506040513d60208110156130ae57600080fd5b8101908080519060200190929190505050841115151561315c576040517f08c379a00000000000000000000000000000000000000000000000000000000081526004018080602001828103825260328152602001807f41646d696e2068617320657863656564656420746f74616c207472616e73666581526020017f7261626c6520746f6b656e73206c696d6974000000000000000000000000000081525060400191505060405180910390fd5b600760019054906101000a900473ffffffffffffffffffffffffffffffffffffffff1673ffffffffffffffffffffffffffffffffffffffff1663ddbbc5ca33876040518363ffffffff167c0100000000000000000000000000000000000000000000000000000000028152600401808373ffffffffffffffffffffffffffffffffffffffff1673ffffffffffffffffffffffffffffffffffffffff1681526020018273ffffffffffffffffffffffffffffffffffffffff1673ffffffffffffffffffffffffffffffffffffffff16815260200192505050602060405180830381600087803b15801561324d57600080fd5b505af1158015613261573d6000803e3d6000fd5b505050506040513d602081101561327757600080fd5b81019080805190602001909291905050508411151515613325576040517f08c379a000000000000000000000000000000000000000000000000000000000815260040180806020018281038252603a8152602001807f41646d696e20686173207472616e7366657272656420746f6f206d616e79207481526020017f6f6b656e7320746f2074686174207573657220616c726561647900000000000081525060400191505060405180910390fd5b600760019054906101000a900473ffffffffffffffffffffffffffffffffffffffff1673ffffffffffffffffffffffffffffffffffffffff16630b5563143387876040518463ffffffff167c0100000000000000000000000000000000000000000000000000000000028152600401808473ffffffffffffffffffffffffffffffffffffffff1673ffffffffffffffffffffffffffffffffffffffff1681526020018373ffffffffffffffffffffffffffffffffffffffff1673ffffffffffffffffffffffffffffffffffffffff1681526020018281526020019350505050600060405180830381600087803b15801561341e57600080fd5b505af1158015613432573d6000803e3d6000fd5b505050506134956000809054906101000a900473ffffffffffffffffffffffffffffffffffffffff16868686868080601f016020809104026020016040519081016040528093929190818152602001838380828437820191505050505050613745565b60019050949350505050565b6060600160008373ffffffffffffffffffffffffffffffffffffffff1673ffffffffffffffffffffffffffffffffffffffff16815260200190815260200160002060030180548060200260200160405190810160405280929190818152602001828054801561356557602002820191906000526020600020905b8160009054906101000a900473ffffffffffffffffffffffffffffffffffffffff1673ffffffffffffffffffffffffffffffffffffffff168152602001906001019080831161351b575b50505050509050919050565b6000818301905082811015151561358457fe5b80905092915050565b6000828211151515613607576040517f08c379a000000000000000000000000000000000000000000000000000000000815260040180806020018281038252601e8152602001807f4e6f7420656e6f75676820746f6b656e7320666f72207472616e73666572000081525060200191505060405180910390fd5b818303905092915050565b6000600160008473ffffffffffffffffffffffffffffffffffffffff1673ffffffffffffffffffffffffffffffffffffffff16815260200190815260200160002060020160008373ffffffffffffffffffffffffffffffffffffffff1673ffffffffffffffffffffffffffffffffffffffff16815260200190815260200160002054141561374157600160008373ffffffffffffffffffffffffffffffffffffffff1673ffffffffffffffffffffffffffffffffffffffff1681526020019081526020016000206003018190806001815401808255809150509060018203906000526020600020016000909192909190916101000a81548173ffffffffffffffffffffffffffffffffffffffff021916908373ffffffffffffffffffffffffffffffffffffffff160217905550505b5050565b83838360008273ffffffffffffffffffffffffffffffffffffffff16141515156137d7576040517f08c379a00000000000000000000000000000000000000000000000000000000081526004018080602001828103825260188152602001807f496e76616c69642073656e64206164647265737320283029000000000000000081525060200191505060405180910390fd5b6000809054906101000a900473ffffffffffffffffffffffffffffffffffffffff1673ffffffffffffffffffffffffffffffffffffffff168373ffffffffffffffffffffffffffffffffffffffff16141515613a0b5760065461396e82600860009054906101000a900473ffffffffffffffffffffffffffffffffffffffff1673ffffffffffffffffffffffffffffffffffffffff1663be6e7dee87876040518363ffffffff167c0100000000000000000000000000000000000000000000000000000000028152600401808373ffffffffffffffffffffffffffffffffffffffff1673ffffffffffffffffffffffffffffffffffffffff1681526020018273ffffffffffffffffffffffffffffffffffffffff1673ffffffffffffffffffffffffffffffffffffffff16815260200192505050602060405180830381600087803b15801561392557600080fd5b505af1158015613939573d6000803e3d6000fd5b505050506040513d602081101561394f57600080fd5b810190808051906020019092919050505061357190919063ffffffff16565b11151515613a0a576040517f08c379a00000000000000000000000000000000000000000000000000000000081526004018080602001828103825260328152602001807f596f752068617665207472616e7366657272656420746f6f206d75636820746f81526020017f2074686973207573657220616c7265616479000000000000000000000000000081525060400191505060405180910390fd5b5b613a6085600160008a73ffffffffffffffffffffffffffffffffffffffff1673ffffffffffffffffffffffffffffffffffffffff1681526020019081526020016000206001015461358d90919063ffffffff16565b600160008973ffffffffffffffffffffffffffffffffffffffff1673ffffffffffffffffffffffffffffffffffffffff1681526020019081526020016000206001018190555050505050505050565b5080546000825590600052602060002090810190613acd9190613ad0565b50565b613af291905b80821115613aee576000816000905550600101613ad6565b5090565b905600a165627a7a72305820473a788470aafbf7ecfaab23651c524b3c072f9e613f082c131ab00debb501d30029",
  "source": "pragma solidity ^0.4.24;\n\nimport \"./Utilities.sol\";\nimport \"./Admin.sol\";\nimport \"./Owned.sol\";\nimport \"./Storage/OhanaCoinStorage.sol\";\n\ncontract OhanaCoin is Owned {\n\n    // Stores a user's balances\n    struct Wallet {\n        uint256 personalBalance;        // Personal balance for each user (used for prizes, etc)\n        uint256 transferableBalance;    // Available coins to give to other users\n        mapping (address => uint256) transferAmounts; // Amount user has transfered to another user so far in the month\n        address[] transferredUsers; // Stores users that this user has transferred to in this month\n        uint256[] pastTenBalances; // Stores users balances from past 10 days\n        uint256 balancesStartIndex; // Stores index of oldest balance in pastTenBalances\n    }\n\n    mapping (address => Wallet) public balanceOf;    // Maps user to his/her balances\n    mapping (address => bool) public accessAllowed;  // Stores who has access to call functions of this contract (OhanaCoin contract only)\n    uint256 public totalSupply;\n    \n    // Check for some conditions before transferring any coins\n    modifier transferChecks(address _from, address _to, uint256 _value) {\n        // Prevent transfer to 0x0 address. Use burn() instead\n        require(_to != 0x0, \"Invalid send address (0)\");\n        // Check if sender has transferred too much already\n        if (_from != owner)\n            require(coinStorage.getUserTransferredAmount(_from, _to).add(_value) <= userTransferAmountLimit, \n                \"You have transferred too much to this user already\");\n        _;\n    }\n\n    modifier onlyAdmin {\n        require(admin.isAdmin(msg.sender), \"Only admins can execute this action\");\n        _;\n    }\n    \n    // Public variables of the token\n    string public name = \"OhanaCoin\";\n    string public symbol = \"OHN\";\n    uint256 public userTransferAmountLimit = 15; // How many coins a user can transfer total to another user in a given month\n    // uint8 public userTransactionsLimit = 3; // How many transactions a user can make each month\n    uint8 public monthlyAllowance = 30; // Monthly allowance of coins to users\n    // uint256 public etherAmount = 1000; // How much ether is allocated to each user each month\n    Admin admin;\n    OhanaCoinStorage coinStorage;\n\n    \n    // This generates a public event on the blockchain that will notify clients (transaction)\n    event Transfer(address indexed from, address indexed to, uint256 value, string message);\n    event Burn(address indexed from, uint256 value, string balanceType, string burnType);\n    event Reset(address indexed to);\n    event Error(string message);\n\n        \n    /**\n     * Constrctor function\n     *\n     * Initializes contract with initial supply tokens to the creator of the contract and ether\n     */\n    constructor(uint256 initialSupply, address adminContract, address storageContract) public payable {\n        admin = Admin(adminContract); // Create an instance of the deployed Admin contract\n        coinStorage = OhanaCoinStorage(storageContract); // Create an instance of the storage\n        owner = msg.sender;                                     // Owner will mint new coins every month\n        totalSupply = initialSupply;                                    // Set totalSupply\n        balanceOf[msg.sender].transferableBalance = totalSupply;        // Give the creator all initial tokens\n    }\n\n    function _addTransferredUser(address _from, address _to) internal {\n        if (balanceOf[_from].transferAmounts[_to] == 0)\n            balanceOf[_from].transferredUsers.push(_to);\n    }\n\n\n    /**\n     * Internal transfer, only can be called by this contract. The tokens are transferred \n     * from the _from address's transferable balance to the _to address's transferable \n     * balance. This facilitates user to user transactions.\n     * \n     * @param _from The address of the sender\n     * @param _to The address of the recipient\n     * @param _value The amount to send\n     * @param _message The message to send along with the transfer\n     */\n    function _transferableToPersonal(address _from, address _to, uint _value, string _message) internal transferChecks(_from, _to, _value) {\n        // Subtract from the sender\n        // coinStorage.setTransferableBalance(_from, coinStorage.getTransferableBalance(_from).sub(_value)); // using safemath library \n        // // Add the same to the recipient\n        // coinStorage.setPersonalBalance(_to, coinStorage.getPersonalBalance(_to).add(_value));\n        // coinStorage.setUserTransferAmount(_from, _to, coinStorage.getUserTransferredAmount(_from, _to).add(_value));\n        balanceOf[_from].transferableBalance = balanceOf[_from].transferableBalance.sub(_value);\n    }\n    \n\n    /**\n     * Internal transfer, only can be called by this contract. The tokens are transfered \n     * to the _to address's personal balance. This facilitates user to user transactions.\n     * \n     * @param _from The address of the sender\n     * @param _to The address of the recipient\n     * @param _value The amount to send\n     * @param _message The message to send along with the transfer\n     */\n    function _personalToPersonal(address _from, address _to, uint _value, string _message) internal transferChecks(_from, _to, _value) {\n         // Subtract from the sender\n        // coinStorage.setPersonalBalance(_from, coinStorage.getPersonalBalance(_from).sub(_value));\n        // // Add the same to the recipient\n        // coinStorage.setPersonalBalance(_to, coinStorage.getPersonalBalance(_to).add(_value));\n        // coinStorage.setUserTransferAmount(_from, _to, coinStorage.getUserTransferredAmount(_from, _to).add(_value));\n        balanceOf[_from].personalBalance = balanceOf[_from].personalBalance.sub(_value);\n    }\n    \n    /**\n     * Transfer tokens to either the personal or transferable balance\n     *\n     * Send `_value` tokens to `_to` from your account\n     *\n     * @param _to The address of the recipient\n     * @param _value The amount to send\n     * @param fromBalance Which balance to withdraw from (Personal or Transferable)\n     * @param _message The message to send along with the transfer\n     */\n    function transfer(address _to, uint256 _value, uint fromBalance, string _message) external {\n        // if (!Utilities.compareStrings(fromBalance, \"Personal\") && !Utilities.compareStrings(fromBalance, \"Transferable\")) \n        //     revert();\n        // if (Utilities.compareStrings(fromBalance, \"Personal\")) \n        //     balanceOf[msg.sender].personalBalance = balanceOf[msg.sender].personalBalance.sub(_value);\n        //     // _personalToPersonal(msg.sender, _to, _value, _message);\n        // else if (Utilities.compareStrings(fromBalance, \"Transferable\"))\n        //     balanceOf[msg.sender].transferableBalance = balanceOf[msg.sender].transferableBalance.sub(_value); \n        //     // _transferableToPersonal(msg.sender, _to, _value, _message);\n        if (fromBalance == 0) {\n            balanceOf[msg.sender].personalBalance = balanceOf[msg.sender].personalBalance.sub(_value);\n        } else if (fromBalance == 1) {\n            balanceOf[msg.sender].transferableBalance = balanceOf[msg.sender].transferableBalance.sub(_value);\n        }\n        // balanceOf[msg.sender].transferableBalance = balanceOf[msg.sender].transferableBalance.sub(_value);\n        balanceOf[_to].personalBalance = balanceOf[_to].personalBalance.add(_value);\n        balanceOf[msg.sender].transferAmounts[_to] = balanceOf[msg.sender].transferAmounts[_to].add(_value);\n        _addTransferredUser(msg.sender, _to);\n        emit Transfer(msg.sender, _to, _value, _message);\n    }\n    \n     /**\n     * Transfer tokens from other address\n     *\n     * Send `_value` tokens to `_to` on behalf of msg.sender\n     *\n     * @param _to The address of the recipient\n     * @param _value The amount to send\n     * @param _message The message to send along with the transfer\n     */\n    function transferFrom(address _to, uint256 _value, string _message) external onlyAdmin returns (bool) {\n        require(_value <= admin.getAdminTransferableBalance(msg.sender), \"Admin has exceeded total transferable tokens limit\");   \n        require(_value <= admin.getAdminUserAllowance(msg.sender, _to), \"Admin has transferred too many tokens to that user already\"); \n        // if (_value > admin.getAdminTransferableBalance(msg.sender)) {\n        //     emit Error(\"Admin has exceeded total transferable tokens limit\");\n        //     return false;\n        // } \n        admin.reduceAdminTransferAllowance(msg.sender, _to, _value); // Update the balances/allownances\n        _transferableToPersonal(owner, _to, _value, _message);         // Transfer to spending balance\n        return true;\n    }\n\n    /**\n     * Destroy tokens from _from account (only admins can execute this, for redeeming prizes)\n     *\n     * Remove `_value` tokens from the system irreversibly on behalf of `_from`.\n     *\n     * @param _from The address of the user to burn tokens from\n     * @param _value The amount of tokens to burn\n     */\n    function adminBurnFrom(address _from, uint256 _value) external onlyAdmin {\n        require(_value <= admin.getAdminBurnBalance(msg.sender), \"Trying to burn more over limit\");\n        admin.setAdminBurnBalance(msg.sender, admin.getAdminBurnBalance(msg.sender).add(_value));\n        // coinStorage.setPersonalBalance(_from, coinStorage.getPersonalBalance(_from).sub(_value));\n        // coinStorage.setTotalSupply(coinStorage.totalSupply().sub(_value));\n        balanceOf[_from].personalBalance = balanceOf[_from].personalBalance.sub(_value);\n        totalSupply = totalSupply.sub(_value);\n        emit Burn(_from, _value, \"Personal\", \"Admin\");\n    }   \n    \n    /**\n     * Destroy tokens from _from account (only owner can execute this, is a scheduled burn)\n     *\n     * Remove `_value` tokens from the system irreversibly on behalf of `_from`.\n     *\n     * @param _from The address of the user to burn tokens from\n     * @param _value The amount of money to burn\n     * @param balanceType Which balance to burn from (Transferable or Personal)\n     */\n    function ownerBurnFrom(address _from, uint256 _value, string balanceType) public onlyOwner {\n        if (Utilities.compareStrings(balanceType, \"Transferable\")) {    // Subtract from the targeted balance\n            balanceOf[_from].transferableBalance = balanceOf[_from].transferableBalance.sub(_value);\n            // coinStorage.setTransferableBalance(_from, coinStorage.getTransferableBalance(_from).sub(_value));\n        }\n        else if (Utilities.compareStrings(balanceType, \"Personal\")) {\n            balanceOf[_from].personalBalance = balanceOf[_from].personalBalance.sub(_value);\n            // coinStorage.setPersonalBalance(_from, coinStorage.getPersonalBalance(_from).sub(_value));\n        }\n        else { \n            revert();\n        }\n        // coinStorage.setTotalSupply(coinStorage.totalSupply().sub(_value)); // Update totalSupply\n        totalSupply = totalSupply.sub(_value);\n        emit Burn(_from, _value, balanceType, \"Owner\");\n    }\n\n    /** Burn balances, deposit monthly allowance and reset admin allowances. Called every four months\n    *\n    * @param _to The address to reset balances of\n    */\n    function resetBalances(address _to) external onlyOwner {\n        // Burn the users balances\n        uint256 transferableBalance = getTransferableBalance(_to);\n        uint256 personalBalance = getPersonalBalance(_to);\n        ownerBurnFrom(_to, transferableBalance, \"Transferable\");\n        ownerBurnFrom(_to, personalBalance, \"Personal\");\n        mintTokens(1000000); //add more tokens to the common pool\n        depositAllowance(_to); // deposit the monthlyAllowance as well\n        if (admin.isAdmin(_to)) {\n            // if user is an admin, reset his/her allowances as well\n            admin.resetAllowances(_to);\n        }\n        emit Reset(_to);\n    }\n\n    /**\n    * Every month, every root account deposits monthlyAllowance tokens into user's transfer balance\n    *\n    * @param _to The address to deposit the allowance to\n    */\n    function depositAllowance(address _to) public onlyOwner {\n        // coinStorage.resetTransferredUsers(_to); //reset the record of who _to has transferred to in the past month\n        // coinStorage.setTransferableBalance(_to, coinStorage.getTransferableBalance(_to).add(monthlyAllowance));\n        // coinStorage.setTransferableBalance(owner, coinStorage.getTransferableBalance(owner).sub(monthlyAllowance));\n        for (uint i = 0; i < balanceOf[_to].transferredUsers.length; i++) {\n            address currentUser = balanceOf[_to].transferredUsers[i];\n            delete balanceOf[_to].transferAmounts[currentUser]; //resets to 0\n        }\n        delete balanceOf[_to].transferredUsers;\n        balanceOf[_to].transferableBalance = balanceOf[_to].transferableBalance.add(monthlyAllowance);\n        balanceOf[owner].transferableBalance = balanceOf[owner].transferableBalance.sub(monthlyAllowance);\n        _to.transfer(1 ether); // transfer ether to user to cover gas costs of transactions\n        emit Transfer(owner, _to, monthlyAllowance, \"\");\n    }\n    \n    /**\n     * Owner of contract can mint new tokens\n     * \n     * @param mintAmount The amount to create\n     */\n    function mintTokens(uint256 mintAmount) public onlyOwner {\n        // coinStorage.setTransferableBalance(owner, coinStorage.getTransferableBalance(owner).add(mintAmount));\n        // coinStorage.setTotalSupply(coinStorage.totalSupply().add(mintAmount));\n        balanceOf[owner].transferableBalance = balanceOf[owner].transferableBalance.add(mintAmount);\n        totalSupply = totalSupply.add(mintAmount);\n        emit Transfer(0, owner, mintAmount, \"\");\n    }\n\n    function setUserTransferAmountLimit(uint256 limit) external onlyOwner {\n        userTransferAmountLimit = limit;\n    }\n\n    function setMonthlyAllowance(uint8 value) external onlyOwner {\n        monthlyAllowance = value;\n    }\n\n    function getTransferableBalance(address user) public view returns (uint256) {\n        // return coinStorage.getTransferableBalance(user);\n        return balanceOf[user].transferableBalance;\n    }\n\n    function getPersonalBalance(address user) public view returns (uint256) {\n        // return coinStorage.getPersonalBalance(user);\n        return balanceOf[user].personalBalance;\n    }\n\n    function getNumTransferredUsers(address user) external view returns (uint256) {\n        // return coinStorage.getTransferredUsers(user).length;\n        return balanceOf[user].transferredUsers.length;\n    }\n\n    function getTransferredUsers(address user) external view returns (address[]) {\n        // return coinStorage.getTransferredUsers(user);\n        return balanceOf[user].transferredUsers;\n    }\n\n    function getUserTransferredAmount(address from, address to) external view returns (uint256) {\n        // return coinStorage.getUserTransferredAmount(from, to);\n        return balanceOf[from].transferAmounts[to];\n    }\n\n    function getTotalSupply() external view returns (uint256) {\n        // return coinStorage.totalSupply();\n        return totalSupply;\n    }\n\n    function getPastBalances(address user) external view returns (uint256[], uint256) {\n        // return coinStorage.getPastBalances(user);\n        return (balanceOf[user].pastTenBalances, balanceOf[user].balancesStartIndex);\n    }\n\n    function storeBalance(address user) external onlyOwner {\n        // coinStorage.storeBalance(user);\n        uint arrSize = balanceOf[user].pastTenBalances.length;\n        uint256 startIndex = balanceOf[user].balancesStartIndex;\n        if (arrSize >= 10) {\n            delete balanceOf[user].pastTenBalances[startIndex];\n            balanceOf[user].balancesStartIndex += 1;\n        }\n        balanceOf[user].pastTenBalances.push(balanceOf[user].personalBalance); //add current balance to the front of array\n    } \n\n    /** \n    * Fallback function to prevent accidental sending of ether to this contract\n    */\n    function () public payable {\n        revert();\n    }\n    \n}",
  "sourcePath": "/Users/byue/Desktop/truffle/contracts/OhanaCoin.sol",
  "compiler": {
    "name": "solc",
    "version": "0.4.24+commit.e67f0147.Emscripten.clang"
  },
  "schemaVersion": "2.0.0",
  "updatedAt": "2018-07-23T23:00:18.378Z"
}