{
  "contractName": "Utilities",
  "abi": [
    {
      "constant": true,
      "inputs": [
        {
          "name": "a",
          "type": "string"
        },
        {
          "name": "b",
          "type": "string"
        }
      ],
      "name": "compareStrings",
      "outputs": [
        {
          "name": "",
          "type": "bool"
        }
      ],
      "payable": false,
      "stateMutability": "pure",
      "type": "function"
    }
  ],
  "bytecode": "0x6102f4610030600b82828239805160001a6073146000811461002057610022565bfe5b5030600052607381538281f3007300000000000000000000000000000000000000003014608060405260043610610058576000357c0100000000000000000000000000000000000000000000000000000000900463ffffffff168063bed34bba1461005d575b600080fd5b6100fd600480360381019080803590602001908201803590602001908080601f0160208091040260200160405190810160405280939291908181526020018383808284378201915050505050509192919290803590602001908201803590602001908080601f0160208091040260200160405190810160405280939291908181526020018383808284378201915050505050509192919290505050610117565b604051808215151515815260200191505060405180910390f35b6000816040516020018082805190602001908083835b602083101515610152578051825260208201915060208101905060208303925061012d565b6001836020036101000a0380198251168184511680821785525050505050509050019150506040516020818303038152906040526040518082805190602001908083835b6020831015156101bb5780518252602082019150602081019050602083039250610196565b6001836020036101000a038019825116818451168082178552505050505050905001915050604051809103902060001916836040516020018082805190602001908083835b6020831015156102255780518252602082019150602081019050602083039250610200565b6001836020036101000a0380198251168184511680821785525050505050509050019150506040516020818303038152906040526040518082805190602001908083835b60208310151561028e5780518252602082019150602081019050602083039250610269565b6001836020036101000a038019825116818451168082178552505050505050905001915050604051809103902060001916149050929150505600a165627a7a72305820f309da9b93b23ac232c0627ec036c85b5014735c553e78285ee1681f0b11a8ea0029",
  "source": "pragma solidity ^0.4.24;\n\nlibrary Utilities {\n\t/**\n     * Can't compare strings directly in Solidity, so compare their hashes\n     * \n     * @param a The first string \n     * @param b The second string\n     */\n    function compareStrings (string a, string b) public pure returns (bool) {\n       return keccak256(abi.encodePacked(a)) == keccak256(abi.encodePacked(b));\n    }\n}\n",
  "sourcePath": "/Users/byue/Desktop/truffle/contracts/Utilities.sol",
  "compiler": {
    "name": "solc",
    "version": "0.4.24+commit.e67f0147.Emscripten.clang"
  },
  "schemaVersion": "2.0.0",
  "updatedAt": "2018-07-19T20:27:20.125Z"
}